:020000040800F2
:1000000048080020D50000080F2A0008E52900084C
:1000100000000000000000000000000000000000E0
:10002000000000000000000000000000192D000882
:100030000000000000000000F12A00081D2D00084B
:10004000E7000008E7000008E7000008E7000008F4
:10005000E7000008C70B0008E7000008D10B000804
:10006000E7000008E7000008E7000008E7000008D4
:10007000E7000008E700000800000000E7000008B3
:1000800000000000E7000008000000000000000081
:10009000E700000800000000E7000008E700000893
:1000A000E7000008E7000008E7000008E700000894
:1000B000E7000008E7000008E7000008E700000884
:1000C0000348854600F078FB00480047C147000818
:1000D000480800200448804704480047FEE7FEE740
:1000E000FEE7FEE7FEE7FEE7AD2D0008C1000008D1
:1000F00030B50B46014600202022012409E00D46C0
:10010000D5409D4205D31D469540491B2546954047
:1001100040191546521E002DF1DC30BDF0B51FB45C
:100120000646002082B005464024019100901BE065
:10013000019922460F46304600F090F9049A059B3B
:10014000801A994110D310461946224600F076F9DC
:10015000361A8F410197224601200021009F00F0AE
:100160006DF938184D4100902046641E0028DFDCF0
:10017000019B00982946324607B0F0BD10B50346F2
:100180001C460C43A40703D009E010C9121F10C37A
:10019000042AFAD203E00C781C70491C5B1C521E26
:1001A000F9D210BDD2B201E00270401C491EFBD250
:1001B00070470022F6E710B513460A460446194672
:1001C000FFF7F0FF204610BDF0B51FB488B00B99C3
:1001D0000998002448400999C00F4900490809912D
:1001E000C0070B990090490049080B91099908989C
:1001F000A64608431CD00B990A98084318D00998C2
:1002000001244000420D4800410D099824050003D7
:10021000000B204309900B980003000B20430B9028
:1002200050181C494018002201901446104605E061
:10023000002001460DB0F0BD032801DA034600E0BE
:1002400003239C46C11A0AAE0AE05F0008ADED5BCD
:100250004F00F75B7D430027AA187C41491C5B1EB9
:100260006145F2DD410004AB5A522104120C0A43ED
:10027000240C401C0828DFDB01980290009970468E
:1002800001910090059B049A0799069800F045F9A2
:10029000D0E700000DFCFFFFF0B50C465C4085B0D8
:1002A000E40FE40703944C000026640859009446C8
:1002B000490802460296224321D062460A431ED0D4
:1002C0006200570D4A000E032303550D0124024618
:1002D0002C492405781B1B0B360B4018234326435F
:1002E000614600901C46501AB44103D30098401C4C
:1002F000009002E0921800985B41002803DA002089
:10030000014605B0F0BD00200121090507468646DB
:1003100011E064461D46141BB54106D36546521BC9
:10032000B341744607430C43A646CD07400849082D
:10033000284392185B4105460D43EAD11046184305
:1003400013D06046194650407140084306D06046BD
:10035000101AB34106D20122002306E00022012335
:10036000DB0702E00122D2435310009874460105D6
:10037000381C6141029C039D0019694100F0C0F8DE
:10038000BFE70000FD030000C217C10F504010B5C9
:100390004018CA079623002100F079F810BD00002C
:1003A0000EB5C217C10F5040CA0740180021054BB7
:1003B0000293019200910A460B4600F0AEF803B09A
:1003C00000BD000033040000C20FD2074000400807
:1003D0000BD0C10D0723DB01C91840020905400AF3
:1003E0001143C2084007114370470020014670477F
:1003F000CB0FDB07490010B5490802460A4307D076
:100400000A0D07240903E401090B121B002A01DC71
:10041000002010BDC900440F0C43C100E018D205F4
:10042000801800F02CF810BD0122D207002800DB54
:10043000101A002900DB511A8142704710B5202A9A
:1004400004DB0146203A9140002010BD914020235A
:100450009C1A0346E3401943904010BD10B5202A72
:1004600004DB0846203AD040002110BD0B46D340A3
:10047000D0402024A21A91400843194610BD0029FB
:1004800004DA401C490001D140084000704770B4B4
:100490000024050C05D11024000402D1002921D02C
:1004A0001124050E01D100020834050F01D100010D
:1004B000241D850F01D18000A41C002801DB400011
:1004C000641C002908D020252E1B0D46F540A140B4
:1004D00000D001212943084301061B1B000ADB1D34
:1004E00002D5002070BC7047DB0518188018002961
:1004F000F8DA401C4900F5D170BC40084000704754
:1005000010B5002B08DA0024401C614192185B41B1
:100510001A4301D14008400010BDF0B51FB482B0AD
:1005200005460C0003D0084603F02EF802E003F065
:100530002BF820300246009021462846FFF77EFF28
:10054000049B059A04460F4618431143084314D0F0
:10055000184610431BD0009840210A1A18460599E6
:10056000FFF77CFF05460E46009A05990498FFF7B1
:1005700065FF084305D0012004E02046394607B056
:10058000F0BD0020C11705430E432C4337430099AB
:100590000E986305401A7905E40A00220C43FD0A0F
:1005A0000A3002D500200146E9E70105101969412A
:1005B0000C9C0D9D00196941FFF7A2FFDFE70000C9
:1005C000F0B507460846584087B0C00F0490480071
:1005D0000E46590040084908BC1A884105D23846E1
:1005E00031461E4617460B46024658004008104347
:1005F0004CD0300D039040055900400D490D059039
:10060000401A0290402872DA18030121000B0905F4
:100610000843019004980092002805D001995242A5
:100620000020884100920190029840210A1A019905
:100630000098FFF703FF05460C466B4607CB00F01A
:10064000CDF8C0197141039A0E0D0023D7175640FB
:100650001A467A40164344D0049A002A2DD0029AB2
:10066000012A039A15DC1205C01A914101263605AC
:10067000001C7141D20F059ED20700930192029691
:100680002A462346FFF749FF07B0F0BD38463146FA
:10069000FAE71605224A0F46B218C01AB7410121DF
:1006A0000905001C4F4100187F4111461818794177
:1006B000E20F10436D19644113E0E2076D08154322
:1006C0006408C2071443039A01261205C01A914117
:1006D0003605001C7141CE07400830434908C01858
:1006E00051412A462346FFF70BFFCDE7FFE7049869
:1006F00001224000C117121A00238B410498314691
:10070000C417381AA141EEE730B40124E40763406E
:1007100030BC55E730B40124E407614030BC4FE7FA
:100720000000E0FF70B54B005B0803430BD04B00AB
:100730005C0D002633466542B341D417AD1AA34180
:1007400002DB0020014670BD12053018514170BD1A
:100750004A0009030123090B1B0519430A4B10B575
:10076000520D9A4202DA0020014610BD064B343386
:100770009A4203DC9A1AFFF771FE10BD034BD218A0
:10078000FFF75CFE10BD0000FF030000CDFBFFFF84
:1007900010B5002904DB0124E40740428C412146C6
:1007A000002B04DB1C460123DB075242A341994284
:1007B00000D1904210BD0000064C0125064E05E018
:1007C000E36807CC2B430C3C98471034B442F7D372
:1007D000FFF77AFCC8540008E854000810B5202A36
:1007E00006DBCB170846203A1041C1170B4306E041
:1007F0000B461341D0402024A21A914008431946C9
:1008000010BDFEB500231A461B1A8A4103DB0020E7
:10081000014603B0F0BD4A000D0301212D0B09056F
:10082000520D0D43D10702D100186D41521E5110D7
:10083000FF31FF310131002704463E46384600971C
:1008400001910246012100200905FFF707FEC319A7
:100850007141F818324684468E464A416146284620
:10086000611A904104D36046241A954176461F468A
:10087000241900986D41401C00903428E1DDF919DD
:1008800030467041091BA84103D20022D2431346CF
:1008900001E00022134601980105381C7141FFF761
:1008A0002FFEB6E710B50D480D490860FF20053052
:1008B000486000210A488160C160016141610121F5
:1008C000490281610021016241620721C162082160
:1008D000C1610021816201F067FB10BD0030014061
:1008E0003401002010B586B0044600BF002C0DD1A5
:1008F00000BF1448C06A012108431249C862084673
:10090000C06AC007C00F009000BF00BF00BF6000FA
:100910000D49085A01900120029000200390032005
:100920000490A100094A505801A900F023FB62007D
:10093000054B995AA200054B9858002200F01DFC67
:1009400006B010BD001002400C54000890000020BA
:1009500010B504466200044B995AA200034B985804
:1009600000F007FC10BD00000C54000890000020AF
:1009700030B587B004460D4600BF002C0DD100BF36
:100980001B48C06A042108431949C8620846C06A66
:1009900004210840019000BF00BF00BF600015495E
:1009A000085A02900020049001200590002D07D1E4
:1009B00000200390A100104A505802A900F0DAFA72
:1009C000012D13D10D480390A1000B4A505802A9E4
:1009D00000F0D0FA0A49095D48B200220F2100F068
:1009E0001FFC0749095D48B200F00EFC07B030BD9E
:1009F000001002400E540008940000200000211056
:100A00001054000810B501210520000700F0A8FBD4
:100A1000012800D110BD0020FCE710B50022FF2105
:100A200001310520000700F0A8FB052000F080FA46
:100A3000012211020520000700F09FFB052000F0B5
:100A400077FA10BDF0B587B007460E460025FF21A6
:100A5000069122A103C904910390002202210520DE
:100A6000000700F08AFB0F20052301AA03A90090CC
:100A70001C4801F0B9FB6846007902281AD1694682
:100A8000087A0402C9790C43002C13DDB44200DD5E
:100A9000344600250CE00F20012305AA06A900908A
:100AA000104801F0A1FB6846007D7855681CC5B26E
:100AB000A542F0DB012202210520000700F05DFBCA
:100AC0000020009003E000BF0098401C00900098B8
:100AD0000228F8DB284607B0F0BD00000B0000003C
:100AE0000000000034010020FFB5C7B006461446E0
:100AF0001D4600204690002728A003C84591449039
:100B000028A103C94391429000F058F8002F03D068
:100B100004F0FEFB04F036FC002202210520000751
:100B200000F02BFB0F20052342AA44A900901F4888
:100B300001F05AFB002F01D004F0CEFB40A8007A50
:100B400002281DD140A8407A6119884214DB002C8C
:100B500007DD0F20234602AA31460090134801F01A
:100B600043FB002D0FDD0F202B4602AA00900F48FB
:100B7000489901F039FB06E00120C043469002E0AD
:100B80000020C0434690012202210520000700F00A
:100B9000F4FA00F029F846984BB0F0BD0A000000C6
:100BA00000000000AA000000000000003401002046
:100BB00001200149486170470004014010B505203B
:100BC00000F016FB10BD10B5012000F0C3F910BDF8
:100BD00010B50120400300F0BDF901200149087063
:100BE00010BD00008C00002010B5052000F00CFBAB
:100BF00010BD05E00020FFF7ABFE642000F098F97F
:100C0000F8E70000F0B587B0074614460C9E74481C
:100C10000068401C72490860F07BB17B401A45B205
:100C20000A2D7DDA284601F0B1FF20786D49097858
:100C300088421DD160786B494978884218D1A078E4
:100C400068498978884213D1E0786649C978884232
:100C50000ED1207963490979884209D160796149C7
:100C60004979884204D16842FFF78EFB5E490860EB
:100C700020785E49097888421DD160785B494978BF
:100C8000884218D1A07859498978884213D1E078F0
:100C90005649C97888420ED1207954490979884249
:100CA00009D1607951494979884204D16842FFF7F6
:100CB0006BFB4F49086020784E49097888421DD166
:100CC00060784C494978884218D1A0784949897898
:100CD000884213D1E0784749C97888420ED12079FB
:100CE00044490979884209D1607942494979884261
:100CF00004D16842FFF748FB3F4908603C4801685F
:100D000039480068FFF790FB0FD23B48016836482E
:100D10000068FFF789FB08D238483949086000E0CD
:100D20005CE03848384908602FE02F4801683048B7
:100D30000068FFF779FB0DD22F4801682C48006846
:100D4000FFF772FB06D231482D49086030482E4922
:100D500008601AE02448016827480068FFF764FB30
:100D60000DD22348016824480068FFF75DFB06D2D6
:100D700000202349086027482349086005E02648E9
:100D80001F49086025482049086025480068401C24
:100D90002349086008460068032817D11A480068EC
:100DA000FFF712FB0591049015480068FFF70CFB54
:100DB00003910290059904980191009019A0039B5A
:100DC000029A01F075FE0020154908602078184944
:100DD0000978884202D102201649087007B0F0BD98
:100DE00050000020100000206800002016000020A5
:100DF0006C0000201C00002070000020713D7A4033
:100E000074000020000090407800002052B81E417D
:100E10000000D0401F8527415C8FFA400000104140
:100E20007C000020256C662C256C660A0000000002
:100E3000280000206000002010B5034B1B685B1CDD
:100E4000014C236010BD00003C000020074A1268DE
:100E5000521C064B1A60064A1180064A1278022A72
:100E600002D10322034B1A707047000034000020A7
:100E7000860000206000002004480068401C0349F0
:100E80000860012002490870704700003800002007
:100E9000600000201248007801280BD1052011497C
:100EA000087000200E4908700F480068401C0E4969
:100EB000086014E00D48007801280BD1042009498E
:100EC000087000200949087009480068401C08495A
:100ED000086004E007480068401C06490860704745
:100EE0006200002060000020480000206100002017
:100EF0004C0000204400002008490968491C074AAA
:100F0000116007490978012901D10649088006497D
:100F10000978012901D10549088070474000002067
:100F20006100002082000020620000208400002078
:100F300031B5002400F028F9044600BF00F024F980
:100F4000001B00998842F9D338BD10B5044601F062
:100F5000ABFC10BD10B50446054840692040002890
:100F600004D0034844612046FFF7EFFF10BD0000A6
:100F70000004014070B50346002200240020DAE09E
:100F8000012696400D6835402C46002C77D04D68E0
:100F9000022D02D04D68122D15D1D508AE001D4688
:100FA0002035A8595507EE0E0F25B5400646AE432D
:100FB00030465607F60E0D69B5402843D508AD00FA
:100FC0001E46203670514D68012D08D04D68022D07
:100FD00005D04D68112D02D04D68122D18D198689A
:100FE00056000325B5400646AE4330465600CD6850
:100FF000B540284398605868012595400646AE43A1
:10100000304610264D6835402D09954028435860DC
:10101000186856000325B5400646AE4330460D79A4
:10102000AD07AD0F5600B54028431860D86856008C
:101030000325B5400646AE43304656008D68B540A0
:101040002843D860012636074D683540B54271D136
:101050003C4D6D6B012635433A4E75633A4D96080B
:10106000B600A85995072E0F0F25B5400646AE438A
:10107000304605252D07AB4202D1002515E059E089
:10108000324DAB4201D101250FE0314DAB4201D1D0
:1010900002250AE02F4DAB4201D1032505E02E4D7C
:1010A000AB4201D1052500E006259607360FB54075
:1010B0002843254D9608B600A851284D28680546B6
:1010C000A5432846012636044D683540B54202D175
:1010D000054625432846214D286068680546A543F6
:1010E0002846012676044D683540B54202D10546B2
:1010F00025432846194D6860A8680546A54328463B
:10110000012636054D683540B54202D105462543D6
:101110002846124DA860E8680546A54328460126E2
:1011200076054D683540B54202D10546254328462F
:101130000A4DE860521C0D68D540002D00D01FE715
:1011400070BD000000100240080001400004005083
:1011500000080050000C0050001C0050000401402A
:10116000024613690B40002B01D0012000E0002053
:10117000704742694A4042617047002A01D081614C
:1011800000E081627047000001480068704700007D
:10119000A800002002480068401C01490860704710
:1011A000A800002010B50648006802210843044941
:1011B0000860032000F006F800F018F8002010BDC9
:1011C0000020024070B504467D21C9000648006831
:1011D000FEF78EFF054601F0C7F900222146501E9A
:1011E00000F01EF8002070BDA40000207047000031
:1011F00000BFC206D20E01219140024A116000BF19
:101200007047000080E100E000BFC206D20E01215D
:101210009140024A116000BF7047000000E100E009
:1012200070B504460D4616462946204601F0F0FBEF
:1012300070BD000000BF00BF00BF00BF00BFBFF314
:101240004F8F00BF00BF00BF06480749C86000BFFE
:1012500000BF00BFBFF34F8F00BF00BF00BF00BF84
:1012600000BFFDE70400FA0500ED00E0F0B585B031
:1012700005460026002003900290002400270190DC
:101280000090102D7ED008DC012D7CD0022D7BD06B
:10129000042D7AD0082D79D136E1202D06D0402DAD
:1012A0004DD00120C002281AF5D100E000BFB3489C
:1012B000066900690321090408400446012000046E
:1012C000844206D1C0113040002802D06010029044
:1012D00034E001204004844206D10220304000283E
:1012E00002D0A748029029E003200004844223D1C1
:1012F000A2484038006801214904084000281BD05A
:101300009E484038006821010840039001210905EA
:101310000398401A09D0401A04D0401A08D19948BD
:10132000029008E09848029005E09848029002E098
:101330009748029000BF01E00020029019E18F4819
:10134000C0680121890608400446002C41D18B4821
:10135000403800684910084000283AD08748403893
:10136000C0680F2189040840074684484038C06897
:101370000321890508400190B80C86490F5C01984B
:10138000800D04E0E5E035E05FE08AE0F0E0401C3D
:1013900001907A484038C0680121090408400028BB
:1013A0000CD176484038006810210840002802D04F
:1013B0007748009004E07848009001E0774800907A
:1013C00000987843009001990098FEF791FE0290F2
:1013D0000FE001208006844209D1684840388068C7
:1013E00002210840002802D06D48029001E0002050
:1013F0000290BEE06148C0688407A40F002C03D1AE
:1014000000F0E4F902901FE0022C09D15B4840385B
:10141000006804210840002802D05F48029013E0D1
:10142000012C03D100F0E4F902900DE0032C09D166
:1014300052480069012149020840002802D0880171
:10144000029001E00020029093E04C48C0680C211B
:1014500008400446002C03D100F0A6F902901FE0DA
:10146000082C09D14548403800680421084000286C
:1014700002D04948029013E0042C03D100F0B8F9DF
:1014800002900DE00C2C09D13C4800690121490271
:101490000840002802D08801029001E0002002905C
:1014A00067E03648C0680321890208400446002CE2
:1014B00003D100F079F9029025E00120C0028442B6
:1014C00009D12E484038006804210840002802D085
:1014D0003148029017E001208002844203D100F0DD
:1014E00087F902900FE003208002844209D123484B
:1014F0000069012149020840002802D088010290B9
:1015000001E00020029034E01C48C0680321090378
:1015100008400446002C03D100F046F9029017E081
:1015200001204003844209D1144840380068042156
:101530000840002802D01848029009E0012000036A
:10154000844203D100F054F9029001E0002002909F
:101550000FE00A484038806B012189050840884225
:1015600003D100F021F9029001E00020029000E098
:1015700000BF00BF029805B0F0BD0000401002405F
:101580008890000020A1070040420F0080841E00C8
:1015900000093D00295400080024F40000127A00DC
:1015A000006CDC0270B504460D46002676480068E3
:1015B000C007C00FA8420ED2734800684008400020
:1015C00028437149086008460068C007C00FA84258
:1015D00001D0012070BD022120680840022807D1F7
:1015E0006A48C068F0218843A16808436749C86019
:1015F0002078C007C00F00284CD06068022809D1AD
:1016000062480068012149040840400C002824D1A8
:101610000120DFE76068032809D15C4800680121E8
:1016200049060840400E002817D10120D2E7606823
:10163000012808D155480068042108408008002886
:101640000BD10120C6E7514800680121490208403A
:10165000400A002801D10120BCE74C48C06880083E
:101660008000616808434949C860FFF78DFD064660
:10167000606802280FD107E0FFF786FD801B444910
:10168000884201D90320A5E74048C0680C210840E2
:101690000828F1D134E0606803280FD107E0FFF794
:1016A00073FD801B3A49884201D9032092E73748ED
:1016B000C0680C2108400C28F1D121E060680128A5
:1016C0000FD107E0FFF760FD801B3149884201D947
:1016D00003207FE72D48C0680C2108400428F1D181
:1016E0000EE007E0FFF750FD801B2949884201D931
:1016F00003206FE72548C0680C2108400028F1D17D
:1017000021480068C007C00FA8420ED91E480068D3
:101710004008400028431C49086008460068C0078C
:10172000C00FA84201D0012054E7042120680840DE
:10173000042808D11548C068072109028843E168D8
:1017400008431249C860082120680840082809D1C8
:101750000E48C0680721C90288432169C9000843AF
:101760000A49C86000F044F80849C968F0221140ED
:101770000909084A515CC840074908600320FFF77F
:1017800021FD002026E7000000200240001002405A
:101790008813000011540008A400002001480068CC
:1017A00070470000A400002000B5FFF7F7FF0549CF
:1017B000C968072212021140090A034A515CC84055
:1017C00000BD0000001002402154000800B5FFF7E2
:1017D000E5FF0549C9680722D2021140C90A034A38
:1017E000515CC84000BD00000010024021540008B8
:1017F000FEB500250026002700240020019000905F
:101800002F48C5680C202840002847D0042804D061
:1018100008280ED00C2840D10EE02948006810217D
:101820000840002802D02748009001E02648009098
:1018300042E0264800903FE00F2080042840800CC2
:1018400023490E5C032080052840800D471C1C485E
:10185000C068012109040840002807D01B497143D2
:1018600008463946FEF744FC044614E01448006874
:1018700010210840002807D0124971430846394614
:10188000FEF736FC044606E00F4971430846394628
:10189000FEF72EFC044600940EE000BF08484068A6
:1018A000072149030840400B01900198401C012189
:1018B0008140C803009000BF00BF0098FEBD00003B
:1018C0000010024000093D000024F40000127A00DC
:1018D00029540008F8B5044600252078C007C00F39
:1018E00000287DD0FE48C0680C21084008280BD095
:1018F000FB48C06808400C2813D1F948C068012192
:101900000904084088420CD1F548006801214904C7
:101910000840400C002863D06068002860D1012096
:10192000F8BD00BF012109046068884205D1EC4878
:1019300000680843EA49086027E005210904606857
:1019400088420ED1E6480068012189040843E44931
:10195000086008460068012109040843E04908605E
:1019600013E0DF480068012109048843DC4908606E
:1019700008460068012109040840009000BFD848CB
:10198000006889008843D649086000BF6068002865
:1019900013D0FFF7F9FB054606E0FFF7F5FB401B08
:1019A000642801D90320BBE7CD4800680121490420
:1019B0000840400C0028F0D012E0FFF7E5FB054698
:1019C00006E0FFF7E1FB401B642801D90320A7E7ED
:1019D000C3480068012149040840400C0028F0D1A8
:1019E000022120680840022868D1BD48C0680C2147
:1019F000084004280BD0BA48C06808400C281DD104
:101A0000B748C068012109040840002816D1B4482D
:101A10000068042108408008002804D0E0680128FC
:101A200001D001207CE7AE4840681F2109028843AD
:101A3000216909020843AA4948603FE0E06800289C
:101A400024D0A748006809218843E1680843A449D5
:101A50000860FFF799FB054606E0FFF795FB401B82
:101A6000022801D903205BE79D4800680421084053
:101A700080080028F1D09A4840681F210902884355
:101A80002169090208439649486017E094480068B4
:101A90004008400092490860FFF776FB054606E0E3
:101AA000FFF772FB401B022801D9032038E78C485E
:101AB00000680421084080080028F1D11021206826
:101AC0000840102860D18648C0680C2108400028D2
:101AD0005BD183480068012149020840400A002880
:101AE00004D0E069002801D1012019E77C48616A2F
:101AF0004068072252031040814219D9606A00F001
:101B0000F9FF002801D001200AE775484068072145
:101B100049038843616A0843714948600846406840
:101B20000002000A218C090608436D49486018E04C
:101B30006B484068072149038843616A0843684944
:101B40004860084640680002000A218C09060843E4
:101B500063494860606A00F0CDFF002801D0012091
:101B6000DEE6606A400B401C01218140C8035C49ED
:101B7000C968F022114009095A4A515CC8405A49C3
:101B800008600320FFF71EFB49E0E06900282CD025
:101B900053480068FF210131084351490860FFF7AD
:101BA000F3FA054606E0FFF7EFFA401B022801D9D9
:101BB0000320B5E64A480068012149020840400A6E
:101BC0000028F0D046484068072149038843616AED
:101BD000084343494860084640680002000A218CD7
:101BE000090608433E49486019E03D480068FF2166
:101BF000013188433A490860FFF7C6FA054606E016
:101C0000FFF7C2FA401B022801D9032088E63448B6
:101C10000068012149020840400A0028F0D108214B
:101C200020680840082839D1606900281BD02C485A
:101C30004030006901210843294940310861FFF71C
:101C4000A3FA054606E0FFF79FFA401B022801D9D8
:101C5000032065E622484030006902210840400820
:101C60000028F0D01AE01E484030006940084000CB
:101C70001B4940310861FFF787FA054606E0FFF788
:101C800083FA401B022801D9032049E6144840305A
:101C900000690221084040080028F0D10421206892
:101CA0000840042877D100260D48806B890608403B
:101CB000002805D10A48806B08430949886301263A
:101CC0000A480068FF210131084000281ED107485A
:101CD0000068084305490860FFF756FA05460EE01C
:101CE0000010024011540008A400002000700040C1
:101CF000FFF74AFA401B642801D9032010E6A648E2
:101D00000068FF21013108400028F1D000BFFF2109
:101D10000131A068884205D1A048006908439F4965
:101D2000086130E0A06800280DD19C480069FF21BF
:101D300001318843994908610846006909158843BB
:101D4000964908611FE005210902A06888420DD16B
:101D500092480069012189020843904908610846B8
:101D60000069891508438D4908610CE08B480069BA
:101D7000FF21013188438949086108460069091536
:101D800088438649086100BFA068002815D0FFF786
:101D9000FBF9054608E02FE0FFF7F6F9401B804904
:101DA000884201D90320BBE57C4800690121490232
:101DB0000840400A0028EFD013E0FFF7E5F9054698
:101DC00007E0FFF7E1F9401B7549884201D903207C
:101DD000A6E572480069012149020840400A00282E
:101DE000EFD1012E07D16D484038806B3107884311
:101DF0006A494039886300BF2021206808402028B4
:101E000052D1A06900282BD000BF644840388068B8
:101E1000012108436149403988600846406B01212F
:101E200008435E49403948635E48006A012149031E
:101E300008435C49086200BFFFF7A6F9054606E0C3
:101E4000FFF7A2F9401B022801D9032068E5534897
:101E5000403880680221084040080028F0D023E084
:101E600000BF4E4840388068400840004B49403928
:101E700088604C48006A0121490388434949086247
:101E800000BFFFF781F9054606E0FFF77DF9401B2B
:101E9000022801D9032043E54048403880680221E8
:101EA000084040080028F0D1A06A002872D03B48C2
:101EB0004038C0680C2108400C2869D0A06A02286C
:101EC00048D1364840380068012109068843334923
:101ED00040390860FFF758F9054606E0FFF754F966
:101EE000401B022801D903201AE52C48403800681D
:101EF000012149060840400E0028EFD1216BE06A1D
:101F00000843616B084325494039C968FD22120422
:101F10009143084321494039C860084600680121BF
:101F2000090608431D4940390860FFF72DF90546A9
:101F300006E0FFF729F9401B022801D90320EFE44E
:101F4000164840380068012149060840400E002824
:101F5000EFD01FE01148403800680121090688438E
:101F60000E4940390860FFF70FF9054606E0FFF714
:101F70000BF9401B022801D90320D1E4074840385F
:101F80000068012149060840400E0028EFD101E019
:101F90000120C5E40020C3E400700040401002406E
:101FA000881300000000014010B50446002C01D148
:101FB000012010BD5120005D002805D100215020D6
:101FC0000155204600F038F80221512001552068C3
:101FD00000684021884321680860A1686068084360
:101FE000E1680843216908436169084301225202FC
:101FF000A16911400843E1690843216A0843A16AC5
:10200000084321680860A069000C04210840616A47
:102010000843216848602168E06A08612068C06957
:10202000910088432168C86100206065012151202A
:1020300001550020BDE7000010B586B00446664992
:10204000206888427ED100BF6448C06A01210843ED
:102050006249C8620846C06AC007C00F009000BF4E
:1020600000BF00BF0846C06A022108435B49C8623E
:102070000846C06A02210840009000BF00BF00BFB0
:102080005648C06A012108435449C8620846C06ADC
:10209000C007C00F009000BF00BF00BF0846C06A65
:1020A000012108434D49C8620846C06AC007C00FF5
:1020B000009000BF00BF00BF0846C06A012108436E
:1020C0004649C8620846C06AC007C00F009000BFFA
:1020D00000BF00BF0846C06A012108433F49C862EB
:1020E0000846C06AC007C00F009000BF00BF084686
:1020F000406B8914084339494863881501900120D1
:102100000290039000200490059001A9052000078B
:10211000FEF730FF0022FF21013105200007FFF705
:102120002CF80820019002200290039003200490D4
:102130000020059001A92A48FEF71CFF40200190CD
:10214000022000E045E0029001200390032004906B
:102150000020059001A905200007FEF70BFF802055
:1021600001900220029000200390032004900020A0
:10217000059001A905200007FEF7FCFE0220019052
:10218000012002900390032004900020059001A9F3
:1021900005200007FEF7EEFE0122022105200007C0
:1021A000FEF7EBFF012001900E4802900020039003
:1021B000032004900020059001A905200007FEF7E8
:1021C000D9FE002203210520FFF72AF80520FFF79A
:1021D0001BF806B010BD00000030014000100240A6
:1021E0000004005000001110F8B504460E461746D2
:1021F0001D46002000905120005D012803D0512091
:10220000005D222873D1002E03D0002F01D0002DB5
:1022100001D10120F8BD00BF5020005D012801D18F
:102220000220F7E701215020015500BF5120005D39
:10223000012802D132215120015500206065A76399
:10224000A587E5872663A586E586A064E06401216D
:102250004903A06A88420DD100BF20680068884306
:10226000216808602068006801214903084321684B
:10227000086000BF2068006840210840402804D062
:10228000206800680843216808600121C902E068ED
:1022900088427DD16068002807D0FF210531606841
:1022A00088420CD1E08E012809D1206B008821687A
:1022B000C860206B801C2063E08E401EE086E08EAC
:1022C000002820D101214903A06A884205D1206855
:1022D0000068491008432168086000220121204657
:1022E000069B00F08DFC002802D0032092E738E125
:1022F0002068C068A16B0880A06B801CA063E08F81
:10230000401EE087D7E035E0002202212046069BF0
:1023100000F076FC002801D003207BE7206B0088CA
:102320002168C860206B801C2063E08E401EE08620
:10233000E08E00280AD101214903A06A884205D114
:1023400020680068491008432168086000220121C4
:102350002046069B00F054FC002801D0032059E7DA
:102360002068C068A16B0880A06B801CA063E08F10
:10237000401EE087E08E0028C6D160680028C1D1E9
:10238000002201212046069B00F03AFC002800E0D4
:102390000DE001D003203DE72068C068A16B0880F4
:1023A000A06B801CA063E08F401EE08783E0606824
:1023B000002807D0FF210531606888420BD1E08EEC
:1023C000012808D1216B481C206308782168C86067
:1023D000E08E401EE086E08E00281CD101214903DA
:1023E000A06A884205D12068006849100843216826
:1023F0000860002201212046069B00F001FC002815
:1024000001D0032006E72068C068A16B0870E08F48
:10241000401EE0874FE034E0002202212046069B68
:1024200000F0EEFB002801D00320F3E6216B481CEE
:10243000206308782168C860E08E401EE086E08E48
:1024400000280AD101214903A06A884205D12068E9
:1024500000684910084321680860002201212046D5
:10246000069B00F0CDFB002801D00320D2E62068B7
:10247000C068C1B2A26B501CA0631170E08F401EF7
:10248000E087E08E0028C7D16068002813D10022C1
:1024900001212046069B00F0B3FB002801D0032059
:1024A000B8E62068C068C1B2A26B501CA06311706E
:1024B000E08F401EE08701214903A06A884213D1C2
:1024C000002201212046069B00F09AFB002805D03F
:1024D000606D02210843606503209BE62068C068A8
:1024E00081B2009168460088012280212046069B27
:1024F00000F086FB002805D0606D20210843606550
:10250000032087E60121512001554903A06A884232
:1025100020D120688068102108400009002819D0C7
:10252000606D02210843606500BF206800680903F0
:102530008843216808602068006801214903084336
:102540002168086000BF00BF00215020015500BF76
:1025500001205FE600BF00215020015500BF002090
:1025600058E6022056E6000070B504462546681E6F
:102570000949884201D901200CE0681E07494861D9
:102580000321081F00F044FA002004498861072055
:102590000861002070BD0000FFFFFF0000E000E0C8
:1025A00010B50446002C01D1012010BDA0690028FF
:1025B00000D000E000BF6920005D002805D10021A7
:1025C00068200155204600F02DF82421692001558E
:1025D000206800684008400021680860606A0028A0
:1025E00002D0204600F031FC204600F0E1FC01283A
:1025F00000D1DAE7206840680921C90288432168D0
:102600004860206880682A218843216888602068A3
:1026100000680121084321680860204600F08EFC14
:10262000C3E7000010B586B0044600BF1D48C06A6D
:10263000012108431B49C8620846C06AC007C00F91
:10264000009000BF00BF00BF0846C06A01210843D8
:102650001449C8620846C06AC007C00F009000BF96
:1026600000BF0846806B0121490408430D49886377
:102670000420019002200290012003900220049087
:102680000420059001A905200007FEF773FC08202F
:1026900001900420059001A905200007FEF76AFCBF
:1026A00006B010BD00100240FEB504460D461646A9
:1026B0001F46002001906920005D20286AD1002D6E
:1026C00001D0002E01D10120FEBD01210903A06827
:1026D000884208D12069002805D1E807C00F0028EA
:1026E00001D00120F0E700BF6820005D012801D182
:1026F0000220E9E701216820015500BF0020E066C3
:10270000212169200155FEF73FFD0190502006531D
:102710005220065325E05220005B401E81B2522019
:1027200001530097002280212046019B00F028FEE3
:10273000002801D00320C7E701210903A0688842CF
:102740000BD12069002808D10295029D2888C00578
:10275000C00D21688862AD1C03E028786D1C2168DB
:1027600088625220005B0028D5D1009700224021CA
:102770002046019B00F004FE002801D00320A3E7BF
:1027800020216920015500BF00216820015500BFAC
:10279000002099E7022097E7FEB505460195019DC7
:1027A0006E1C019D2878042800D0FEBD2E480068CC
:1027B000401C2D4908603078052804D03E2805D0FB
:1027C000FF284DD121E0FEF757FB4AE0B71C3878CF
:1027D000012802D0022815D109E07C1CA278637878
:1027E000100218430146601DFEF730FB0BE0BC1CD5
:1027F00020460930431EA21C611C00902046FEF7B3
:1028000001FA00E000BF00BF2BE0B41C6078217823
:102810000002084315494018002806D00E280FD0A2
:102820000F2817D0112818D10BE0A71C3979FA7896
:10283000BB7812021A431046FA1DFEF7FDFA0DE0AE
:102840000CE0A31C1A79DF78110239430846FEF721
:1028500053FB03E0FEF71EFB00E000BF00BF00E0FB
:1028600000BF00BF00BFA0E730000020FFF3FFFF64
:1028700010B50A4801F034FF094801F031FF002487
:1028800008E08C206043074A8118044801F03CFFAF
:10289000601CC4B2052CF4DB10BD0000AC000020AD
:1028A000B40000208C01002038B500200090FEF715
:1028B0007FF92CE0194801F038FF002822D1694641
:1028C000164801F043FF802100980830FEF7BAF85F
:1028D000C4B2002C11DD009880300472009800F022
:1028E00053F8002804D10E48009901F00DFF0CE0C8
:1028F0000A48009901F0F7FE07E00848009901F046
:10290000F2FE02E0FEF754F938BDFEF751F9FEF78A
:1029100079F80028CED100BFF6E70000AC00002017
:10292000B400002038B500200090FEF747F91048A9
:1029300001F0FBFE044613E069460D4801F006FF76
:10294000FEF752F900980830FFF726FFFEF736F938
:102950000848009901F0D8FE054801F0E6FE04465B
:10296000002CE9D0FFF7A0FFFEF73EF938BD0000CC
:10297000B4000020AC00002010B5024801F0D5FEE4
:1029800010BD0000B400002001460A46083210784D
:10299000042801D00120704793788820405CC01E35
:1029A000834201D00220F6E70020F4E7FEB5064698
:1029B0000F4614461D466421684600F03EFA0EE0BC
:1029C000EBB2E2B239463046FEF78EF8002800D16D
:1029D00006E0684600F01EFA002800D000E0EFE7AD
:1029E00000BFFEBD00BFFEE710B5FEF7DBFB002019
:1029F000FDF778FF00210846FDF7BAFF00F09AF9CD
:102A000002F0CEFCFDF74EFFFFF732FF10BD70471E
:102A100010B5002819DA1A4A03071B0F083B9B0858
:102A20009B00D2588307DC0EFF23A3409A438B07F9
:102A30001B0E8407E40EA3401A43114B0407240F16
:102A4000083CA408A4001A5118E00E4A03231B02F4
:102A5000D21883089B00D2588307DC0EFF23A340C3
:102A60009A438B071B0E8407E40EA3401A43054BC1
:102A7000032424021B198408A4001A5110BD00006D
:102A80001CED00E000E100E070B504460D4616467E
:102A9000324629462046FDF771FB70BD70B50446ED
:102AA0000D461646324629462046FDF784FB70BD8A
:102AB0000FB410B5A2B025A82190802101A8219BB8
:102AC000249A00F04BFD044600202190A2B2FF237F
:102AD0002D3301A90548FFF7E7FD002801D0FEF7D7
:102AE00088F822B010BC08BC04B01847C40000200D
:102AF0007047000010B50146002300222048C0683E
:102B0000F0242040002829D11D48806B012424078F
:102B10002040002806D01B4800680324E40220401F
:102B2000034613E01648806B012424072043144C0D
:102B3000A063144800680324E402204003461048C0
:102B4000806B01242407A0430D4CA0630320C00226
:102B5000834203D1C000814200D101220A480068AB
:102B6000400840001043084C206020460068C00721
:102B7000C00F904201D0012010BD0020FCE70000F2
:102B8000001002400070004000200240F0B587B005
:102B900004463C2006901649164804910590201ED4
:102BA00001DB014600E041424FB200201249059B83
:102BB000049AFDF709FB039102900699781AFDF734
:102BC000EFFB01910090039B029AFDF765FB054620
:102BD0000E462A4633460020074901F07FFE039146
:102BE0000290FDF705FC0549086007B0F0BD000044
:102BF0000E2DB29DEFA70740000024406400002086
:102C0000FFB581B004460E461D460027FEF7BCFA0C
:102C10000746039800283FD133E0681C002830D0D5
:102C2000002D04D0FEF7B0FAC01BA84229D92068B5
:102C30004068E0218843216848602068006840219E
:102C400088432168086001214903A06A88420DD1A8
:102C500000BF206800688843216808602068006819
:102C60000121490308432168086000BF0121512068
:102C7000015500BF00215020015500BF032005B0C1
:102C8000F0BD206880683040B04201D1012000E0F2
:102C900000200028C1D03DE032E0681C00282FD081
:102CA000002D04D0FEF770FAC01BA84228D9206876
:102CB0004068E0218843216848602068006840211E
:102CC00088432168086001214903A06A88420DD128
:102CD00000BF206800688843216808602068006899
:102CE0000121490308432168086000BF01215120E8
:102CF000015500BF00215020015500BF0320BEE751
:102D0000206880683040B04201D1012000E00020FE
:102D10000028C2D10020B2E77047000010B5FEF7CE
:102D200039FA03480068401C0149086010BD0000E2
:102D30008800002000B593B01A48806B0121090774
:102D4000084318498863184800680321C90288436A
:102D50000121C90240181449086002200090012096
:102D600003901020049002200A9000210B9141044E
:102D70000C9141050D916846FEF7ACFD01200E90C7
:102D800003200F90002010901190129001210EA8A6
:102D9000FEF708FC0348406B0121084301494863E2
:102DA00013B000BD001002400070004015480068DC
:102DB000FF2101310843134908600846C0681249E1
:102DC00008401049C86008460068104908400D498D
:102DD000086008468068400840008860084600682F
:102DE000012189048843074908600846C068FD211D
:102DF000090488430349C86000200861C8030449E6
:102E000088607047001002400C40FF88F6FFF6FE15
:102E100000ED00E070B50446FEF7B6F92168401AEF
:102E2000451C6068A84201D2012070BD0020FCE76B
:102E30004268016889180160704770B504460D4604
:102E40006560FEF7A1F9206070BD818CC907C90FCC
:102E5000002908D001684968012252049143826A1E
:102E60001143026851600222416A1140002907D0D3
:102E700001684968D2039143C26A114302685160F4
:102E80000422416A1140002907D0016849681204F0
:102E90009143026B1143026851600822416A11405C
:102EA000002907D00168496812039143426B11431E
:102EB000026851601022416A1140002907D0016860
:102EC000896812029143826B11430268916020224B
:102ED000416A1140002907D00168896812029143B4
:102EE000C26B1143026891604022416A114000297F
:102EF00015D00168496892039143026C114302683E
:102F0000516001221205016C914208D101684968A3
:102F1000032252059143426C1143026851608022A2
:102F2000416A1140002907D00168496812039143A2
:102F3000826C1143026851607047000038B5044646
:102F400000250020E066FEF71FF9054620680068AE
:102F50000821084008280BD114482B460022890478
:102F60000090204600F00CFA002801D0032038BD64
:102F7000206800680421084004280BD10B482B4628
:102F8000002209050090204600F0FAF9002801D03F
:102F90000320ECE72021692001556A20015500BF7C
:102FA00000216820015500BF0020E0E7FFFFFF017E
:102FB000F0B587B004460025102600200590049047
:102FC0000390E4492068884201D1012000E00020FC
:102FD000002800D000E000BF2169A06808436169B3
:102FE0000843E1690843054620680068DA4908405B
:102FF000284321680860206840680321090388434A
:10300000E168084321684860A569D2492068884280
:1030100001D1012000E00020002801D1206A0543F1
:10302000206880680B210902884328432168886052
:1030300000BFCA492068884217D1C948C0688007C4
:10304000800F002806D0012808D0022804D00328C9
:1030500008D105E0012607E0022605E0042603E08A
:10306000082601E0102600BF3AE0BE4920688842E9
:1030700017D1BB48C0680C210840002806D004289E
:1030800008D0082804D00C2808D105E0002607E065
:10309000022605E0042603E0082601E0102600BF12
:1030A0001EE0AC49206888421AD1AD48C0680321AF
:1030B00089020840002808D001218902401A08D05E
:1030C000401A04D0401A08D105E0002607E0022685
:1030D00005E0042603E0082601E0102600BF00BF3B
:1030E00000BF0220FEF7C2F807469A4920688842CE
:1030F00001D1012000E00020002856D00025042E38
:103100001AD004DC002E07D0022E1CD108E0082EB5
:1031100016D0102E17D117E0FEF746FB054616E035
:103120008F4840380068102108400009002801D06D
:103130008D4D00E08D4D0AE0FEF75AFB054606E096
:103140000125ED0303E000BF0120039000BF00BF95
:10315000002D0AD0606841004018A84203D860687A
:103160000003A84202D201200390EFE060680290C1
:103170002846FF21013100F01EFA62685208002340
:103180008018594101910090029AFCF7C7FF05464B
:1031900003200002854205D37548854202D8206885
:1031A000C560D3E001200390D0E00121C903E069AC
:1031B000884269D1042E3DD006DC002E09D0012EB4
:1031C00011D0022E4DD11BE0082E40D0102E48D138
:1031D00048E07A0063685B08D0186168FCF788FFF4
:1031E00080B2049041E0FEF7F1FA400061684908BE
:1031F000401802906168FCF77BFF80B2049034E0D5
:10320000574840380068102108400009002808D0BD
:1032100061684A08574BD018FCF76AFF80B20490E7
:1032200007E061684A08544BD018FCF761FF80B290
:1032300004901AE0FEF7DCFA400061684908401883
:1032400002906168FCF754FF80B204900DE0616861
:103250004A0801231B04D018FCF74AFF80B20490EF
:1032600003E000BF0120039000BF00BF4349049862
:103270000840059004980007400F05990843059001
:1032800005982168C86061E0042E42D006DC002E5B
:1032900009D0012E14D0022E53D11EE0082E45D0A5
:1032A000102E4ED14EE0FEF77FFA616849084018B3
:1032B00002906168FCF71CFF80B22168C86044E09E
:1032C000FEF784FA61684908401802906168FCF7CB
:1032D0000FFF80B22168C86037E02148403800689D
:1032E000102108400009002809D061684A081E4BD7
:1032F000D018FCF7FDFE80B22168C86008E0616864
:103300004A081A4BD018FCF7F3FE80B22168C86057
:103310001BE0FEF76DFA6168490840180290616889
:10332000FCF7E6FE80B22168C8600EE061684A08DA
:103330000123DB03D018FCF7DBFE80B22168C860F4
:1033400003E000BF0120039000BF00BF039807B057
:10335000F0BD000000480040F369FFEF0038014075
:10336000401002400044004000093D000024F400E9
:10337000FFFF0F0000127A000048E801F0FF000094
:10338000FFB581B004460D4617460A9E24E0701C26
:10339000002821D0002E05D0FDF7F6FE0499401A32
:1033A000B04219D920680068FF21A1318843216803
:1033B00008602068806840084000216888602021FB
:1033C000692001556A20015500BF00216820015580
:1033D00000BF032005B0F0BD2068C0692840A842A6
:1033E00001D1012000E00020B842D0D00020F1E758
:1033F00000B587B042480078030000F0F4F80604F6
:10340000051A304F607C77E000231A468021084679
:1034100000F094FE0A213B48FFF70FFD3948FFF703
:10342000F9FC002804D03748FFF702FDFDF702FF42
:1034300062E0022000F0D4FE7D2000013C22002347
:103440000590039304920690282001900093029027
:103450002D4B00220421084600F0ECFD4CE02B48E7
:10346000007800280BD12A4802232A4A0121009023
:103470002948008800F0D4FE0120244908700A2160
:103480002048FFF7DAFC1F48FFF7C4FC002804D0EF
:103490001C48FFF7CDFCFDF7CDFE2DE01F4800785E
:1034A00000280BD11E4802231A4A012100901A4815
:1034B000008800F0B5FE0120184908701CE002AA3F
:1034C000184801681848006800F0A8FF17480088ED
:1034D000401C81B202AB14220F48008800F00EFF9E
:1034E000134908706420FDF723FD00210A48008875
:1034F00000F04FFE00E000BF00BF07B000BD0000BD
:103500006000002000000020280000206100002052
:10351000EC530008FFFF000086000020620000203E
:10352000FC53000878000020740000208200002076
:10353000090000200FB410B504A9074B02AA039894
:1035400000F0CCF9044602A9002000F06EFD2046F0
:1035500010BC08BC04B018472B4000087CB51546C9
:10356000024600201C4600290BD0491E0092019102
:10357000044B6A462146284600F0B0F9009A002123
:1035800011707CBD154000082021020C01D01021D3
:103590001046020A01D010460839020901D010462F
:1035A000091F820801D01046891E420801D0881EDA
:1035B0007047081A7047F8B582B28BB2040C0D0C34
:1035C00010465843002126465E43370C36048019C6
:1035D000794116466E43370C3604801979412646E8
:1035E0006E438919F8BD30B47446641E2578641C96
:1035F000AB4204D3635D5B00E31830BC18471D4643
:10360000F8E700004900CA020243100000D004207D
:103610004A0D01D001221043044A490D914201D1C3
:1036200002210843012800D105207047FF07000050
:10363000EFF310807047F8B504464F1EC8000838F5
:10364000211815461E46086849683A4606239A43DB
:1036500010D02A463346FCF7B7FD3A46D200083A66
:10366000A3181A687F1E5B68FCF7AAFF06223B4678
:103670009343EED1022F23D0042F11D0062F2FD148
:103680002A463346FCF7A0FDE36AA26AFCF798FFDE
:103690002A463346FCF798FD636A226AFCF790FFDE
:1036A0002A463346FCF790FDE369A269FCF788FFE0
:1036B0002A463346FCF788FD63692269FCF780FFE0
:1036C0002A463346FCF780FDE368A268FCF778FFE2
:1036D0002A463346FCF778FD63682268FCF770FFE2
:1036E000F8BD0000002210B5134610460149FCF752
:1036F000D3FD10BD0000F03F10B5FCF761FF10BD19
:10370000002210B5134610461146FCF7C5FD10BD4A
:1037100010B50721024A00200907FDF703F810BD84
:1037200001030000034A10B500201107FCF7FAFF5F
:1037300010BD000001FDFFFF02E008C8121F08C114
:10374000002AFAD170477047002001E001C1121F22
:10375000002AFBD1704780F3108870470149086048
:1037600070470000C0000020F0B51FB486B0099873
:10377000089A030D0021024314D05148514A1818E9
:10378000504305141198012810981AD0281A401C8B
:1037900000264D4F4D49009601910490002812DA01
:1037A000444211E01198012449A3012801D1109845
:1037B000C1430698119A84600360C26041600BB0F7
:1037C000F0BD4042E4E70446210500203F4A001CCA
:1037D00051410391029012E0E00707D032463B4688
:1037E00001990098FCF7F0FC0191009032463B46AD
:1037F00010461946FCF7E8FC06460F466410002CFC
:10380000EAD10498039B0028029A0999089806DADD
:10381000FCF7DAFC019B009AFCF7D6FC05E0FCF70C
:103820003BFD019B009AFCF737FD04460E46002243
:10383000284BFCF7ADFF03D80020C043014607E04A
:103840000022254B20463146FCF7BAFEFCF780FFEC
:10385000102409E0002C0ADB0A220023FCF75EFC9E
:10386000079B30321A55641E02460A43F2D11122D8
:10387000641C079B121B1C19119B012B03D00123F5
:1038800008430ED10AE0084304D011201090002014
:10389000119077E71098151A6D1E0BE01098824270
:1038A00002DD00236D1C03E0824201DA00236D1E5D
:1038B000002BEED0069811998260C16030C07EE77F
:1038C00001FCFFFF104D0000000014400000F03F1D
:1038D000300000000000F0430000E03FFFB597B06B
:1038E0000646002518E2252877D100242746FD4901
:1038F000049400E00443761C32780120203A904082
:103900000842F7D130782A280ED0022230780146BA
:103910003039092916D804990A23594330394018F7
:103920001443761C0490F1E7189802C8049118908B
:10393000002904DA01204003044348420490022095
:103940000443761C30782E2814D104200443707868
:10395000761C2A2809D11898761C80C8189009E08E
:103960000A214F43303FC719761C30780146303961
:103970000929F5D930786C2810D006DC4C281AD0EB
:1039800068280ED06A2817D104E0742813D07A284A
:1039900012D110E00120400504430CE0012109058B
:1039A00001E0032109050C437178814203D1012014
:1039B00000052418761C761C3078119066280BD0F0
:1039C00013DC58287DD009DC00287BD04528F6D0B0
:1039D0004628F4D047281AD1A5E118E0632835D04D
:1039E000642870D0652812D19DE170286CD008DC65
:1039F0006728F1D069287BD06E280DD06F2806D1BA
:103A0000BAE073282ED0752871D0782859D01A9A28
:103A1000199990476D1C7EE16002400F022809D081
:103A200003280DD00428189801680DD00D60001DE2
:103A3000189070E11898EA1701680D604A60F6E77F
:103A4000189801680D80F2E70D70F0E718986A4643
:103A500001781172001D18900020507202A8009089
:103A6000012005E0189802C8189000200091C0437A
:103A700061070DD5002101E00199491C0191B9426E
:103A800012DA8142F8DB009A515C0029F4D10BE094
:103A9000002101E00199491C01918142FADB019A60
:103AA0000099895C0029F5D1019904981A9B471A5D
:103AB00021463846199A00F097FA0199401945189D
:103AC0000BE04FE02CE113E04EE000980099007805
:103AD000491C00911A9A199990470198401E01902B
:103AE000401CF2D1214638461A9B199A10E137E062
:103AF0000A200021009001916002410F022907D0A5
:103B0000189A01CA1892C2179446032908D00AE0ED
:103B10001898C01DC108C90005C91891944607E04E
:103B200000B2C2179446042902D140B2C1178C4694
:103B300000226146944506DA0A460021404291413E
:103B40008C462D2102E0210504D52B216A461173F4
:103B5000012103E0E10701D02021F7E7029155E0C0
:103B60000A200AE0102008E0102000900021042024
:103B700004430191082703E00820002101910090EF
:103B80006002410F022907D0189A01CA1892002238
:103B90009446032908D008E01898C01DC108C90040
:103BA00005C91891944603E080B2042900D1C0B23F
:103BB00000210291210729D51199702906D0009A78
:103BC0001021019B4A401A4305D00EE040216A466D
:103BD0001173012108E06146014306D030216A4695
:103BE00011731199517302210291009A0821019BCE
:103BF0004A401A430AD16146014301D1610705D504
:103C000030216A46117301217F1E029111995829B2
:103C100004D035A10E910DA90D910DE037A1F9E762
:103C20006146019B009AFCF779FA0E9B8C469B5CDF
:103C30000D9A521E0D92137061460143F0D10D98FA
:103C400005A9081A20300190600703D5012000045F
:103C5000844300E001270198874201DD381A00E023
:103C60000020019900904118029809180498401A00
:103C70000490E00306D421461A9B199A049800F098
:103C8000B3F94519002706E003A81A9AC05D1999EF
:103C900090476D1C7F1C02988742F5DBE0030CD532
:103CA00021461A9B199A049800F09EF9451904E0E0
:103CB0001A9A3020199990476D1C0099481E00905F
:103CC0000029F5DC08E00D980D990078491C0D914C
:103CD0001A9A199990476D1C0199481E0190002964
:103CE000F1DC63E1092801003031323334353637F5
:103CF0003839616263646566000000003031323338
:103D000034353637383941424344454600000000D7
:103D100000F05AF94519761C3078002800D0E2E509
:103D200028461BB0F0BD600700D406271898C01DB8
:103D3000C108C90048680A680831C30FDB07189139
:103D4000190001D09CA108E0210501D59BA104E048
:103D5000E10701D09AA100E09AA1430011985B0805
:103D6000109165280CD006DC452809D046281DD0C6
:103D7000472841D141E0662818D067283CD13CE073
:103D80000021112F01DB112000E0781C019100902F
:103D900008A911A8FFF7E8FC139905910021119AD1
:103DA00015927F1C12980197009150E00120C007E6
:103DB00003900120019008A9009711A8FFF7D4FCF7
:103DC000139A149905920022119B00921298159350
:103DD000059A0192002901D0104602E0791C401892
:103DE0000190381A01D5019804E04042401E00902D
:103DF000781C0190C01B029043E0012F00DA0127DC
:103E00000021112F01DD112000E0384601910090C2
:103E100008A911A8FFF7A8FC13990591119A002190
:103E2000129815920091019721070CD40599B94277
:103E300001DB019900E00191012904DD159A491E79
:103E4000515C302906D0B84201DA011D05DA0121A2
:103E5000029115E00199491EEDE7002805DC009963
:103E6000411800910199091A03E0019A411C9142FD
:103E700000DD01910099401A401C02900120C0070A
:103E80000390200706D402990198814202DB0020AA
:103E9000C043029000206946C87707AF012103980C
:103EA0000337C907884224D0022011902B2012909A
:103EB000039800280CDA404203902D20129007E06E
:103EC0000A210398FCF714F930317F1E03903970F2
:103ED0001199481E11900029F2DC03980028EFD1B7
:103EE000791E129808703078202108404530BF1E96
:103EF000387006A8C01BC01D0390109800780028D9
:103F000000D00120019941180298C01709180398A0
:103F100009180498401A401E0490E00306D4214674
:103F20001A9B199A049800F05FF8451910980078C8
:103F3000002803D01A9A199990476D1CE00324D5E4
:103F400021461A9B199A049800F04EF845191CE076
:103F50000098002807DB00990598884203DD159832
:103F6000405C199901E0199930201A9A90470098FD
:103F70006D1C401C00900298401E0290002804D145
:103F80001A9A2E20199990476D1C0199481E01908C
:103F90000029DDDC05E038781A9A7F1C19999047D2
:103FA0006D1C0399481E03900029F4DC21461A9BDE
:103FB000199A0498ACE600002D0000002B000000C8
:103FC0002000000000000000F8B5044600251E4651
:103FD0001746880404D405E039462020B0476D1CFC
:103FE000641EF9D52846F8BDFFB50446002581B00A
:103FF0001E46C80301D5302700E02027880404D5D9
:1040000005E038460399B0476D1C641EF9D5284673
:1040100005B0F0BD4A68002A06D00A68531C0B6040
:1040200010704868401E486070470A68531C0B6057
:1040300010707047F0B58DB004460D4616461F4609
:1040400068468480C5800672062239460930FEF72C
:104050001BFD68461299C17313990182149941821C
:10406000159981821699C182179901831899418304
:104070001822002107A8FEF711FD3F216846818321
:104080009C21C18301A8099018200A900F20089054
:1040900068460B9001200C90002107A800F01AFA46
:1040A000002802DAFF200DB0F0BD68460078FAE77C
:1040B000F0B589B004460D4616461F4668460472A0
:1040C0004572867207220021FEF7E8FC18220021C3
:1040D00003A8FEF7E3FC3F21684681818A21C18164
:1040E00002A80590032006906846079007200890D4
:1040F000002103A800F0EEF9002802DAFF2009B041
:10410000F0BD68460078002802D068460078F6E7DF
:104110006846817842780802104338806846017901
:10412000C278080210430E99088068468179427966
:10413000080210430F9908800020E0E7F0B589B02D
:1041400004460D4616461F4668468480C5800672A2
:1041500047721822002103A8FEF7A0FC3F21684601
:1041600081819721C18101A80590062006900F202A
:1041700004906846079001200890002103A800F0F1
:10418000A9F9002802DAFF2009B0F0BD68460078DE
:10419000FAE730B589B004460D4668460481857259
:1041A0001822002103A8FEF779FC3F21684681818F
:1041B0009321C18102A80590032006900F2004904E
:1041C00001A8079001200890002103A800F082F9BF
:1041D000002802DAFF2009B030BD68460079FAE70E
:1041E00001B588B01822002102A8FEF757FC3F2134
:1041F000684601819D21418108A804900120059015
:1042000001A8069001200790002102A800F062F9A1
:10421000002802DAFF2009B000BD68460079FAE7FD
:10422000FFB58DB01E46169F00246846818E0D9105
:104230006946081902220DA9FEF726FCA41C68464F
:10424000018F0E916946081902220EA9FEF71CFC87
:10425000A41C6846818F0F916946081902220FA994
:10426000FEF712FCA41C68460655641C012E01D101
:10427000022500E01025694608192A463946FEF74E
:1042800003FC6019C4B21822002107A8FEF706FC3F
:104290003F2168468183FF211731C18309900A9429
:1042A0000F20089006A80B9001200C90002107A871
:1042B00000F010F9002802DAFF2011B0F0BD6846C6
:1042C000007EFAE700B587B01822002101A8FEF7AA
:1042D000E5FB3F2168468180FF210231C1800590C6
:1042E00001200690002101A800F0F4F8002802DA6D
:1042F000FF2007B000BD68460078FAE7F0B58FB040
:1043000005460E4614461F46142C02D942200FB013
:10431000F0BD68468580C680047222463946093061
:10432000FEF7B2FB1822002109A8FEF7B7FB3F21D8
:1043300068468184FF212431C18401A80B90601D4F
:104340000C9008A80D9001200E90002109A800F003
:10435000C1F8002801DAFF20D9E708A80078D6E7DD
:1043600030B589B004460D4668460472457218227D
:10437000002103A8FEF792FB3F21684681810F21AF
:10438000C18102A805900220069001A80790012093
:104390000890002103A800F09DF8002802DAFF2011
:1043A00009B030BD68460079FAE7F0B5A7B0064617
:1043B0000D4617460024A81C802802DD422027B0A5
:1043C000F0BD68460655601CC4B268460555601CC1
:1043D000C4B2694608192A463946FEF755FB6019EA
:1043E000C4B21822002121A8FEF758FB3F2120A8C3
:1043F00081800C21C18068462390249420A82590B8
:1044000001202690002121A800F064F8002801DA9C
:10441000FF20D4E720A80078D1E70000F7B586B0E8
:104420000F4614460698FBF7CFFF05462A460B4673
:104430000CA103A8FFF77EF83846FBF7C5FF054639
:104440002A460B4607A16846FFF774F80A2203A91B
:104450002046FEF719FB0A226946A018FEF714FB56
:1044600009B0F0BD2566000008B5FCF7A7FB09E020
:104470006946084800F06AF90748009900F044F9D5
:10448000FEF712FA044800F019F90228F0DBFCF7F5
:10449000ABFB08BDB4000020AC000020FEB5054613
:1044A0000E4614461F46B005800DA902084381B28E
:1044B00068468180847101210170032201A9401C9A
:1044C000FEF7E2FA234604223946684600F0EAF88D
:1044D000FEBD0000F3B58BB0044660888005800DFA
:1044E00021788902084380B20A9064200890002055
:1044F000059003A800F0F4F8FFF7B6FF227B61886F
:1045000027883846A368FFF7C9FF0C98002802D017
:1045100000200DB0F0BD0898002801D101200890BE
:1045200006A80899FEF789FC9BE00AE006A8FEF7BA
:1045300071FC002800D095E0FEF71EFA002800D19B
:1045400000E0F3E700BFFCF739FB05A9534800F092
:10455000FDF80598064608363078042865D1701CA9
:104560000990059805460B3505988030007AC71EDE
:10457000099800780E2826D00F2804D0102851D092
:104580003E2850D138E00195019DE878A9780002D5
:1045900008430A99884200D064E060680F2805D07B
:1045A00001980078002800D05CE03DE06069B842E6
:1045B00001DD384600E06069606129466269206972
:1045C000FEF762FA5EE00295029DA9786A78080219
:1045D00010430A99884200D044E0ED1CFF1E606938
:1045E000B84201DD384600E06069606129466269D1
:1045F0002069FEF749FA45E00095009D287861683A
:10460000884200D010E07F1E6069B84201DD384664
:1046100000E060696061626920690099491CFEF7E9
:1046200033FA2FE01EE000BF00BF1D4800F07DF808
:1046300000280BD0194800F078F8002806D0184858
:10464000059900F061F80020059005E003A80599A0
:1046500000F05AF800200590FEF726F9FCF7C4FA9E
:1046600000BF62E70598002803D00D48059900F0C7
:104670003AF803A9094800F01FF9FCF7B5FA002041
:10468000C04346E70648059900F02DF803A9034802
:1046900000F012F9FCF7A8FA00203AE7B400002075
:1046A000AC000020F8B504460D4616461F463B46B2
:1046B000324629462046FEF779F9F8BDF8B504469A
:1046C0000025FEF7B5FF074672B6266801E06D1CAF
:1046D0003668A642FBD13846FFF73DF82846F8BDBC
:1046E00000604060704770B505460C46FEF7A0FFBD
:1046F000064672B62868206065602C6020684460B9
:104700003046FFF728F870BD70B505460C46FEF739
:104710008FFF064672B62560686860606C606068EE
:1047200004603046FFF717F870BD70B50446FEF719
:104730007FFF064672B62068A04201D1012500E045
:1047400000253046FFF707F8284670BD70B50546CE
:104750000C46FEF76DFF064672B628682060286892
:1047600000F009F8002021680860216848603046A0
:10477000FEF7F1FF70BD70B50446FEF759FF054620
:1047800072B66168206808602168606848602846E1
:10479000FEF7E1FF70BD70B505460C46FEF748FF19
:1047A000064672B6686820606868FFF7E4FF00207C
:1047B00021680860216848603046FEF7CCFF70BD74
:1047C00086B0FEF711F9062224492548FEF75CF968
:1047D000FCF723F9224A06210020FFF7E6FD2149D4
:1047E000087008460078002806D0084601781EA008
:1047F000FEF75EF9FCF7FDF9FFF764FD1949087053
:1048000008460078002804D01FA0FEF751F9FCF7F5
:10481000F0F903A804A905AB07220091019000213B
:104820000420FFF745FC0F4908700846007800286F
:1048300004D01AA0FEF73CF9FCF7DBF904210120B3
:10484000FFF78EFD0749087007E0FEF76BF8FEF7EB
:10485000CFFDFF20F530FCF76BFBF6E722000020D0
:104860000A0000200800002053657474696E6720F8
:1048700042445F41444452206661696C6564203063
:1048800078253032782E0A00474154545F496E69CA
:1048900074206661696C65642E0A00005365727647
:1048A0006572204741505F496E6974206661696C8A
:1048B00065642E0A0000000038B505460C4607E086
:1048C00069462046FFF767FF28460099FFF70BFF70
:1048D0002046FFF72AFF0028F2D038BDF0B51FB4FC
:1048E00096B084460C460246199D189803904900DC
:1048F00068006300490840080193002A01D001269E
:1049000000E000269E19FE4BF6185B109E422BD34A
:104910006E00039F0296002F00D00127F719F84E72
:10492000F84BBE199E421FD3039E0346F64F3343F6
:1049300009D03B469C4201D1002A04D0019B002AA9
:1049400005D0012604E0002039461BB0F0BD00264A
:104950009E19EE4B9E4207D8039F029E002F00D067
:104960000127F6199E4207D92B4660462146189A20
:10497000FEF7C2FE1BB0F0BD0023002C29DAE44E86
:10498000B04226DAE34EB04201DB022321E0DE4EE4
:10499000B0421EDBE04E070DBE19142E09DD342790
:1049A000BF1B039EFE400196BE40039FBE420BD03C
:1049B0000FE0039F002F0CD11427BF1B0646FE40BB
:1049C0000196BE40864204D1019BDE07F60F02230A
:1049D0009B1B0E46164318D1002D16DA002C03D06F
:1049E000022B01D0012B06D00220FEF7B7FEFEF706
:1049F00079FE1BB0F0BD0220FEF7B0FEFEF772FE9E
:104A00000122D20751401BB0F0BD039E002E61D1A0
:104A1000BF4EB04220D1C148844201D1002A08D003
:104A2000B948814209DB002D10DB189829461BB0DC
:104A3000F0BD0020B4491BB0F0BD002D06DA012204
:104A40002946D207189851401BB0F0BDB4497944AB
:104A5000086849681BB0F0BDAB4FB84225D1002DA6
:104A60001FDA002904D0B14212D1002A09D018E07F
:104A7000002A72D1A649E20F0020D20711431BB0D1
:104A8000F0BD0020E20F0146D20711431BB0F0BD7C
:104A9000B14206DA234600203946FBF7FDFB1BB086
:104AA000F0BD104621461BB0F0BDB14212DA01261E
:104AB000B607B54203D1234610461946FEE3994E88
:104AC000B54207D1261E05DB1046314600F036FC04
:104AD0001BB0F0BD67007F081646002A40D10029B0
:104AE0000AD08B4A914229D1002C0EDD002D1CDB0F
:104AF000002011461BB0F0BD022B16D0002C14D0A4
:104B0000012B12D1002C14DB0FE0002C28DA002D31
:104B100009DB012B03D000207D491BB0F0BD002034
:104B200081491BB0F0BD012B03D0002001461BB012
:104B3000F0BD00200121C9071BB0F0BD724A9142AF
:104B40000ED1002C01DA002B17D0022B06D000204A
:104B5000C043FBF725FC1BB0F0BD90E20120F8E755
:104B6000E217521C94461A4307D000220892664C62
:104B700062465B1E1A4307D009E00120FEF7EEFDF6
:104B8000FEF7BEFD1BB0F0BD0022644C0892674AE0
:104B900090427DDD664B674A98421FDD914202DC00
:104BA000002D05DB4DE05848814217DB002D48DD24
:104BB0000220FEF7D3FDFEF7ABFD05460E460022B0
:104BC000534B21460898FBF7FFFA08467100490845
:104BD000C00FC007014328461BB0F0BD914215DA53
:104BE000002D2EDA0220FEF7B9FDFEF791FD0546F5
:104BF0000E460022464B21460898FBF7E5FA720064
:104C00005208C80FC0070243114617E03E4B9942B5
:104C100023DD002D15DD0220FEF7A0FDFEF778FD57
:104C200005460E4600223A4B21460898FBF7CCFA7F
:104C3000084671004908C00FC007014328461BB051
:104C4000F0BD0220FEF78AFDFEF76CFD4900490821
:104C5000E20FD20711431BB0F0BD002230463946A7
:104C6000FBF752FD012205460E46D243FBF75AFDE3
:104C7000314A324BFBF74EFD2A463346FBF7A4FA86
:104C80000022284BFBF746FD07462A46334600E044
:104C900064E0039110461946FBF796FA3A46039BE7
:104CA000FBF792FA0746032209915207244B284644
:104CB0003146FBF789FA07910C90224A204B38467F
:104CC0000999FBF781FA074601911F4A1F4B2846B5
:104CD0003146FBF779FA3A46019BFBF715FD07468B
:104CE0000B460246099107990C98FBF769FC0025D1
:104CF0000E462846079B0C9AFBF706FD3A4627E02E
:104D0000FFFF1F00FFFF0F000000F03F0000E0FF6B
:104D10000000F07F0000404301FCFFFF0000F0BFF7
:104D20006E0A00000000E03F0000F0FF0000E041DC
:104D30000000F043FFFFEF3F555555555555D53F02
:104D40004715F73FFE822B6544DF5DF80BAE543EFE
:104D5000099BFBF7DFFC02460B4652E101250020D0
:104D60002D05A94207DA352230463946FBF7DAFC31
:104D700006463420C0430A151218FE481018039046
:104D80000803FD49000B01430F46FC49884201DC42
:104D9000002003E0FA49884202DA0120119005E080
:104DA000002011900398401C7F1B039011980597D9
:104DB000C200F4480F92784480184368026839466C
:104DC00030460D930292FBF79FFC07910C90304602
:104DD0000D9B029A0599FBF7F3FB02460B46002058
:104DE000E549FBF759FA09910490079B0C9AFBF7E8
:104DF000EBF9129000201090E3480D4678440068CB
:104E00000E90012178104907084311990D9B8904E0
:104E100040180121C90447183946029A0E98FBF739
:104E200073FC3246059BFBF775FC02460B46294690
:104E30001098FBF7C9F9064602913B4629460E9A9F
:104E40001098FBF7C1F9079B0C9AFBF763FC3246FD
:104E5000029BFBF759FC099B049AFBF7B5F90591F6
:104E6000129A0A902B4610461946FBF7ADF90646F2
:104E70000246C6480F460B4606217844FEF7DBFB88
:104E800032463B460091049010461946FBF79CF9C8
:104E9000009B049AFBF798F906460F462B461946E5
:104EA000129A1098FBF78CFB059B0A9AFBF78CF97A
:104EB00032463B46FBF784FB109A079104902B4641
:104EC00010461946FBF780F9B14E0022334609918E
:104ED0000290FBF775FB079B049AFBF771FB002020
:104EE0000746024633460091FBF70EFC099B029AE7
:104EF000FBF70AFC079B049AFBF70CFC06460D9196
:104F00003A462946009B1098FBF75EF907910C90F2
:104F10002B463046129A0D99FBF756F905460E4678
:104F20003A46009B05990A98FBF74EF933462A4604
:104F3000FBF746FB02460B460746099107990C987A
:104F4000FBF73EFB00250E462846079B0C9AFBF715
:104F5000DBFB3A46099BFBF7DDFB0746072209917D
:104F600052078C4B31462846FBF72EF907910090EB
:104F7000894A884B38460999FBF726F9074601917B
:104F8000864A874B31462846FBF71EF93A46019B75
:104F9000FBF716FB834B7B440F9A9B181A685B68E0
:104FA000FBF70EFB029009910398FBF7F9F90591C5
:104FB0000490099B029A07990098FBF701FB7A4B32
:104FC0007B440F9A9B181A685B6817460393FBF79C
:104FD000F7FA059B049AFBF7F3FA0E462846059B61
:104FE000049AFBF791FB3A46039BFBF78DFB079B6B
:104FF000009AFBF789FB099B029AFBF78BFB0246A1
:105000000B46199900200C900F461898FBF7DCF816
:10501000029104903B460C9A19991898FBF774FB7F
:105020002A463346FBF7D0F8029B049AFBF7C8FAEE
:1050300009910E902A46334639460C98FBF7C4F87E
:1050400006460F46099B0E9AFBF7BAFA574A0D46D9
:10505000914220DB5242AA18024310D132463B460D
:10506000FBF752FB04900391514A524B09990E9859
:10507000FBF7A6FA039B049AFBF78AFB1ED20220D9
:10508000FEF76CFBFEF744FB49004908E20FD2072C
:1050900011431BB0F0BD6A00474B52089A420DD332
:1050A000464AAA18024300D0CBE532463B46FBF7FE
:1050B0002BFB099B0E9AFBF76BFBF5D968000023CD
:1050C00040082C490393020D3D4B5218984223DDB2
:1050D00001200005521CD04042195000400D4018DC
:1050E00038497944096813468C463749C1408B4397
:1050F00012030121120B090551181422101AC14084
:105100000391002D01DA4842039062463046394649
:10511000FBF7FAFA06460F4632463B4609990E98C7
:10512000FBF74EFA00252A46284B28460591FBF747
:105130004BF807910C90264A264B28460599FBF719
:1051400043F80091029032463B4628460599FBF70A
:10515000DBFA099B0E9AFBF7DDFA1F4A1F4BFBF7A0
:1051600033F8009B029AFBF72BFA07460B460246E0
:10517000099135E001FCFFFF0000F03F8E9803002D
:105180007AB60B007E060000C0060000EA050000AB
:105190000000084009C7EE3FFD033ADCF5015B144F
:1051A000E02F3EBEBE0400008404000000009040DA
:1051B000FE822B654715973C00CC904000346F3F32
:1051C0000000E03FDA030000FFFF0F00432EE63F40
:1051D000396CA80C615C20BEEF39FAFE422EE63F26
:1051E00007990C98FBF7ECF905460E46079B0C9ABD
:1051F000FBF78AFA3A46099BFBF78CFA09912A4693
:1052000033460E9010461946FAF7DEFF074602466F
:105210002F480B46059105217844FEF70CFA3A46D3
:10522000059BFAF7D1FF2A463346FBF773FA074688
:10523000019128463146099B0E9AFAF7C5FF099B52
:105240000E9AFBF7BDF9012304910C9000229B07F5
:1052500038460199FBF758FA05910E903A462846D0
:105260003146019BFAF7B0FF059B0E9AFBF714F845
:10527000049B0C9AFBF748FA2A463346FBF744FA9C
:105280000022144BFBF746FA064603980D4600052C
:1052900041190915002912DC30462946039AFBF70B
:1052A00041FAFEF7AFF9042801D1FEF73BFA304688
:1052B0002946039AFBF736FA064601E004E029186E
:1052C0000B46324621460898FAF77EFF1BB0F0BD28
:1052D0007C0200000000F03F00B585B00120009086
:1052E0000A480190022002900320039000200490BD
:1052F000694605200007FBF73DFE00200290694645
:1053000005200007FBF736FE05B000BD00001110B8
:1053100000B585B00120009001900320039000208B
:105320000290694605200007FBF724FE0122114682
:1053300005200007FBF721FF05B000BDF8B50646C4
:105340000C46FBF75EFA051E0F4600D00120014314
:1053500049000B484908411AC90F0DD0002E01D051
:10536000012100E000210C4361004908401AC00FF0
:1053700002D10120FEF7F2F928463946F8BD0000B7
:105380000000F07F08B50020009003E000BF009807
:10539000401C0090FF21A53100988842F6DB08BD33
:1053A00010B50A480A4908604B20C0014860002136
:1053B00007488160C160016181610C214161FDF795
:1053C000EFF8002801D0FBF714FC10BD00440040AA
:1053D000C400002009424C455F414456669A0C20A7
:1053E0000008969EE2119EB1E0F273D7669A0C20F7
:1053F0000008969EE2119EB1E1F273D8669A0C20E5
:105400000008969EE2119EB1E2F273D920000020BE
:105410000700000000000000000102030406070866
:10542000090000000001020304030406080C101820
:105430002030000000000000000000000000F03FED
:10544000000000000000F83F000000000000000025
:105450000000004003B8E23F000000000000000030
:1054600006D0CF43EBFD4C3E033333333333E33FBE
:10547000FFAB6FDBB66DDB3F4D268F515555D53FEA
:1054800001411DA96074D13F65DBC9934A86CD3FB8
:10549000EF4E454A287ECA3F3E5555555555C53FA6
:1054A00093BDBE166CC166BF2CDE25AF6A56113F98
:1054B000F16BD2C541BDBBBED0A4BE726937663E9A
:1054C0000000000000000000E85400080000002078
:1054D000C400000038370008AC550008C4000020A4
:1054E00084070000483700080000000000000000AA
:1054F0000000000000000000A10000E18002A20006
:1055000000E18002A30000E18002AA0000E1800225
:10551000BB0000E18002000000000000000000006D
:10552000000000000000000000000000000000007B
:10553000000000000000000000000000000000006B
:105540000000000000000000010000000000A0407A
:105550000000B4420000B4420000B4420000000069
:10556000000000000000000000000000000000003B
:105570000000000000000000000000500008005083
:10558000E8030000000000000000000080841E000E
:10559000000000000000000000000000000000000B
:0C55A000000000000000000000000000FF
:04000005080000C12E
:00000001FF
