:020000040800F2
:10000000E8070020D5000008131F0008111F000892
:1000100000000000000000000000000000000000E0
:10002000000000000000000000000000D3210008D4
:1000300000000000000000009D1F0008D5210008FE
:10004000E7000008E7000008E7000008E7000008F4
:10005000E7000008D30A0008E7000008DD0A0008EE
:10006000E7000008E7000008E7000008E7000008D4
:10007000E7000008E700000800000000E7000008B3
:1000800000000000E7000008000000000000000081
:10009000E700000800000000E7000008E700000893
:1000A000E7000008E7000008E7000008E700000894
:1000B000E7000008E7000008E7000008E700000884
:1000C0000348854600F004FB0048004765390008F6
:1000D000E80700200448804704480047FEE7FEE7A1
:1000E000FEE7FEE7FEE7FEE74D220008C10000083C
:1000F00030B50B46014600202022012409E00D46C0
:10010000D5409D4205D31D469540491B2546954047
:1001100040191546521E002DF1DC30BDF0B51FB45C
:100120000646002082B005464024019100901BE065
:10013000019922460F46304600F094F9049A059B37
:10014000801A994110D310461946224600F07AF9D8
:10015000361A8F410197224601200021009F00F0AE
:1001600071F938184D4100902046641E0028DFDCEC
:10017000019B00982946324607B0F0BD10B50346F2
:100180001C460C43A40703D009E010C9121F10C37A
:10019000042AFAD203E00C781C70491C5B1C521E26
:1001A000F9D210BDD2B201E00270401C491EFBD250
:1001B00070470022F6E710B513460A460446194672
:1001C000FFF7F0FF204610BDF0B50746084658403F
:1001D00087B0C00F049048000E46590040084908F7
:1001E000BC1A884105D2384631461E4617460B4692
:1001F00002465800400810434CD0300D0390400593
:100200005900400D490D0590401A0290402872DABD
:1002100018030121000B090508430190049800927E
:10022000002805D001995242002088410092019097
:10023000029840210A1A0199009800F003F9054636
:100240000C466B4607CB00F01EF9C0197141039AAA
:100250000E0D0023D71756401A467A40164344D055
:10026000049A002A2DD0029A012A039A15DC12055D
:10027000C01A914101263605001C7141D20F059E1E
:10028000D2070093019202962A46234600F01BF9FA
:1002900007B0F0BD38463146FAE71605224A0F4648
:1002A000B218C01AB74101210905001C4F410018BE
:1002B0007F41114618187941E20F10436D196441CE
:1002C00013E0E2076D0815436408C2071443039A5C
:1002D00001261205C01A91413605001C7141CE0756
:1002E000400830434908C01851412A46234600F0CF
:1002F000DDF8CDE7FFE7049801224000C117121A8C
:1003000000238B4104983146C417381AA141EEE707
:1003100030B40124E407634030BC55E730B4012415
:10032000E407614030BC4FE70000E0FFF0B50C4649
:100330005C4085B0E40FE40703944C000026640899
:1003400059009446490802460296224321D062464B
:100350000A431ED06200570D4A000E032303550DB9
:10036000012402462C492405781B1B0B360B401830
:1003700023432643614600901C46501AB44103D3E0
:100380000098401C009002E0921800985B41002801
:1003900003DA0020014605B0F0BD00200121090567
:1003A0000746864611E064461D46141BB54106D338
:1003B0006546521BB341744607430C43A646CD071E
:1003C00040084908284392185B4105460D43EAD18D
:1003D0001046184313D060461946504071400843F8
:1003E00006D06046101AB34106D20122002306E06F
:1003F00000220123DB0702E00122D24353100098C0
:1004000074460105381C6141029C039D0019694135
:1004100000F04CF8BFE70000FD0300000EB5C21766
:10042000C10F5040CA0740180021054B02930192AA
:1004300000910A460B4600F046F803B000BD0000EC
:100440003304000010B5202A04DB0146203A914015
:10045000002010BD914020239C1A0346E34019431D
:10046000904010BD10B5202A04DB0846203AD04049
:10047000002110BD0B46D340D0402024A21A914049
:100480000843194610BD10B5202A06DBCB170846D5
:10049000203A1041C1170B4306E00B461341D040F0
:1004A0002024A21A91400843194610BD10B5002B14
:1004B00008DA0024401C614192185B411A4301D1C3
:1004C0004008400010BDF0B51FB482B005460C00D6
:1004D00003D0084602F048F902E002F045F9203066
:1004E0000246009021462846FFF7ACFF049B059A80
:1004F00004460F4618431143084314D018461043CE
:100500001BD0009840210A1A18460599FFF7AAFF48
:1005100005460E46009A05990498FFF793FF084395
:1005200005D0012004E02046394607B0F0BD002088
:10053000C11705430E432C43374300990E986305BA
:10054000401A7905E40A00220C43FD0A0A3002D55C
:1005500000200146E9E70105101969410C9C0D9D39
:1005600000196941FFF7A2FFDFE70000F0B51FB4F3
:1005700088B00B990998002448400999C00F490098
:1005800049080991C0070B990090490049080B914F
:1005900009990898A64608431CD00B990A98084365
:1005A00018D0099801244000420D4800410D0998D7
:1005B00024050003000B204309900B980003000B57
:1005C00020430B9050181C494018002201901446FB
:1005D000104605E0002001460DB0F0BD032801DA09
:1005E000034600E003239C46C11A0AAE0AE05F00FE
:1005F00008ADED5B4F00F75B7D430027AA187C41F7
:10060000491C5B1E6145F2DD410004AB5A522104D6
:10061000120C0A43240C401C0828DFDB01980290CE
:100620000099704601910090059B049A07990698DD
:10063000FFF749FFD0E700000DFCFFFF70B54B004E
:100640005B0803430BD04B005C0D0026334665422C
:10065000B341D417AD1AA34102DB0020014670BD9F
:1006600012053018514170BD4A0009030123090BDE
:100670001B0519430A4B10B5520D9A4202DA0020AD
:10068000014610BD064B34339A4203DC9A1AFFF739
:10069000E9FE10BD034BD218FFF7D4FE10BD0000D9
:1006A000FF030000CDFBFFFF10B5002904DB012490
:1006B000E40740428C412146002B04DB1C46012309
:1006C000DB075242A341994200D1904210BD000085
:1006D000064C0125064E05E0E36807CC2B430C3C95
:1006E00098471034B442F7D3FFF7EEFCE047000818
:1006F00000480008FEB500231A461B1A8A4103DB96
:100700000020014603B0F0BD4A000D0301212D0B6E
:100710000905520D0D43D10702D100186D41521E3B
:100720005110FF31FF310131002704463E46384663
:10073000009701910246012100200905FFF792FE72
:10074000C3197141F818324684468E464A416146C3
:100750002846611A904104D36046241A9541764692
:100760001F46241900986D41401C00903428E1DD9B
:10077000F91930467041091BA84103D20022D24327
:10078000134601E00022134601980105381C71410F
:10079000FFF78CFEB6E7000010B5094B1C8A641CFD
:1007A000A04203D1104603F0EFFE10BDD989491CC9
:1007B0008842FAD110780128F7D1587010BD000096
:1007C0000800002010B50D480B490160FF210531DC
:1007D000416000218160C1600161012241615202DA
:1007E0000162826141620722C2620822C2618162A3
:1007F00000F01DFF10BD000000300140D4000020BB
:10080000F0B5012287B0002806D10E49CB6A134308
:10081000CB62C96A114000910B4D4400295B0191E4
:10082000002103910321094F049102928600B859D7
:1008300001A900F0D9F9295BB859002200F099FA12
:1008400007B0F0BD001002402A4700083000002029
:1008500010B5054A4100515A044A80001058002240
:1008600000F087FA10BD00002A4700083000002081
:1008700010B5054A4100515A044A8000105801221F
:1008800000F077FA10BD00002A4700083000002071
:1008900010B5044A4100515A034A8000105800F034
:1008A00064FA10BD2A4700083000002010B5044A41
:1008B0004100515A034A8000105800F051FA10BD0F
:1008C0002C4700083400002030B587B0040007D161
:1008D0001648C36A04221343C362C06A10400590DD
:1008E000134A6000105A0090012200200392A200D7
:1008F000104B0290002913D001290FD10E4801900E
:100900009858694600F070F9094D00222D1F2857AC
:100910000F2100F07DFA285700F070FA07B030BDC3
:1009200001909858694600F05FF9F7E7001002401F
:100930002C470008340000200000211010B50520CD
:100940000121000700F00CFA012800D0002010BDA2
:1009500070B5FF24052501342D07002221462846C5
:1009600000F007FA052000F023F90122214628466D
:1009700000F0FFF9052000F01BF970BDF3B587B05A
:100980000E46FF21684601731FA003C8059000258D
:10099000069105202A460221000700F0EAF90F27F8
:1009A000052301AA05A91A48009700F015FF68461B
:1009B0000079022818D16846017AC0790C020443F4
:1009C00012D0B4420ED934460CE0012304AA03A984
:1009D0000F48009700F000FF6846017C07984155DA
:1009E0006D1CEDB2A542F0D30520012202210007C3
:1009F00000F0BFF90020009000BF401C00900228CA
:100A0000FADB284609B0F0BD0B0000000000000032
:100A1000D4000020FFB524A003C8C5B00390049102
:100A200023A003C801901F4615460024029105200B
:100A300000F0DAF9052000220221000700F099F900
:100A40000F26052301AA03A91B48009600F0C4FE47
:100A50006846007902280CD0641E0520012202217C
:100A6000000700F086F9052000F0C8F9204649B0DB
:100A7000F0BD68464079E919884212D3002D06D0AE
:100A80002B4605AA00960C48459900F0A5FE002FBC
:100A9000E3D000963B4605AA0748469900F09CFE25
:100AA000DBE70124E443D8E70A000000000000006F
:100AB000AA00000000000000D4000020014901202D
:100AC000486170470004014010B5052000F08CF922
:100AD00010BD10B5012000F07BF810BD10B501204D
:100AE000400300F075F802490120087010BD0000B5
:100AF0002800002010B5052000F080F910BD00206E
:100B0000FFF7C6FE642000F053F8F8E770B505461D
:100B1000094801224261C18008A001F025FA05249C
:100B2000295D0CA001F020FA641E002CF8DC297865
:100B30000AA001F019FA70BD08000020436F6E6E24
:100B4000656374656420746F206465766963653AD3
:100B500000000000253032582D00000025303258AA
:100B60000A00000070B5074C0025656106A001F081
:100B7000FBF9012020706570A570E5702571657125
:100B800070BD000008000020446973636F6E6E65DD
:100B9000637465640A00000010B5044B1B895B1C7C
:100BA000984202D1104603F0EFFC10BD080000206F
:100BB00031B500F0E5F8044600F0E2F80099001BBA
:100BC0008842F9D338BD10B501F01CF910BD000002
:100BD00010B504494A69024202D04861FFF7F3FFA9
:100BE00010BD000000040140F8B500230124A2E07C
:100BF00027469F403A4070D04D68022D01D0122DFB
:100C000014D1DD08AD002D1800952D6A5E07AC46A5
:100C1000F50E0F26AE46AE406546B543AC460E69AE
:100C20007546AE4065462E43009D2E624D68012DEF
:100C300005D0022D03D0112D01D0122D16D18568BB
:100C40000326AC465D00AE46AE406546B543AC46B5
:100C5000CE687546AE4065462E43866046680D797F
:100C6000BE43ED06ED0F9D403543456006685F00CD
:100C70000325BD40AE46AE430D79B446AE07B60F70
:100C8000BE4065462E430660C6687546AE438D6815
:100C9000BD403543C5604D68ED004BD5294D6E6BA9
:100CA00026436E639E08284DB6007519AC46AD68A4
:100CB0009E07360F0F27B740BD4305273F07B842B1
:100CC00001D1002715E0214FB84201D1012710E0E2
:100CD0001F4FB84202D102270BE02BE01D4FB84254
:100CE00001D1032705E01C4FB84201D1052700E0E0
:100CF0000627B7402F436546AF60184D2E684F68F2
:100D00009643FF0300D516432E606E684F689643E6
:100D1000BF0300D516436E60AE684F689643FF026E
:100D200000D51643AE60EE684F689643BF0200D50B
:100D30001643EE605B1C0A681546DD4000D057E79D
:100D4000F8BD000000100240000001400004005007
:100D500000080050000C0050001C0050000401402E
:100D60000069084000D00120704742694A40426152
:100D70007047002A01D0816170478162704700008E
:100D800001480068704700004800002002480168E0
:100D9000491C0160704700004800002010B506485B
:100DA0000168022211430160032000F007F800F0FF
:100DB00019F8002010BD00000020024010B50446C4
:100DC00007487D21C9000068FFF792F900F060FE36
:100DD00000222146501E00F01BF8002010BD00002C
:100DE0004400002070470000C106C90E0120884061
:100DF000014908607047000080E100E0C106C90EAB
:100E000001208840014908607047000000E100E0CF
:100E100010B501F07FF810BDF8B501265E49074610
:100E2000F602002035015B4B5B4A4031102F6ED03B
:100E300011DC012F6FD0022F6BD0042F6AD0082F46
:100E40001CD1C96803242403214073D0BD026C1057
:100E5000A94274D097E0514C202F03D0402F2FD0BF
:100E6000B7420BD10B6909690326360401273140CB
:100E70003F04B94203D1990559E02846F8BD012540
:100E80006D04A94203D19907F8D54548F8BDB14290
:100E9000FCD111688903F9D51168032000050140D0
:100EA00001200005091A09D0091A05D0814201D193
:100EB0003C48F8BD2046F8BD3B48F8BD3B48F8BD6E
:100EC000C9680125AD06294006D0A942F7D191682D
:100ED0008907F4D53648F8BD11688901FBD5D0687B
:100EE000D1688002334D000F2D5C0802810FD0685D
:100EF000491CC00306D41068C00601D5204602E094
:100F0000184600E02C486843FFF7F2F8F8BD3DE0D2
:100F100001E01CE029E0CC68A407A40F0CD0022C4F
:100F20000DD0012C10D0032CF0D1096989050029BE
:100F3000A3DBEBE716E002E000F004F9E6E7116856
:100F40004907E3D51846E1E700F00CF9DEE7CC6885
:100F50000C26344006D0082CF1D0042CF4D00C2CF4
:100F6000E3D0D3E700F0DEF8D0E7CC680327BF0278
:100F70003C40F7D0B442E2D0012292029442E3D046
:100F8000BC42D2D0C2E7A142DED0BFE7916B49029A
:100F9000E8D4BBE70024F4000010024000093D0043
:100FA0008890000020A1070040420F0080841E00AE
:100FB000006CDC023E47000800127A00F8B50546D6
:100FC00053480E460068C007C00FB0420AD25048CE
:100FD000016849084900314301600068C007C00F3B
:100FE000B0426FD128784B4C800705D5E068F021DE
:100FF0008843A9680843E0602878C00752D0686831
:10100000022817D0032818D02168012818D0890594
:10101000002957DAE168890889000143E160FFF798
:10102000AFFE69680746022912D003291CD00129A6
:1010300026D033E021688903EAE721688901E7E7E0
:101040004907E5E7FFF79CFEC11B3348814223D8DF
:10105000E0680007800F0228F4D123E0FFF790FE3C
:10106000C11B2D48814217D8E0680007800F032874
:10107000F4D117E0FFF784FEC11B274881420BD84B
:10108000E0680007800F0128F4D10BE0FFF778FE3D
:10109000C11B2148814201D90320F8BDE068000747
:1010A000800FF3D11A480168C907C90FB1420BD9A3
:1010B000016849084900314301600068C007C00F5A
:1010C000B04201D00120F8BD2878400706D5E0687D
:1010D000072109028843E9680843E060287800078F
:1010E00007D5E0680721C90288432969C900084378
:1010F000E06000F037F8E168084A0906090F515C22
:10110000C840074908600320FFF758FE0020F8BDDB
:101110000020024000100240881300002E47000803
:1011200044000020044805490068C968044A49058C
:10113000490F515CC8407047440000200010024035
:1011400047470008044805490068C968044A8904FB
:10115000490F515CC8407047440000200010024015
:101160004747000810B5184AD1680C2008400428E9
:101170000BD0082810D00C2810D050680004410F64
:101180000120C003491C884010BD1068C00601D56D
:101190000E4810BD0E4810BD0E4810BD88020E4B03
:1011A000000F185C0902D368890F491CDB0301D5C5
:1011B000084A05E01268D20601D5044A00E0044A54
:1011C0005043FEF795FF10BD0010024000093D009E
:1011D0000024F40000127A003E470008F8B50446E7
:1011E0000078FE4DC0074AD0E8680007800F02284B
:1011F00007D0E8680007800F032809D1E868C0031A
:1012000006D5286880033AD56068002873D036E098
:10121000012062680004824203D1296801432960E9
:1012200011E0052301211B0489049A422A6802D196
:101230000A432A60F1E782432A602A68024000924A
:10124000286888432860606800280CD0FFF798FD64
:10125000064604E0FFF794FD801B64287ED82868CA
:101260008003F7D50BE0FFF78BFD064604E0FFF7A0
:1012700087FD801B6428F1D828688003F7D4207884
:10128000800741D5E8681F270007800F3F0201282B
:1012900007D0E8680007800F032809D1E868C00379
:1012A00006D42868400717D5E068012823D113E049
:1012B000E068002817D0296809229143014329607A
:1012C000FFF75EFD064604E0FFF75AFD801B02288B
:1012D000C4D828684007F7D568682169B84309026F
:1012E0000843686010E02868400840002860FFF765
:1012F00047FD064605E095E0FFF742FD801B02280A
:10130000ACD828684007F7D42078C00672D5E868C2
:10131000B34E0007800F0AD0E06900282868B14961
:101320005AD008432860FFF72BFD074644E02868A1
:10133000800502D5E069002874D0606A6968314090
:10134000884212D900F02CFE0028AFD16868616A8B
:10135000B043084368606868000200E0DCE0218C6C
:10136000000A0906084368600FE06968B143014359
:1013700069606868218C0002000A090608436860F9
:10138000606A00F00DFE002890D1606A410B0120D8
:10139000C003491C8840E96809060A0F9249895C24
:1013A000C840924908600320FFF708FD22E0FFF7DC
:1013B000E7FCC01B02288BD828688005F7D5686831
:1013C000616AB043084368606868218C0002000AC3
:1013D0000906084368600DE088432860FFF7D0FCE9
:1013E000064604E0FFF7CCFC801B022888D828685A
:1013F0008005F7D420787E4E000723D56069002849
:10140000306910D0012108433061FFF7B9FC07466D
:1014100004E0FFF7B5FCC01B02287DD830698007C7
:10142000F7D50FE001E1400840003061FFF7A8FC6C
:10143000074604E0FFF7A4FCC01B02286CD8306903
:101440008007F7D42078400760D5A86B0027C0003C
:1014500005D4A86B012109070843A8630127654843
:101460000168C90511D40168821511430160FFF7B5
:1014700087FC009005E0FFF783FC0099401A642880
:101480004AD85C480068C005F5D55648A268824233
:1014900003D131690143316111E001218902002A40
:1014A00007D005231B029A4203D132690A433261F5
:1014B000EFE7326982433261306988433061A06866
:1014C00000280ED0FFF75CFC009006E0FFF758FC08
:1014D0000099411A484881421ED830698005F5D5E7
:1014E0000DE0FFF74DFC009006E0FFF749FC009986
:1014F000411A414881420FD830698005F5D4002F48
:1015000004D0A96B012000078143A96320788006DD
:1015100030D53A48421400E080E0A169002916D095
:10152000AB6801210B43AB606B6B0B436B63016AD0
:1015300011430162FFF724FC064604E0FFF720FC9C
:10154000801B02286AD8A8688007F7D512E0A9682E
:1015500049084900A960016A91430162FFF710FC44
:10156000064604E0FFF70CFC801B022856D8A8684A
:101570008007F7D4A06A002855D0E9680907890FC9
:10158000032952D0012636060228286805D0B04328
:101590002860FFF7F5FB044642E0B0432860FFF700
:1015A000EFFB074604E0FFF7EBFBC01B022835D832
:1015B00028688001F7D4216BE06AEA680843616B10
:1015C000FD231B049A4311430843E8602868304315
:1015D0002860FFF7D5FB044617E00000001002402A
:1015E00000E00000000100002E4700084400002039
:1015F00040100240007000408813000000000140CD
:10160000FFF7BEFB001B022808D828688001F7D529
:1016100009E0FFF7B5FB001B022801D90320F8BD44
:1016200028688001F5D40020F8BD0120F8BD70B510
:10163000040006D025464035687C0026002802D0EC
:1016400005E0012070BD2E74204600F033F8022022
:10165000687420680168402291430160A168606855
:1016600022690843E1681143084361690122084384
:10167000A169520211400843E1690843216A084305
:10168000A16A084321680860A0690421000C084091
:10169000616A0843216848602168E06A086120683F
:1016A000C16992009143C1616665012068740020A0
:1016B00070BD0000F0B50068434987B088427DD115
:1016C0004248C16A01242143C162C16A2140059197
:1016D000C16A02263143C162C16A31400591C16AC3
:1016E0002143C162C16A21400591C16A2143C1629F
:1016F000C16A21400591C16A2143C162C16A21408A
:101700000591C16A2143C162C16A21400591416BC3
:101710008214114341638715002505200194039528
:1017200069460007009704950294FFF75DFA0520CB
:10173000002239460007FFF71CFB08200327009012
:10174000019669460397029604952148FFF74CFAE3
:101750004020009005206946039701960495029465
:101760000007FFF741FA80200090052002956946A6
:101770000397019604950007FFF736FA05200194B8
:10178000694600070397009604950294FFF72CFA28
:101790000520012202210007FFF7EBFA0D4801A9FD
:1017A0000094A1C10520694600070495FFF71CFAC3
:1017B000002203210520FFF72BFB00E002E00520BB
:1017C000FFF71CFB07B0F0BD0030014000100240E5
:1017D0000004005000001110F8B5044600276846C8
:1017E000078026464036707C012802D0707C222873
:1017F0007ED100290CD0002A0AD0002B08D0307CE2
:10180000012875D001203074707C012802D003E0DB
:101810000120F8BD322070746765A263A387E38757
:101820002163A386E386A764E7640125A06A6D03AC
:10183000A84207D120680168A943016020680168B7
:101840002943016020680168490603D401684022E9
:10185000114301600121FF20E268C90205308A427C
:10186000616866D1002904D081420CD1E08E012844
:1018700009D1206B21680088C860206B801C206320
:10188000E08E401EE086E08E002843D1A06AA84288
:1018900046D12068016801221203114301603FE034
:1018A0002068C068A16B0880A06B801CA063B0E0BA
:1018B000002202212046069B00F032FC00287DD148
:1018C000206B21680088C860206B801C2063E08E3C
:1018D000401EE086E08E002808D1A06AA84205D10B
:1018E000206801680122120311430160002200E018
:1018F000CCE001212046069B00F012FC00287FD19D
:101900002068C068A16B0880A06B801CA063E08F7A
:10191000401EE087E08E0028CAD1606800287BD195
:10192000002201212046069B00F0FAFB002867D127
:10193000B6E7002904D081420BD1E08E012808D1FE
:10194000206B411C216321680078C860E08E401E36
:10195000E086E08E002845D1A06AA84205D1206823
:101960000168012212031143016000220121204677
:10197000069B00F0D5FB002842D12068C068A16B0F
:10198000087046E0002202212046069B00F0C8FBBA
:10199000002835D1206B411C216321680078C86084
:1019A000E08E401EE086E08E00280AD1A06AA842A0
:1019B00007D1206802680121090300E020E00A4302
:1019C0000260002201212046069B00F0A9FB0028AE
:1019D00016D12068C268A06B411CA1630270E08F21
:1019E000401EE087E08E0028CCD16068002813D12B
:1019F000002201212046069B00F092FB002802D025
:101A00000320F8BD08E02068C168A06B421CA263F7
:101A10000170E08F401EE087A06AA8420FD100222B
:101A200001212046069B00F07BFB002802D0606D60
:101A300002210EE02068C0686946088008880122FB
:101A400080212046069B00F06BFB002804D0606DCF
:101A5000202108436065D3E701207074A06AA84282
:101A600011D120688168C943C9060CD4616D022276
:101A7000114361650168A943016020680168294339
:101A800001603774C4E637740020BAE70220B8E773
:101A9000094910B5401E884201D9012010BD074CEC
:101AA00060610321081F00F035FA0020A0610720C3
:101AB0002061002010BD0000FFFFFF0000E000E0FB
:101AC00070B5040005D025466035687A002802D03C
:101AD00006E0012070BD00202872204600F026F8A4
:101AE0002420687220680168490849000160606A22
:101AF000002802D0204600F0E8FB204600F07AFCE7
:101B00000128E7D0206841680922D2029143416050
:101B1000206881682A22914381602068016801223F
:101B200011430160204600F035FC70BD30B514480B
:101B300087B0C26A01210A43C262C26A0A400592A2
:101B4000C26A0A43C262C26A0A400592826B4B04AF
:101B50001A43826302200424052501900291039018
:101B60002D070094049469462846FFF73DF80820A5
:101B70000090694604942846FFF736F807B030BD58
:101B800000100240FFB5064604466036707A83B006
:101B90000D46202858D1002D0CD00598002809D0DA
:101BA0000120A1680003814207D12069002804D1E7
:101BB000E80702D0012007B0F0BD307A012843D0F9
:101BC000012030720020E06621207072FFF7D8F803
:101BD000019027464037059838820598788218E0AA
:101BE000788A401E78820698009000228021204644
:101BF000019B00F00DFD002818D10120A168000311
:101C0000814202D12069002812D021682878886298
:101C10006D1C788A0028E3D10698009000224021AC
:101C20002046019B00F0F4FC002808D00320C2E706
:101C300028882168C005C00D8862AD1CE9E7202016
:101C4000707200203072B6E70220B4E738B5014662
:101C50000A78401C042A32D10278052A30D03E2A64
:101C600031D0FF2A2BD1821CC07813780002184390
:101C70003C4BC3183FD00D4608350E2B4CD03A488C
:101C80003A4C00780F2B59D0112B18D1002816D1BF
:101C900037A000F069F9A078002802D02079002848
:101CA00045D0E07800280AD06079002807D168780C
:101CB0002A7801021143618138A000F055F938BD3E
:101CC000FEF750FF38BD8178801C01290BD0022916
:101CD000F8D101460B314B1E0091021DC11C801C26
:101CE00000F096F938BDC278837811021943801D3F
:101CF000FEF70CFF38BD2F48917900781379012841
:101D0000507905D000021843D21DFEF745FD38BDBD
:101D1000000218430932F8E710792B78801EC1B20F
:101D20006878D21D00021843FEF736FF38BD687888
:101D30002A780102114321811FA0BEE70028F5D1B6
:101D4000A1780120002902D02179002907D0E1786B
:101D50000029EBD061790029E8D1607138BD20718C
:101D600038BD0000FFF3FFFF010000200800002045
:101D70004556545F424C55455F474154545F444972
:101D800053435F524541445F434841525F42595F6C
:101D9000555549445F524553500A0000525820435C
:101DA0006861722048616E646C6520253034580A81
:101DB0000000000000000020545820436861722099
:101DC00048616E646C6520253034580A00000000BC
:101DD00070B50A4801F070FD0848083001F06CFD4C
:101DE000074D00248C2060434119044801F073FD25
:101DF000641CE4B2052CF5D370BD00005000002037
:101E00002C01002008B50020009024E0154801F0C6
:101E10006EFD002802D0FEF751FE08BD694611484C
:101E200001F071FD009880210830FEF7A7FD010642
:101E3000090E06D000988822115400F041F80028BD
:101E400004D00848009901F03AFD04E005480099E3
:101E5000083001F040FDFEF731FEFEF76FFD00286F
:101E6000D4D108BD5000002008B500200090FEF736
:101E70002BFE10E069460D4801F045FDFEF73AFEE5
:101E800000980830FFF7E2FEFEF71EFE07480099B3
:101E9000083801F020FD054801F029FD0028E9D0AF
:101EA000FFF7B0FFFEF726FE08BD00005800002037
:101EB00010B5024801F01BFD10BD000058000020C5
:101EC0000146027A0831042A01D00120704780308F
:101ED000007A8978C01E814201D00220704700201C
:101EE0007047FEB50E4607461C46154664216846F7
:101EF00000F0E4F9E3B2EAB231463846FEF78AFD73
:101F0000002804D0684600F0CBF90028F2D0FEBDCE
:101F1000FEE770478307FF22DB0E9A408907090E10
:101F2000994000280BDA0007000F0838830808489A
:101F30009B001818C36993430B43C3617047830820
:101F400004489B001B1818689043084318607047AA
:101F500000ED00E000E400E010B5FEF70FF910BD61
:101F600010B5FEF728F910BD0FB400B5A1B023AB32
:101F700080216846229A00F0E1FB82B2FF232D33D4
:101F800069460548FFF7FEFD002801D0FEF7B7FDC2
:101F900021B008BC04B0184764000020704700005E
:101FA00070B517490023CA681206120F18D18A6B40
:101FB000154CD500134A02D51268224009E08E6BF9
:101FC00001252D072E438E6312688E6B2240AE438F
:101FD0008E63A24204D103218903884200D10123E8
:101FE0000A48016849084900194301600068C007B0
:101FF000C00F984201D0012070BD002070BD0000CC
:102000000010024000700040001800000020024054
:10201000F0B585B00A981446C17B807B081A40B29F
:102020000A2835DA00F05CF82078AA2816D1607802
:1020300000282DD1A07800282AD1E078E12827D1E6
:102040002079802824D16079022821D11C48856913
:10205000C6692A4633461BA0FFF786FF2078A128D1
:1020600016D16078002813D1A078002810D1E0782C
:10207000E1280DD1207980280AD16079022807D182
:102080000F488769C4693A46234610A0FFF76CFFE2
:102090003A46234628463146FEF73AF90391029024
:1020A0003A46234628463146FEF78EF800900191C5
:1020B00008A0039B029AFFF757FF05B0F0BD000090
:1020C0000800002064313D256C660A0064323D251D
:1020D0006C660A00256C662C256C660A0000000000
:1020E00010B5002800DA404240B2094C3F38FEF7F4
:1020F00095F9084A084BFEF719F902460B460020ED
:10210000214601F043FD054AD161906110BD0000F8
:102110000000244052B81E85EB913D40080000208D
:10212000F8B51D4616460F460446FEF729FE314611
:1021300026464036009000291ED043E0681C1BD084
:10214000002D05D0FEF71CFE0099401AA84213D9B5
:1021500020684168E0229143416020680268402184
:102160008A43026023E021680A6882430A6021688A
:102170000A6802430A601FE0206881683846884385
:10218000DCD124E0681C1DD0002D06D0FEF7F8FD40
:1021900001460098081AA84214D920684268E02134
:1021A0008A43426020680168402291430160012017
:1021B000A16A40038142D6D001207074002030749F
:1021C0000320F8BD2068816838468843DAD00020B3
:1021D000F8BD704710B5FEF7D9FD02484168491CAB
:1021E000416010BD2800002070B5164C94B0A06B63
:1021F00021040843A063144801680322D2029143DA
:10220000C21489180160022000900A90400401263F
:102210000C9003960001102100250D900B95049160
:102220006846FEF7DBFF03200F9010951195012102
:102230000E9612950EA8FEF7C1FE606B30436063E8
:1022400014B070BD001002400070004010480168DA
:10225000821511430160C1680E4A1140C1600168D6
:102260000D4A114001608168490849008160016898
:102270000122920491430160C168FD22120491433E
:10228000C160002101610549C003886070470000FA
:10229000001002400C40FF88F6FFF6FE00ED00E063
:1022A00010B50446FEF76CFD2168401A6168401CB9
:1022B000814201D2012010BD002010BD10B504469E
:1022C0004160FEF75DFD206010BD10B5818CC9072F
:1022D00007D001684A6801235B049A43836A1A4362
:1022E0004A60818C890707D501684A6801231B046D
:1022F0009A43C36A1A434A60818C490707D501682B
:102300004A6801239B049A43036B1A434A60818CF9
:10231000090707D501684A680123DB039A43436B29
:102320001A434A60818CC90607D502689168012367
:102330001B039943836B19439160818C890607D5F0
:1023400001688A6801235B039A43C36B1A438A605E
:10235000818C490612D503685A6801210905046C6D
:102360008A4322435A60026C8A4207D1026851684C
:1023700003235B059943436C19435160818C090623
:1023800007D501684A680123DB04806C9A43024345
:102390004A6010BDF8B500260446C666FEF7F0FC9C
:1023A000054620680068124F000709D501212B4619
:1023B000002249052046009700F02AF900280DD197
:1023C0002068006840070BD501212B4600228905B3
:1023D0002046009700F01CF9002801D00320F8BD2A
:1023E000202060346072A07226720020F8BD0000C8
:1023F000FFFFFF01FEB50446016880682269E369BA
:1024000010436269102700261A4310430A683546B4
:10241000754B1A4002430A60206841680322120388
:102420009143E26811434160704A2168A06991427A
:1024300001D0226A10438A680B231B029A4302438D
:102440008A606B4A21686B4891420CD1C068800752
:10245000800F06D001283DD0022839D0032820D192
:102460001EE001271DE0644A91420AD1C0680C2198
:1024700008402BD004282DD0082829D00C2810D1B2
:102480000EE05A4A91420CD1C168032080020140FB
:102490001CD01015091A1DD0091A19D0814200D17B
:1024A00008270220FEF7B8FC0190504B51492268E2
:1024B0004039D81300929A4235D1002F0CD0022F08
:1024C0000DD0042F12D0082F1CD113E00027E8E70D
:1024D0000227E6E70427E4E7FEF724FE08E00868A1
:1024E000C00601D5454805E0454803E0FEF73AFE41
:1024F000002873D0626851005118814202D811033C
:10250000814201D2012569E0010E06025008002334
:1025100030185941FDF702FE03210902394A411AD8
:10252000914259D9EEE7E26982422DD13B0000F099
:1025300032F90906080B24192424241F24000198C9
:1025400012E0FEF7FFFD0FE008686168C00602D5E3
:1025500048082D4A01E02D4A48088018FDF7C8FDBB
:1025600086B20BE0FEF7FEFD616840004A08F4E722
:102570006168012248081204EFE7012531090901C9
:102580003007400F084327E03B0000F004F909073B
:102590000A0D061D060606290600B3E7FEF7C2FD72
:1025A00014E0FEF7CFFD11E008686168C00602D5AF
:1025B0004A08124801E012484A081018FDF798FD31
:1025C00081B20098C16009E0FEF7CCFD61684A085D
:1025D0008018FDF78DFD80B22168C8602846FEBDD9
:1025E00061684A08E9E70000F369FFEF004800402E
:1025F00000380140401002400044004000093D0006
:102600000024F400FFFC0F0000127A000048E801EB
:10261000FFB581B017460E4604460A9D1DE0681CB2
:102620001BD0002D05D0FEF7ABFB0499401AA84241
:1026300013D920680168FF22A1329143016020680C
:102640008168490849008160202060346072A0726E
:1026500000202072032005B0F0BD2068C16930461B
:10266000884304D00020B842D9D00020F3E70120ED
:10267000F9E70000F0B5264885B00078002801D0C1
:1026800001F036FA2348244C4078244D002823D109
:102690002068234E234F002802D03078002806D02F
:1026A0002068002808D03878002803D004E001F022
:1026B000EBFF01E001F0B2FF206800280CD0307879
:1026C000002809D03878002806D02878002803D1BF
:1026D000FEF7BEF800F04AFF0020FEF7E7F80028FA
:1026E00013D10020FEF7E2F80028FAD02068002875
:1026F0000BD02878002808D014220BA16846FDF7DB
:102700003DFD1421684601F051FF05B0F0BD000009
:1027100008000020000000201C000020090000200C
:102720000C0000200D0000203031323334353637B4
:1027300038394142434445464748494A7CB51546E5
:10274000024600201C4600290BD0491E0092019130
:10275000044B6A462146284600F090F9009A002171
:1027600011707CBDB53100082021020C01D0102170
:102770001046020A01D010460839020901D010465D
:10278000091F820801D01046891E420801D0881E08
:102790007047081A704730B47446641E2578641C6C
:1027A000AB4200D21D46635D5B00E31830BC1847A6
:1027B0004900CA020243100000D004204A0D01D093
:1027C00001221043044A490D914201D102210843DC
:1027D000012800D105207047FF070000F8B5044626
:1027E0004F1EC8000838211815461E46086849685B
:1027F0003A4606239A4310D02A463346FDF7B6FEE2
:102800003A46D200083AA3181A687F1E5B68FDF7A3
:10281000DBFC06223B469343EED1022F23D0042F4C
:1028200011D0062F2FD12A463346FDF79FFEE36ACB
:10283000A26AFDF7C9FC2A463346FDF797FE636A94
:10284000226AFDF7C1FC2A463346FDF78FFEE36995
:10285000A269FDF7B9FC2A463346FDF787FE636996
:102860002269FDF7B1FC2A463346FDF77FFEE36897
:10287000A268FDF7A9FC2A463346FDF777FE636898
:102880002268FDF7A1FCF8BD002210B513461046E2
:102890000149FDF74BFD10BD0000F03F10B5FDF7FD
:1028A00093FC10BD002210B5134610461146FDF7EB
:1028B0003DFD10BD10B50721024A00200907FDF7B4
:1028C000BDFE10BD01030000034A10B50020110732
:1028D000FDF7B4FE10BD000001FDFFFF02E008C8D7
:1028E000121F08C1002AFAD170477047002001E08A
:1028F00001C1121F002AFBD1704700000149086086
:102900007047000060000020F0B51FB486B0099841
:10291000089A030D0021024314D05148514A181857
:10292000504305141198012810981AD0281A401CF9
:1029300000264D4F4D49009601910490002812DA6F
:10294000444211E01198012449A3012801D11098B3
:10295000C1430698119A84600360C26041600BB065
:10296000F0BD4042E4E70446210500203F4A001C38
:1029700051410391029012E0E00707D032463B46F6
:1029800001990098FDF7F2FD0191009032463B4617
:1029900010461946FDF7EAFD06460F466410002C66
:1029A000EAD10498039B0028029A0999089806DA4C
:1029B000FDF7DCFD019B009AFDF7D8FD05E0FDF772
:1029C000B5FC019B009AFDF7B1FC04460E460022BF
:1029D000284BFDF769FE03D80020C043014607E0FD
:1029E0000022254B20463146FDF7EEFBFDF73CFE6D
:1029F000102409E0002C0ADB0A220023FDF78EFBDD
:102A0000079B30321A55641E02460A43F2D1112246
:102A1000641C079B121B1C19119B012B03D0012363
:102A200008430ED10AE0084304D011201090002082
:102A3000119077E71098151A6D1E0BE010988242DE
:102A400002DD00236D1C03E0824201DA00236D1ECB
:102A5000002BEED0069811998260C16030C07EE7ED
:102A600001FCFFFF104D0000000014400000F03F8B
:102A7000300000000000F0430000E03FFFB597B0D9
:102A80000646002518E2252877D100242746FD496F
:102A9000049400E00443761C32780120203A9040F0
:102AA0000842F7D130782A280ED002223078014629
:102AB0003039092916D804990A2359433039401866
:102AC0001443761C0490F1E7189802C804911890FA
:102AD000002904DA01204003044348420490022004
:102AE0000443761C30782E2814D1042004437078D7
:102AF000761C2A2809D11898761C80C8189009E0FD
:102B00000A214F43303FC719761C307801463039CF
:102B10000929F5D930786C2810D006DC4C281AD059
:102B200068280ED06A2817D104E0742813D07A28B8
:102B300012D110E00120400504430CE001210905F9
:102B400001E0032109050C437178814203D1012082
:102B500000052418761C761C3078119066280BD05E
:102B600013DC58287DD009DC00287BD04528F6D01E
:102B70004628F4D047281AD1A5E118E0632835D0BB
:102B8000642870D0652812D19DE170286CD008DCD3
:102B90006728F1D069287BD06E280DD06F2806D128
:102BA000BAE073282ED0752871D0782859D01A9A97
:102BB000199990476D1C7EE16002400F022809D0F0
:102BC00003280DD00428189801680DD00D60001D51
:102BD000189070E11898EA1701680D604A60F6E7EE
:102BE000189801680D80F2E70D70F0E718986A46B2
:102BF00001781172001D18900020507202A80090F8
:102C0000012005E0189802C8189000200091C043E8
:102C100061070DD5002101E00199491C0191B942DC
:102C200012DA8142F8DB009A515C0029F4D10BE002
:102C3000002101E00199491C01918142FADB019ACE
:102C40000099895C0029F5D1019904981A9B471ACB
:102C500021463846199A00F097FA0199401945180B
:102C60000BE04FE02CE113E04EE000980099007873
:102C7000491C00911A9A199990470198401E019099
:102C8000401CF2D1214638461A9B199A10E137E0D0
:102C90000A200021009001916002410F022907D013
:102CA000189A01CA1892C2179446032908D00AE05C
:102CB0001898C01DC108C90005C91891944607E0BD
:102CC00000B2C2179446042902D140B2C1178C4603
:102CD00000226146944506DA0A46002140429141AD
:102CE0008C462D2102E0210504D52B216A46117363
:102CF000012103E0E10701D02021F7E7029155E02F
:102D00000A200AE0102008E0102000900021042092
:102D100004430191082703E008200021019100905D
:102D20006002410F022907D0189A01CA18920022A6
:102D30009446032908D008E01898C01DC108C900AE
:102D400005C91891944603E080B2042900D1C0B2AD
:102D500000210291210729D51199702906D0009AE6
:102D60001021019B4A401A4305D00EE040216A46DB
:102D70001173012108E06146014306D030216A4603
:102D800011731199517302210291009A0821019B3C
:102D90004A401A430AD16146014301D1610705D572
:102DA00030216A46117301217F1E02911199582921
:102DB00004D035A10E910DA90D910DE037A1F9E7D1
:102DC0006146019B009AFDF7A9F90E9B8C469B5C1E
:102DD0000D9A521E0D92137061460143F0D10D9869
:102DE00005A9081A20300190600703D501200004CE
:102DF000844300E001270198874201DD381A00E092
:102E00000020019900904118029809180498401A6E
:102E10000490E00306D421461A9B199A049800F006
:102E2000B3F94519002706E003A81A9AC05D19995D
:102E300090476D1C7F1C02988742F5DBE0030CD5A0
:102E400021461A9B199A049800F09EF9451904E04E
:102E50001A9A3020199990476D1C0099481E0090CD
:102E60000029F5DC08E00D980D990078491C0D91BA
:102E70001A9A199990476D1C0199481E01900029D2
:102E8000F1DC63E109280100303132333435363763
:102E900038396162636465660000000030313233A6
:102EA0003435363738394142434445460000000046
:102EB00000F05AF94519761C3078002800D0E2E578
:102EC00028461BB0F0BD600700D406271898C01D27
:102ED000C108C90048680A680831C30FDB071891A8
:102EE000190001D09CA108E0210501D59BA104E0B7
:102EF000E10701D09AA100E09AA1430011985B0874
:102F0000109165280CD006DC452809D046281DD034
:102F1000472841D141E0662818D067283CD13CE0E1
:102F20000021112F01DB112000E0781C019100909D
:102F300008A911A8FFF7E8FC139905910021119A3F
:102F400015927F1C12980197009150E00120C00754
:102F500003900120019008A9009711A8FFF7D4FC65
:102F6000139A149905920022119B009212981593BE
:102F7000059A0192002901D0104602E0791C401800
:102F80000190381A01D5019804E04042401E00909B
:102F9000781C0190C01B029043E0012F00DA01274A
:102FA0000021112F01DD112000E038460191009031
:102FB00008A911A8FFF7A8FC13990591119A0021FF
:102FC000129815920091019721070CD40599B942E6
:102FD00001DB019900E00191012904DD159A491EE8
:102FE000515C302906D0B84201DA011D05DA012111
:102FF000029115E00199491EEDE7002805DC0099D2
:10300000411800910199091A03E0019A411C91426B
:1030100000DD01910099401A401C02900120C00778
:103020000390200706D402990198814202DB002018
:10303000C043029000206946C87707AF012103987A
:103040000337C907884224D0022011902B20129008
:10305000039800280CDA404203902D20129007E0DC
:103060000A210398FDF744F830317F1E0390397030
:103070001199481E11900029F2DC03980028EFD125
:10308000791E129808703078202108404530BF1E04
:10309000387006A8C01BC01D039010980078002847
:1030A00000D00120019941180298C017091803980F
:1030B00009180498401A401E0490E00306D42146E3
:1030C0001A9B199A049800F05FF845191098007837
:1030D000002803D01A9A199990476D1CE00324D553
:1030E00021461A9B199A049800F04EF845191CE0E5
:1030F0000098002807DB00990598884203DD1598A1
:10310000405C199901E0199930201A9A904700986B
:103110006D1C401C00900298401E0290002804D1B3
:103120001A9A2E20199990476D1C0199481E0190FA
:103130000029DDDC05E038781A9A7F1C1999904740
:103140006D1C0399481E03900029F4DC21461A9B4C
:10315000199A0498ACE600002D0000002B00000036
:103160002000000000000000F8B5044600251E46BF
:103170001746880404D405E039462020B0476D1C6A
:10318000641EF9D52846F8BDFFB50446002581B078
:103190001E46C80301D5302700E02027880404D547
:1031A00005E038460399B0476D1C641EF9D52846E2
:1031B00005B0F0BD4A68002A06D00A68531C0B60AF
:1031C00010704868401E48607047F0B589B06C4682
:1031D0000E9F0F9E20706170A2701D460722002175
:1031E00001A8FEF7BDFE1822002103A8FEF7B8FED5
:1031F0003F20A0818A20E0810320069001A807904B
:10320000072008900594002103A800F085FA002803
:1032100002DAFF2009B0F0BD684600790028F9D134
:103220006846817942790802104328806846017A0D
:10323000C2790802104338806846817A427A0802CF
:10324000104330800020E5E7FFB591B01D9E1B9D27
:10325000A9190E31282902D9422015B0F0BD6C46BB
:1032600020700127022212A9601CFEF775FEE01CE7
:10327000022213A9FEF770FE6946149848711A9845
:103280008871CD7102A82A461C99FEF765FE0835A3
:10329000E8B22654401CC5B2601932461E99FEF7AA
:1032A0005BFEA819C5B2601902221FA9FEF754FEE1
:1032B000AD1CEDB26019022220A9FEF74DFEAD1C37
:1032C000EDB2182200210BA8FEF74AFE3F20694606
:1032D00088858320C8850AA80F90002110970E9535
:1032E0000D940BA800F018FA002801DAFF20B4E7CB
:1032F00008A8007AB1E710B58AB06C4620806180DA
:10330000227163711822002103A8FEF729FE3F20D5
:10331000A0819720E081062006900F20049002A84B
:103320000790012008900594002103A800F0F4F90B
:10333000002802DAFF200AB010BD6846007AFAE7DA
:103340007FB58EB06C461E46204602220EA9169D01
:10335000FEF702FEA01C02220FA9FEF7FDFD201DB4
:10336000022210A9FEF7F8FD68468671012E21D0D1
:103370001026E01D32462946FEF7EEFD18220021F8
:1033800007A8F61DFEF7ECFD3F2168468183FF216B
:103390001731C1830F2008A951C106A80B90012045
:1033A0000C90002107A800F0B7F9002804DAFF20EC
:1033B00012B070BD0226DCE76846007EF8E700B573
:1033C00087B01822002101A8FEF7CAFD3F216846F8
:1033D0008180FF210231C1800590012006900021EB
:1033E00001A800F099F9002802DAFF2007B000BD1B
:1033F00068460078FAE7FFB5561DA7B01F46154688
:10340000802E02D942202BB0F0BD6C46204602220D
:1034100027A9FEF7A1FDA01C022228A9FEF79CFD0A
:1034200068460571601D2A463946FEF795FDF5B2DE
:103430001822002120A8FEF793FD3F2120A801803B
:10344000FF21223141800F2021A931C126A82490DB
:1034500001202590002120A800F05EF9002801DA63
:10346000FF20D0E720A8007ECDE730B514468FB00E
:103470000A46142C02D942200FB030BD694608809C
:103480004A800C716D4622461946681DFEF764FDA0
:103490001822002108A8FEF763FD3F206946088432
:1034A000FF202430488407A80C900120641D0D9053
:1034B0000A950B94002108A800F02EF9002801DAE3
:1034C000FF20D9E76846007FD6E700B589B06A4695
:1034D000107051701822002102A8FEF741FD3F2014
:1034E0006A4610810F2050810220059001A80690A5
:1034F000012007900492002102A800F00DF9002895
:1035000002DAFF2009B000BD68460079FAE770B51D
:1035100013468D1CA8B00246802D02D9422028B047
:1035200070BD6846027641760A4606AC0126194609
:103530001A30FEF711FDEDB2182200216846FEF7A1
:103540000FFD3F21684601800C21418026A8049090
:103550000021059603950294684600F0DDF80028E6
:1035600001DAFF20DBE720A8007ED8E73EB50DA0FA
:10357000006802900C496846FEF7A0FE0B4C04E080
:103580006846FEF78DFE002809D1208902AB801C19
:1035900081B20222E088FFF72EFF4628F0D00120FA
:1035A00060703EBD010000001027000008000020F0
:1035B00070B586B0064601A80C46009005AB04AA7B
:1035C00002A903A800F01DF805062D0E14D16846C7
:1035D0000089000A3070684600890202228068462D
:1035E00080880006000F0001024322806846808820
:1035F0000007000F02432280FEF736FC284606B083
:1036000070BDF0B589B015460E4607461C46092226
:1036100000216846FEF7A4FC1822002103A8FEF74B
:103620009FFC0421684681810121C1810020059011
:1036300006906846079009200890002103A800F032
:103640006BF8002802DAFF2009B0F0BD6846007868
:103650000028F9D168464078387068464088308044
:1036600068460079287068468179427908021043DB
:1036700020806846017AC27908020E9910430880BA
:103680000020E1E730B58FB00D460446202200212E
:103690006846FEF765FC684604701F2C00D91F249D
:1036A000224604462946401CFEF756FC18220021FB
:1036B00009A8FEF755FC0821684681840921C184C8
:1036C00020200C9008A80D9001200E900B94002152
:1036D00009A800F021F8002802DAFF200FB030BD61
:1036E00008A80078FAE77CB58905890D80020143B6
:1036F0006846018082700121017114461D46032233
:103700006946401DFEF728FC23460422294601A8ED
:1037100000F0C0F87CBD0000F3B504464088217875
:103720008005800D89028BB0084385B2002664278E
:1037300005A8049600F0C0F8FDF7C6F90AE069464E
:10374000534800F0E0F852480099083800F0C3F8F8
:10375000FEF758FB4E48083800F0A0F80228EEDBD0
:10376000FDF7C8F9227B61882088A368FFF7BBFFBB
:103770000C98002802D000200DB0F0BD394607A8F3
:10378000FEF79CFD07A8FEF78BFD002870D1FEF721
:103790008FFB0028F6D1FDF797F904A93C4800F00B
:1037A000B2F804980346017A0833042946D18030E0
:1037B000027A5878D91CD21E0E2818D00F2804D0AF
:1037C000102855D03E2839D11EE0C8788B780002E9
:1037D0001843A8424CD160680F2803D0087800280D
:1037E00046D12BE060690BE06261206918E08B78BC
:1037F0004E7818023043A8423AD1C91C6069D21EE3
:103800009042F1DC0246EFE708786368984215D1F0
:103810006069521E904200DC02466261491C2069C8
:10382000FEF79AFB1A480499083800F048F805A9F1
:10383000174800F099F9FDF75DF99CE7144808383E
:1038400000F055F8002808D0114800F050F8002882
:1038500003D00F480499083801E005A8049900F046
:103860003AF80496FEF7CEFAFDF744F98AE7FFE747
:103870000499002903D00648083800F020F805A96B
:10388000034800F071F9FDF735F90020C04373E7F4
:103890005800002010B5FEF724FB10BD03460020A1
:1038A000EFF3108172B61A6801E01268401C9A4268
:1038B000FBD181F310887047006040607047EFF3E0
:1038C000108272B603680B6048600160086882F37A
:1038D000108841607047EFF3108272B60860436849
:1038E0004B604160486882F3108801607047EFF3D5
:1038F000108172B60268824201D1012000E00020EE
:1039000081F31088704730B50D46EFF3108472B61E
:1039100001682960006800F008F829680020086044
:10392000296884F31088486030BDEFF3108172B6C7
:103930000CC808381A6005C881F3108842607047C7
:1039400030B50D46EFF3108472B6416829604068C7
:10395000FFF7EBFF296800200860296884F31088CE
:10396000486030BD3DA103C98EB0059104903DA1D2
:1039700003C907910690FDF711FA0020FCF740FFFC
:1039800000210846FCF7A0FFFEF72EFC00F0B2FE77
:10399000FCF718FFFEF71CFAFCF7DAFF03A902A8F0
:1039A000FFF706FEFCF7D4FF68468289017A2FA054
:1039B000FEF7DAFA6846007A314C302801D9012046
:1039C0002070607800281DD0062206A908A8FEF7FE
:1039D000C3FA08AA06210020FFF799FD010002D0D2
:1039E00028A0FEF7C1FAFFF7EAFC002802D02DA0BC
:1039F000FEF7BAFA62780BA80AA9012A05D0002AB4
:103A000012D021E0062204A9E0E72278012A1BD186
:103A1000009101900CAB072200210120FFF7D5FB9C
:103A2000002811D024A00DE02278012A0CD10091A9
:103A300001900CAB072200210420FFF7C6FB0028F1
:103A400002D024A0FEF790FA04210120FFF73DFDEB
:103A5000FEF70AFAFEF70EFEFAE70000BB0000E1EF
:103A600080020000A10000E1800200004857766556
:103A7000722025642C2046577665722025640A0042
:103A80000000002053657474696E672042445F41F2
:103A9000444452206661696C656420307825303278
:103AA000782E0A00474154545F496E69742066615C
:103AB000696C65642E0A0000536572766572204752
:103AC00041505F496E6974206661696C65642E0AB5
:103AD00000000000436C69656E74204741505F49E7
:103AE0006E6974206661696C65642E0A00000000CE
:103AF00000B5194889B0007800281DD017A103C966
:103B00000891079000210846FFF7BCFD002007AA96
:103B100006900590082102920390049003460191BB
:103B20000090142211460320FFF78EFB01460DA0E2
:103B3000FEF71AFA09B000BD0020FCF799FE002339
:103B40001A4628210A20FFF7D6FB0028F2D064206D
:103B5000FDF72EF8EEE700000100002009414C457A
:103B60005F41445625640A0038B50C46054607E017
:103B700069462046FFF7E4FE28460099FFF79FFEBE
:103B80002046FFF7B4FE0028F2D038BDF0B51FB4D0
:103B900096B084460C460246199D18980390490039
:103BA00068006300490840080193002A01D00126FB
:103BB00000E000269E19FE4BF6185B109E422BD3A8
:103BC0006E00039F0296002F00D00127F719F84ED0
:103BD000F84BBE199E421FD3039E0346F64F334354
:103BE00009D03B469C4201D1002A04D0019B002A07
:103BF00005D0012604E0002039461BB0F0BD0026A8
:103C00009E19EE4B9E4207D8039F029E002F00D0C4
:103C10000127F6199E4207D92B4660462146189A7D
:103C2000FEF73CFE1BB0F0BD0023002C29DAE44E69
:103C3000B04226DAE34EB04201DB022321E0DE4E41
:103C4000B0421EDBE04E070DBE19142E09DD3427ED
:103C5000BF1B039EFE400196BE40039FBE420BD099
:103C60000FE0039F002F0CD11427BF1B0646FE4018
:103C70000196BE40864204D1019BDE07F60F022367
:103C80009B1B0E46164318D1002D16DA002C03D0CC
:103C9000022B01D0012B06D00220FEF72FFEFEF7EB
:103CA000F3FD1BB0F0BD0220FEF728FEFEF7ECFD91
:103CB0000122D20751401BB0F0BD039E002E61D1FE
:103CC000BF4EB04220D1C148844201D1002A08D061
:103CD000B948814209DB002D10DB189829461BB03A
:103CE000F0BD0020B4491BB0F0BD002D06DA012262
:103CF0002946D207189851401BB0F0BDB449794409
:103D0000086849681BB0F0BDAB4FB84225D1002D03
:103D10001FDA002904D0B14212D1002A09D018E0DC
:103D2000002A72D1A649E20F0020D20711431BB02E
:103D3000F0BD0020E20F0146D20711431BB0F0BDD9
:103D4000B14206DA234600203946FCF7EFFA1BB0F1
:103D5000F0BD104621461BB0F0BDB14212DA01267B
:103D6000B607B54203D1234610461946FEE3994EE5
:103D7000B54207D1261E05DB1046314600F02AFC6D
:103D80001BB0F0BD67007F081646002A40D100290D
:103D90000AD08B4A914229D1002C0EDD002D1CDB6C
:103DA000002011461BB0F0BD022B16D0002C14D001
:103DB000012B12D1002C14DB0FE0002C28DA002D8F
:103DC00009DB012B03D000207D491BB0F0BD002092
:103DD00081491BB0F0BD012B03D0002001461BB070
:103DE000F0BD00200121C9071BB0F0BD724A91420D
:103DF0000ED1002C01DA002B17D0022B06D00020A8
:103E0000C043FCF70BFB1BB0F0BD90E20120F8E7CC
:103E1000E217521C94461A4307D000220892664CBF
:103E200062465B1E1A4307D009E00120FEF766FDDB
:103E3000FEF738FD1BB0F0BD0022644C0892674AC3
:103E400090427DDD664B674A98421FDD914202DC5D
:103E5000002D05DB4DE05848814217DB002D48DD81
:103E60000220FEF74BFDFEF725FD05460E4600221B
:103E7000534B21460898FCF779FB08467100490826
:103E8000C00FC007014328461BB0F0BD914215DAB0
:103E9000002D2EDA0220FEF731FDFEF70BFD054660
:103EA0000E460022464B21460898FCF75FFB720045
:103EB0005208C80FC0070243114617E03E4B994213
:103EC00023DD002D15DD0220FEF718FDFEF7F2FCC4
:103ED00005460E4600223A4B21460898FCF746FB61
:103EE000084671004908C00FC007014328461BB0AF
:103EF000F0BD0220FEF702FDFEF7E6FC490049088E
:103F0000E20FD20711431BB0F0BD00223046394604
:103F1000FCF7FEF9012205460E46D243FCF78EFB64
:103F2000314A324BFCF7FAF92A463346FCF71EFBBE
:103F30000022284BFCF7F2F907462A46334600E0F8
:103F400064E0039110461946FCF710FB3A46039BC8
:103F5000FCF70CFB0746032209915207244B284625
:103F60003146FCF703FB07910C90224A204B384660
:103F70000999FCF7FBFA074601911F4A1F4B284697
:103F80003146FCF7F3FA3A46019BFCF7C1F90746C4
:103F90000B460246099107990C98FCF715F9002584
:103FA0000E462846079B0C9AFCF7B2F93A4627E0E2
:103FB000FFFF1F00FFFF0F000000F03F0000E0FFC9
:103FC0000000F07F0000404301FCFFFF0000F0BF55
:103FD000D60A00000000E03F0000F0FF0000E041D2
:103FE0000000F043FFFFEF3F555555555555D53F60
:103FF0004715F73FFE822B6544DF5DF80BAE543E5C
:10400000099BFCF78BF902460B4652E10125002083
:104010002D05A94207DA352230463946FCF70EFB5A
:1040200006463420C0430A151218FE4810180390A3
:104030000803FD49000B01430F46FC49884201DC9F
:10404000002003E0FA49884202DA0120119005E0DD
:10405000002011900398401C7F1B03901198059736
:10406000C200F4480F9278448018436802683946C9
:1040700030460D930292FCF74BF907910C903046B5
:104080000D9B029A0599FCF79FF802460B4600200B
:10409000E549FCF74BF909910490079B0C9AFCF752
:1040A00065FA129000201090E3480D4678440068AD
:1040B0000E90012178104907084311990D9B89043E
:1040C00040180121C90447183946029A0E98FCF796
:1040D0001FF93246059BFCF721F902460B4629469B
:1040E0001098FCF743FA064602913B4629460E9A81
:1040F0001098FCF73BFA079B0C9AFCF70FF9324635
:10410000029BFCF705F9099B049AFCF72FFA05912D
:10411000129A0A902B4610461946FCF727FA0646D3
:104120000246C6480F460B4606217844FEF756FB6A
:1041300032463B460091049010461946FCF716FAA9
:10414000009B049AFCF712FA06460F462B461946C6
:10415000129A1098FCF738F8059B0A9AFCF706FAB1
:1041600032463B46FCF730F8109A079104902B46F4
:1041700010461946FCF7FAF9B14E00223346099170
:104180000290FCF721F8079B049AFCF71DF8002029
:104190000746024633460091FCF7BAF8099B029A9B
:1041A000FCF7B6F8079B049AFCF7B8F806460D91A1
:1041B0003A462946009B1098FCF7D8F907910C90D5
:1041C0002B463046129A0D99FCF7D0F905460E465B
:1041D0003A46009B05990A98FCF7C8F933462A46E7
:1041E000FBF7F2FF02460B460746099107990C9828
:1041F000FBF7EAFF00250E462846079B0C9AFCF7C2
:1042000087F83A46099BFCF789F807460722099187
:1042100052078C4B31462846FCF7A8F907910090CD
:10422000894A884B38460999FCF7A0F9074601915D
:10423000864A874B31462846FCF798F93A46019B57
:10424000FBF7C2FF834B7B440F9A9B181A685B688D
:10425000FBF7BAFF029009910398FCF7DFF805918C
:104260000490099B029A07990098FBF7ADFF7A4BDF
:104270007B440F9A9B181A685B6817460393FBF7F9
:10428000A3FF059B049AFBF79FFF0E462846059B5C
:10429000049AFCF73DF83A46039BFCF739F8079B74
:1042A000009AFCF735F8099B029AFCF737F80246AA
:1042B0000B46199900200C900F461898FCF756F9F8
:1042C000029104903B460C9A19991898FCF720F833
:1042D0002A463346FCF74AF9029B049AFBF774FF1F
:1042E00009910E902A46334639460C98FCF73EF960
:1042F00006460F46099B0E9AFBF766FF574A0D4686
:10430000914220DB5242AA18024310D132463B466A
:10431000FBF7FEFF04900391514A524B09990E9806
:10432000FBF752FF039B049AFCF7BEF91ED2022052
:10433000FEF7E4FAFEF7BEFA49004908E20FD20799
:1043400011431BB0F0BD6A00474B52089A420DD38F
:10435000464AAA18024300D0CBE532463B46FBF75B
:10436000D7FF099B0E9AFCF79FF9F5D96800002347
:1043700040082C490393020D3D4B5218984223DD0F
:1043800001200005521CD04042195000400D401839
:1043900038497944096813468C463749C1408B43F4
:1043A00012030121120B090551181422101AC140E1
:1043B0000391002D01DA48420390624630463946A7
:1043C000FBF7A6FF06460F4632463B4609990E9874
:1043D000FBF7FAFE00252A46284B28460591FCF7F4
:1043E000C5F807910C90264A264B28460599FCF7FC
:1043F000BDF80091029032463B4628460599FBF7EE
:1044000087FF099B0E9AFBF789FF1F4A1F4BFCF79A
:10441000ADF8009B029AFBF7D7FE07460B46024613
:10442000099135E001FCFFFF0000F03F8E9803008A
:104430007AB60B00E60600002807000052060000CE
:104440000000084009C7EE3FFD033ADCF5015B14AC
:10445000E02F3EBE26050000EC0400000000904066
:10446000FE822B654715973C00CC904000346F3F8F
:104470000000E03F42040000FFFF0F00432EE63F34
:10448000396CA80C615C20BEEF39FAFE422EE63F83
:1044900007990C98FBF798FE05460E46079B0C9A69
:1044A000FBF736FF3A46099BFBF738FF09912A468E
:1044B00033460E9010461946FCF758F80746024658
:1044C0002F480B46059105217844FEF787F93A46B7
:1044D000059BFCF74BF82A463346FBF71FFF0746C0
:1044E000019128463146099B0E9AFCF73FF8099B3B
:1044F0000E9AFBF769FE012304910C9000229B07A2
:1045000038460199FBF704FF05910E903A4628467C
:104510003146019BFCF72AF8059B0E9AFBF706FF34
:10452000049B0C9AFBF7F4FE2A463346FBF7F0FE99
:104530000022144BFBF7F2FE064603980D460005D9
:1045400041190915002912DC30462946039AFCF767
:1045500075F8FEF72DF9042801D1FEF7B5F93046BC
:104560002946039AFCF76AF8064601E004E0291898
:104570000B46324621460898FBF7F8FF1BB0F0BD0A
:10458000E40200000000F03F70B506460D46002032
:10459000FCF77EF9002404E0315D03A0FDF7E4FCA4
:1045A000641CAC42F8DB70BD256300000A4610B500
:1045B00006490978012907D1054C03466189E0883D
:1045C000491C89B2FEF751FF10BD00000100002018
:1045D00008000020F8B506460C46FCF78BF8051ECF
:1045E0000F4600D00120014349000B484908411AF9
:1045F000C90F0DD0002E01D0012100E000210C4395
:1046000061004908401AC00F02D10120FEF776F977
:1046100028463946F8BD00000000F07F10B50C4C6C
:1046200086B0E078002811D10AA0FDF79DFC11A307
:104630000FCB049301AB07C301A800900223114ADA
:104640000121E088FEF77CFE0120E07006B010BD7D
:104650000800002053746172742072656164696E91
:104660006720525820436861722048616E646C650F
:104670000A000000669A0C200008969EE2119EB186
:10468000E2F273D9FFFF000010B50C4C86B0A078A1
:10469000002811D10AA0FDF767FC11A30FCB0493EA
:1046A00001AB07C301A800900223114A0121E08851
:1046B000FEF746FE0120A07006B010BD08000020E5
:1046C00053746172742072656164696E6720545816
:1046D00020436861722048616E646C650A000000C6
:1046E000669A0C200008969EE2119EB1E1F273D901
:1046F000FFFF000010B50B48094901604B21C901BB
:10470000416000218160C160016181610C214161D2
:10471000FDF7D6F9002801D0FCF7F1F910BD000033
:10472000004400406400002007002000002000003A
:10473000000000000000010203040607080903044A
:1047400006080C10182030000000000102030400CD
:10475000000000000000F03F000000000000F83FF3
:1047600000000000000000000000004003B8E23F2D
:10477000000000000000000006D0CF43EBFD4C3EDF
:10478000033333333333E33FFFAB6FDBB66DDB3FD4
:104790004D268F515555D53F01411DA96074D13F1C
:1047A00065DBC9934A86CD3FEF4E454A287ECA3F16
:1047B0003E5555555555C53F93BDBE166CC166BF98
:1047C0002CDE25AF6A56113FF16BD2C541BDBBBE91
:1047D000D0A4BE726937663E0000000000000000F1
:1047E000004800080000002064000000DC280008E9
:1047F000644800086400002084070000EC280008DA
:1048000000010000000000000100000000000000A6
:104810000000000000000000000000000000000098
:104820000000000000000000000000000000000088
:104830000000005000080050E803000000000000E5
:104840000000000080841E00000000000000000046
:104850000000000000000000000000000000000058
:044860000000000054
:04000005080000C12E
:00000001FF
