:020000040800F2
:1000000000080020D5000008892000086D1F0008A6
:1000100000000000000000000000000000000000E0
:10002000000000000000000000000000892100081E
:100030000000000000000000152100088D210008CC
:10004000E7000008E7000008E7000008E7000008F4
:10005000E7000008170C0008E7000008210C000862
:10006000E7000008E7000008E7000008E7000008D4
:10007000E7000008E700000800000000E7000008B3
:1000800000000000E7000008000000000000000081
:10009000E700000800000000E7000008E700000893
:1000A000E7000008E7000008E7000008E700000894
:1000B000E7000008E7000008E7000008E700000884
:1000C0000348854600F01AFB00480047A53A00089F
:1000D000000800200448804704480047FEE7FEE788
:1000E000FEE7FEE7FEE7FEE705220008C100000884
:1000F00030B50B46014600202022012409E00D46C0
:10010000D5409D4205D31D469540491B2546954047
:1001100040191546521E002DF1DC30BDF0B51FB45C
:100120000646002082B005464024019100901BE065
:10013000019922460F46304600F0C7F8049A059B05
:10014000801A994110D310461946224600F0ADF8A6
:10015000361A8F410197224601200021009F00F0AE
:10016000A4F838184D4100902046641E0028DFDCBA
:10017000019B00982946324607B0F0BD10B50346F2
:100180001C460C43A40703D009E010C9121F10C37A
:10019000042AFAD203E00C781C70491C5B1C521E26
:1001A000F9D210BDD2B201E00270401C491EFBD250
:1001B00070470022F6E710B513460A460446194672
:1001C000FFF7F0FF204610BD0321001D401E0378FD
:1001D00012021A43491EF9D51046704703460322FE
:1001E0000870000A491C521EFAD51846704770B5AF
:1001F00002464A40D50F40004A00ED074008520829
:10020000002814D0002A12D0C40DD30D41020120C1
:10021000C0055202490A520AE41A091812187D341C
:10022000914201D3641C00E04900002C01DA002057
:1002300070BD0023914201D3891A0343400849004D
:100240000028F7D100290AD0914202D10121C90723
:1002500005E0914201D2012101E00121C943E005FD
:10026000C018401900F042F870BD10B50022962366
:10027000114600F043F810BDC20F410040020123B7
:10028000400ADB05D207090EC0187F2901DA0020D9
:100290007047962903DC9623591AC84001E0963925
:1002A0008840002AF4D04042704710B5202A04DB71
:1002B0000146203A9140002010BD914020239C1A15
:1002C0000346E3401943904010BD10B5202A04DBDB
:1002D0000846203AD040002110BD0B46D340D04004
:1002E0002024A21A91400843194610BD002904DABF
:1002F000401C490001D140084000704770B4002400
:10030000050C05D11024000402D1002921D01124AC
:10031000050E01D100020834050F01D10001241D92
:10032000850F01D18000A41C002801DB4000641C63
:10033000002908D020252E1B0D46F540A14000D0F5
:1003400001212943084301061B1B000ADB1D02D5BE
:10035000002070BC7047DB05181880180029F8DAF7
:10036000401C4900F5D170BC4008400070470000B7
:10037000F0B507460846584087B0C00F04904800C3
:100380000E46590040084908BC1A884105D2384633
:1003900031461E4617460B46024658004008104399
:1003A0004CD0300D039040055900400D490D05908B
:1003B000401A0290402872DA18030121000B090547
:1003C0000843019004980092002805D001995242F8
:1003D0000020884100920190029840210A1A019958
:1003E0000098FFF762FF05460C466B4607CB00F00E
:1003F00097F9C0197141039A0E0D0023D717564083
:100400001A467A40164344D0049A002A2DD0029A04
:10041000012A039A15DC1205C01A914101263605FE
:10042000001C7141D20F059ED207009301920296E3
:100430002A46234600F094F907B0F0BD384631460D
:10044000FAE71605224A0F46B218C01AB741012131
:100450000905001C4F4100187F41114618187941C9
:10046000E20F10436D19644113E0E2076D08154374
:100470006408C2071443039A01261205C01A914169
:100480003605001C7141CE07400830434908C018AA
:1004900051412A46234600F056F9CDE7FFE704987C
:1004A00001224000C117121A00238B4104983146E3
:1004B000C417381AA141EEE730B40124E4076340C1
:1004C00030BC55E730B40124E407614030BC4FE74D
:1004D0000000E0FFF0B51FB488B00B990998002424
:1004E00048400999C00F490049080991C0070B9974
:1004F0000090490049080B9109990898A6460843BD
:100500001CD00B990A98084318D009980124400080
:10051000420D4800410D099824050003000B2043BB
:1005200009900B980003000B20430B9050181C49B6
:100530004018002201901446104605E000200146B4
:100540000DB0F0BD032801DA034600E003239C460A
:10055000C11A0AAE0AE05F0008ADED5B4F00F75B21
:100560007D430027AA187C41491C5B1E6145F2DDD2
:10057000410004AB5A522104120C0A43240C401CC3
:100580000828DFDB019802900099704601910090E5
:10059000059B049A0799069800F0E2F8D0E700005E
:1005A0000DFCFFFFF0B50C465C4085B0E40FE4079E
:1005B00003944C00002664085900944649080246FA
:1005C0000296224321D062460A431ED06200570D94
:1005D0004A000E032303550D012402462C4924052D
:1005E000781B1B0B360B40182343264361460090B3
:1005F0001C46501AB44103D30098401C009002E0FE
:10060000921800985B41002803DA0020014605B0EB
:10061000F0BD0020012109050746864611E0644629
:100620001D46141BB54106D36546521BB3417446A3
:1006300007430C43A646CD074008490828439218B3
:100640005B4105460D43EAD11046184313D060467E
:10065000194650407140084306D06046101AB34115
:1006600006D20122002306E000220123DB0702E07C
:100670000122D2435310009874460105381C614191
:10068000029C039D0019694100F05DF8BFE700007E
:10069000FD0300004A0009030123090B1B05194350
:1006A0000A4B10B5520D9A4202DA0020014610BDE5
:1006B000064B34339A4203DC9A1AFFF706FE10BD4C
:1006C000034BD218FFF7F1FD10BD0000FF0300003F
:1006D000CDFBFFFF10B5002904DB0124E4074042F5
:1006E0008C412146002B04DB1C460123DB075242D0
:1006F000A341994200D1904210BD0000064C012553
:10070000064E05E0E36807CC2B430C3C98471034B9
:10071000B442F7D3FFF7D8FCB83F0008D83F000831
:1007200010B5202A06DBCB170846203A1041C11726
:100730000B4306E00B461341D0402024A21A9140FF
:100740000843194610BD10B5002B08DA0024401CE0
:10075000614192185B411A4301D14008400010BD2D
:10076000F0B51FB482B005460C0003D0084601F076
:10077000D9FF02E001F0D6FF20300246009021466A
:100780002846FFF792FD049B059A04460F4618433E
:100790001143084314D0184610431BD00098402141
:1007A0000A1A18460599FFF790FD05460E46009A6D
:1007B00005990498FFF779FD084305D0012004E06E
:1007C0002046394607B0F0BD0020C11705430E434F
:1007D0002C43374300990E986305401A7905E40AC3
:1007E00000220C43FD0A0A3002D500200146E9E749
:1007F0000105101969410C9C0D9D00196941FFF715
:10080000A2FFDFE7F0B523A10FC993B006AC0FC478
:1008100024A10FC90FC427A30FCB0FC429480090F0
:100820000723012206A9022002F0B0FD002824D1EE
:1008300024481026801C00270125044600960396B4
:1008400002970E3C01970495059014230AAA0221F1
:10085000A08902F043FD00280FD1A01905900C20BB
:100860000295039604950197009014230EAA022185
:10087000A08902F033FD002805D013A001F030FC60
:10088000472013B0F0BD228AE18918A001F028FCAE
:100890000020F6E7669A0C200008969EE2119EB1B1
:1008A000E0F273D9669A0C200008969EE2119EB180
:1008B000E1F273D9669A0C200008969EE2119EB16F
:1008C000E2F273D9100000204572726F72207768CF
:1008D000696C6520616464696E672053616D706C3A
:1008E0006520536572766963652E0A0053616D70E9
:1008F0006C65205365727669636520616464656424
:100900002E0A545820436861722048616E646C65F9
:1009100020253034582C20525820436861722048DA
:10092000616E646C6520253034580A0010B5094B9F
:100930001C8A641CA04203D1104603F0EDF910BDDF
:10094000D989891C8842FAD110780128F7D15870CA
:1009500010BD00000400002010B5104C0E482060AF
:10096000FF20053060600020A060E0602061012170
:10097000606149022062A16160620721E162082191
:10098000E161A062204600F088FF206801684022F3
:100990001143016010BD000000300140E80000205C
:1009A000F0B5012287B0002806D10E49CB6A134367
:1009B000CB62C96A114000910B4D4400295B019143
:1009C000002103910321094F049102928600B85936
:1009D00001A900F03FFA295BB859002200F0FFFAA4
:1009E00007B0F0BD00100240923F00084800002010
:1009F00010B5054A4100515A044A8000105800229F
:100A000000F0EDFA10BD0000923F00084800002001
:100A100010B5054A4100515A044A8000105801227D
:100A200000F0DDFA10BD0000923F000848000020F1
:100A300010B5044A4100515A034A8000105800F092
:100A4000CAFA10BD923F00084800002010B5044AC1
:100A50004100515A034A8000105800F0B7FA10BD07
:100A6000943F00084C00002030B587B0040007D147
:100A70001648C36A04221343C362C06A104005903B
:100A8000134A6000105A0090012200200392A20035
:100A9000104B0290002913D001290FD10E4801906C
:100AA0009858694600F0D6F9094D00222D1F2857A5
:100AB0000F2100F0E3FA285700F0D6FA07B030BD56
:100AC00001909858694600F0C5F9F7E70010024018
:100AD000943F00084C0000200000211010B50520B4
:100AE0000121000700F072FA012800D0002010BD9B
:100AF00070B5FF24052501342D0700222146284624
:100B000000F06DFA052000F089F9012221462846FF
:100B100000F065FA052000F081F970BDF3B50D46CF
:100B200016A103C985B000260391029072B6324621
:100B300005273F070221384600F051FA0522694691
:100B400002A800F09BFF6846007802280DD1684695
:100B50000179C0780C02044307D0AC4200D92C467E
:100B6000E1B2059800F06EFFE6B20122022138469C
:100B700000F035FA62B6304607B0F0BD0B00000059
:100B800000000000FFB51CA103C985B00290002041
:100B9000164605250391009002462D0701901C463C
:100BA0000221284600F01BFA0522694602A800F03F
:100BB00065FF68460078022802D00024E44313E071
:100BC00068464778B74202D20124E4430CE031463C
:100BD000059800F06FFFB81BC0B2844200D90446EC
:100BE0002146069800F066FF01220221284600F007
:100BF000F6F9204609B0F0BD0A0000000000000030
:100C000001490120486170470004014010B50520EA
:100C100000F020FA10BD10B5012000F00FF910BD52
:100C200010B50120400300F009F9024901200870C5
:100C300010BD00004000002010B5052000F014FA9F
:100C400010BD0020FFF7F4FE642000F0E7F8F8E79D
:100C500070B50546094801224261C18008A001F033
:100C60003FFA0524295D0CA001F03AFA641E002C1D
:100C7000F8DC29780AA001F033FA70BD04000020E6
:100C8000436F6E6E656374656420746F206465766F
:100C90006963653A00000000253032582D000000DD
:100CA000253032580A00000070B5074C00256561F8
:100CB00006A001F015FA012020706570A570E5709E
:100CC0002571657170BD00000400002044697363E4
:100CD0006F6E6E65637465640A00000070B515463A
:100CE00002463348334C03782089401C002B03D044
:100CF000314B1B78002B05D0824202D1284603F0ED
:100D00000BF870BD8242FCD12E46E16A10360029F4
:100D10000FD12AA001F0E4F900F068F960623046D2
:100D2000FFF752FAE97C0002000A09060843401E58
:100D300020633046FFF748FAE97C0002000A090602
:100D400008436063216B4A1C904204D0A26B411A95
:100D50008918491EA1632063E06A401CE062D0D07C
:100D6000FF25F5352946FFF7C3F90029C9D100F061
:100D70003DF9A062616A461A3046FFF776FA0146ED
:100D80001148FFF734FAFFF777FA0346324629464F
:100D90000EA001F0A5F9A16B002902D01AA001F064
:100DA0009FF900F023F960620020A06370BD00008D
:100DB000020000200400002001000020546573742C
:100DC0002073746172740A0000409C47256420708F
:100DD00061636B6574732E20456C6170736564206C
:100DE00074696D653A202564206D732E2041707002
:100DF000207468726F7567687075743A2025642076
:100E00006B6270732E0A00002564206C6F7374206F
:100E10007061636B65742873290A000031B500F0B6
:100E2000E5F8044600F0E2F80099001B8842F9D387
:100E300038BD10B501F006F810BD000010B504492A
:100E40004A69024202D04861FFF7F3FF10BD00007B
:100E500000040140F8B500230124A2E027469F408A
:100E60003A4070D04D68022D01D0122D14D1DD080A
:100E7000AD002D1800952D6A5E07AC46F50E0F26C5
:100E8000AE46AE406546B543AC460E697546AE40CB
:100E900065462E43009D2E624D68012D05D0022D22
:100EA00003D0112D01D0122D16D185680326AC4632
:100EB0005D00AE46AE406546B543AC46CE6875466D
:100EC000AE4065462E43866046680D79BE43ED060A
:100ED000ED0F9D403543456006685F000325BD402A
:100EE000AE46AE430D79B446AE07B60FBE4065467A
:100EF0002E430660C6687546AE438D68BD403543D7
:100F0000C5604D68ED004BD5294D6E6B26436E6371
:100F10009E08284DB6007519AC46AD689E07360F81
:100F20000F27B740BD4305273F07B84201D100272F
:100F300015E0214FB84201D1012710E01F4FB84200
:100F400002D102270BE02BE01D4FB84201D103274D
:100F500005E01C4FB84201D1052700E00627B74045
:100F60002F436546AF60184D2E684F689643FF03C8
:100F700000D516432E606E684F689643BF0300D5B8
:100F800016436E60AE684F689643FF0200D5164365
:100F9000AE60EE684F689643BF0200D51643EE6020
:100FA0005B1C0A681546DD4000D057E7F8BD00001D
:100FB00000100240000001400004005000080050F2
:100FC000000C0050001C0050000401400069084063
:100FD00000D00120704742694A4042617047002AB0
:100FE00001D081617047816270470000014800684C
:100FF000704700006000002002480168491C016041
:10100000704700006000002010B506480168022209
:1010100011430160032000F007F800F019F80020E8
:1010200010BD00000020024010B5044607487D2195
:10103000C9000068FFF75CF800F056FD0022214669
:10104000501E00F01BF8002010BD00005C000020C6
:1010500070470000C106C90E0120884001490860A0
:101060007047000080E100E0C106C90E0120884001
:10107000014908607047000000E100E010B501F090
:1010800005F810BDF8B501265E490746F6020020B6
:1010900035015B4B5B4A4031102F6ED011DC012FC4
:1010A0006FD0022F6BD0042F6AD0082F1CD1C968D3
:1010B00003242403214073D0BD026C10A94274D0D4
:1010C00097E0514C202F03D0402F2FD0B7420BD1A7
:1010D0000B69096903263604012731403F04B942F0
:1010E00003D1990559E02846F8BD01256D04A942B0
:1010F00003D19907F8D54548F8BDB142FCD1116834
:101100008903F9D51168032000050140012000057D
:10111000091A09D0091A05D0814201D13C48F8BD0D
:101120002046F8BD3B48F8BD3B48F8BDC9680125DD
:10113000AD06294006D0A942F7D191688907F4D5B8
:101140003648F8BD11688901FBD5D068D1688002A6
:10115000334D000F2D5C0802810FD068491CC0037D
:1011600006D41068C00601D5204602E0184600E00B
:101170002C486843FEF7BCFFF8BD3DE001E01CE0F1
:1011800029E0CC68A407A40F0CD0022C0DD0012CB0
:1011900010D0032CF0D1096989050029A3DBEBE706
:1011A00016E002E000F004F9E6E711684907E3D52C
:1011B0001846E1E700F00CF9DEE7CC680C26344075
:1011C00006D0082CF1D0042CF4D00C2CE3D0D3E7BB
:1011D00000F0DEF8D0E7CC680327BF023C40F7D030
:1011E000B442E2D0012292029442E3D0BC42D2D077
:1011F000C2E7A142DED0BFE7916B4902E8D4BBE76A
:101200000024F4000010024000093D008890000016
:1012100020A1070040420F0080841E00006CDC0209
:10122000A63F000800127A00F8B5054653480E465E
:101230000068C007C00FB0420AD250480168490890
:101240004900314301600068C007C00FB0426FD150
:1012500028784B4C800705D5E068F0218843A968C1
:101260000843E0602878C00752D06868022817D089
:10127000032818D02168012818D08905002957DAD9
:10128000E168890889000143E160FFF7AFFE696802
:101290000746022912D003291CD0012926D033E0A9
:1012A00021688903EAE721688901E7E74907E5E75B
:1012B000FFF79CFEC11B3348814223D8E06800073A
:1012C000800F0228F4D123E0FFF790FEC11B2D48C8
:1012D000814217D8E0680007800F0328F4D117E097
:1012E000FFF784FEC11B274881420BD8E068000746
:1012F000800F0128F4D10BE0FFF778FEC11B2148D5
:10130000814201D90320F8BDE0680007800FF3D1C6
:101310001A480168C907C90FB1420BD901684908C9
:101320004900314301600068C007C00FB04201D0DE
:101330000120F8BD2878400706D5E068072109029A
:101340008843E9680843E0602878000707D5E0682B
:101350000721C90288432969C9000843E06000F0F9
:1013600037F8E168084A0906090F515CC840074987
:1013700008600320FFF758FE0020F8BD002002405F
:101380000010024088130000963F00085C00002017
:10139000044805490068C968044A4905490F515C79
:1013A000C84070475C00002000100240AF3F0008BA
:1013B000044805490068C968044A8904490F515C1A
:1013C000C84070475C00002000100240AF3F00089A
:1013D00010B5184AD1680C20084004280BD0082802
:1013E00010D00C2810D050680004410F0120C00319
:1013F000491C884010BD1068C00601D50E4810BDBC
:101400000E4810BD0E4810BD88020E4B000F185C30
:101410000902D368890F491CDB0301D5084A05E09E
:101420001268D20601D5044A00E0044A5043FEF790
:101430005FFE10BD0010024000093D000024F400D2
:1014400000127A00A63F0008F8B504460078FE4D69
:10145000C0074AD0E8680007800F022807D0E86874
:101460000007800F032809D1E868C00306D5286863
:1014700080033AD56068002873D036E001206268A6
:101480000004824203D129680143296011E0052349
:1014900001211B0489049A422A6802D10A432A6066
:1014A000F1E782432A602A68024000922868884354
:1014B0002860606800280CD0FFF798FD064604E01D
:1014C000FFF794FD801B64287ED828688003F7D539
:1014D0000BE0FFF78BFD064604E0FFF787FD801B5E
:1014E0006428F1D828688003F7D42078800741D594
:1014F000E8681F270007800F3F02012807D0E8682F
:101500000007800F032809D1E868C00306D42868C3
:10151000400717D5E068012823D113E0E0680028D0
:1015200017D029680922914301432960FFF75EFD26
:10153000064604E0FFF75AFD801B0228C4D828683D
:101540004007F7D568682169B84309020843686015
:1015500010E02868400840002860FFF747FD064675
:1015600005E095E0FFF742FD801B0228ACD8286813
:101570004007F7D42078C00672D5E868B34E00075C
:10158000800F0AD0E06900282868B1495AD0084382
:101590002860FFF72BFD074644E02868800502D548
:1015A000E069002874D0606A69683140884212D9C5
:1015B00000F0B2FD0028AFD16868616AB04308430B
:1015C00068606868000200E0DCE0218C000A09061F
:1015D000084368600FE06968B14301436960686867
:1015E000218C0002000A090608436860606A00F066
:1015F00093FD002890D1606A410B0120C003491C73
:101600008840E96809060A0F9249895CC8409249F6
:1016100008600320FFF708FD22E0FFF7E7FCC01B8E
:1016200002288BD828688005F7D56868616AB043BE
:10163000084368606868218C0002000A09060843B4
:1016400068600DE088432860FFF7D0FC064604E0A0
:10165000FFF7CCFC801B022888D828688005F7D4C7
:1016600020787E4E000723D560690028306910D0AD
:10167000012108433061FFF7B9FC074604E0FFF79A
:10168000B5FCC01B02287DD830698007F7D50FE074
:1016900001E1400840003061FFF7A8FC074604E084
:1016A000FFF7A4FCC01B02286CD830698007F7D470
:1016B0002078400760D5A86B0027C00005D4A86B30
:1016C000012109070843A863012765480168C90586
:1016D00011D40168821511430160FFF787FC009067
:1016E00005E0FFF783FC0099401A64284AD85C485B
:1016F0000068C005F5D55648A268824203D1316919
:101700000143316111E001218902002A07D005233C
:101710001B029A4203D132690A433261EFE7326910
:1017200082433261306988433061A06800280ED05E
:10173000FFF75CFC009006E0FFF758FC0099411AA7
:10174000484881421ED830698005F5D50DE0FFF785
:101750004DFC009006E0FFF749FC0099411A414812
:1017600081420FD830698005F5D4002F04D0A96BD1
:10177000012000078143A9632078800630D53A48CC
:10178000421400E080E0A169002916D0AB68012175
:101790000B43AB606B6B0B436B63016A11430162DC
:1017A000FFF724FC064604E0FFF720FC801B02281C
:1017B0006AD8A8688007F7D512E0A96849084900E7
:1017C000A960016A91430162FFF710FC064604E03C
:1017D000FFF70CFC801B022856D8A8688007F7D4B6
:1017E000A06A002855D0E9680907890F032952D05B
:1017F000012636060228286805D0B0432860FFF786
:10180000F5FB044642E0B0432860FFF7EFFB0746D4
:1018100004E0FFF7EBFBC01B022835D828688001E5
:10182000F7D4216BE06AEA680843616BFD231B046F
:101830009A4311430843E860286830432860FFF763
:10184000D5FB044617E000000010024000E0000055
:1018500000010000963F00085C000020401002409C
:10186000007000408813000000000140FFF7BEFB3D
:10187000001B022808D828688001F7D509E0FFF787
:10188000B5FB001B022801D90320F8BD28688001A0
:10189000F5D40020F8BD0120F8BD70B5040006D0D5
:1018A00025464035687C0026002802D005E001204E
:1018B00070BD2E74204600F033F802206874206852
:1018C0000168402291430160A16860682269084371
:1018D000E16811430843616901220843A16952028A
:1018E00011400843E1690843216A0843A16A08439B
:1018F00021680860A0690421000C0840616A08435F
:10190000216848602168E06A08612068C169920026
:101910009143C161666501206874002070BD0000BC
:10192000F0B50068434987B088427DD14248C16A1A
:1019300001242143C162C16A21400591C16A022686
:101940003143C162C16A31400591C16A2143C1621C
:10195000C16A21400591C16A2143C162C16A214027
:101960000591C16A2143C162C16A21400591C16AE2
:101970002143C162C16A21400591416B8214114328
:1019800041638715002505200194039569460007EA
:10199000009704950294FFF75DFA0520002239466E
:1019A0000007FFF71CFB08200327009001966946FB
:1019B0000397029604952148FFF74CFA40200090C7
:1019C0000520694603970196049502940007FFF7E6
:1019D00041FA802000900520029569460397019600
:1019E00004950007FFF736FA0520019469460007C1
:1019F0000397009604950294FFF72CFA0520012224
:101A000002210007FFF7EBFA0D4801A90094A1C1DC
:101A10000520694600070495FFF71CFA0022032100
:101A20000520FFF72BFB00E002E00520FFF71CFB81
:101A300007B0F0BD0030014000100240000400502B
:101A40000000111030B500230B4A10E01568FF2488
:101A5000EC601468A568ED43AD07FBD4A568ED43C1
:101A6000ED07FBD1E4685B1C0470DBB2401C8B42C9
:101A7000ECD3002030BD0000E800002070B5002449
:101A80000B4B11E01E680578F5601D68401CAE68C0
:101A9000F643B607FBD4AE68F643F607FBD1ED6814
:101AA000641C0D70E4B2491C9442EBD3002070BD5D
:101AB000E800002030B500240A4B0FE01D680278D2
:101AC000EA601A68401C9568ED43AD07FBD4956841
:101AD000ED43ED07FBD1D268641CE4B28C42EDD338
:101AE000002030BDE8000020094910B5401E8842A2
:101AF00001D9012010BD074C60610321081F00F0CF
:101B0000C5FA0020A06107202061002010BD000060
:101B1000FFFFFF0000E000E070B5040005D025469F
:101B20006035687A002802D006E0012070BD0020F0
:101B30002872204600F026F8242068722068016888
:101B4000490849000160606A002802D0204600F080
:101B500098FB204600F02AFC0128E7D02068416865
:101B60000922D20291434160206881682A22914370
:101B7000816020680168012211430160204600F065
:101B8000E5FB70BD30B5144887B0C26A01210A4335
:101B9000C262C26A0A400592C26A0A43C262C26A4B
:101BA0000A400592826B4B041A438263022004248C
:101BB00005250190029103902D0700940494694635
:101BC0002846FFF747F90820009069460494284604
:101BD000FFF740F907B030BD00100240FFB50646E0
:101BE00004466036707A83B00D46202858D1002D07
:101BF0000CD00598002809D00120A168000381427B
:101C000007D12069002804D1E80702D0012007B0DD
:101C1000F0BD307A012843D0012030720020E06608
:101C200021207072FFF7E2F90190274640370598AE
:101C300038820598788218E0788A401E7882069863
:101C40000090002280212046019B00F0BDFC00286E
:101C500018D10120A1680003814202D12069002827
:101C600012D02168287888626D1C788A0028E3D118
:101C700006980090002240212046019B00F0A4FC21
:101C8000002808D00320C2E728882168C005C00DBD
:101C90008862AD1CE9E72020707200203072B6E740
:101CA0000220B4E770B501460A78401C042A32D1FC
:101CB0000278052A30D03E2A31D0FF2A2BD1821C4F
:101CC000C078137800021843364BC31833D00D4642
:101CD00008350E2B40D03448344C00780F2B4DD0B3
:101CE000112B18D1002816D131A000F0F9F9A078F5
:101CF000002802D02079002839D0E07800280AD0C6
:101D00006079002807D168782A780102114361813F
:101D100032A000F0E5F970BDFEF7C6FF70BD817816
:101D2000801C0129FAD1C278837811021943801DE1
:101D3000FEF78EFF70BD2F48917900781379012846
:101D4000507905D000021843D21DFEF7EFFD70BD9B
:101D5000000218430932F8E710792B78801EC1B2CF
:101D60006878D21D00021843FEF7B8FF70BD68788E
:101D70002A780102114321811FA0CAE70028F5D16A
:101D8000A1780120002902D02179002907D0E1782B
:101D90000029EBD061790029E8D1607170BD207114
:101DA00070BD0000FFF3FFFF0100002004000020D1
:101DB0004556545F424C55455F474154545F444932
:101DC00053435F524541445F434841525F42595F2C
:101DD000555549445F524553500A0000525820431C
:101DE0006861722048616E646C6520253034580A41
:101DF0000000000000000020545820436861722059
:101E000048616E646C6520253034580A000000007B
:101E100070B50A4801F0F0FD0848083001F0ECFD0B
:101E2000074D00248C2060434119044801F0F3FD64
:101E3000641CE4B2052CF5D370BD000068000020DE
:101E40004001002008B50020009024E0154801F072
:101E5000EEFD002802D0FEF7D3FE08BD694611480A
:101E600001F0F1FD009880210830FEF757FE0106D1
:101E7000090E06D000988822115400F041F800287D
:101E800004D00848009901F0BAFD04E00548009923
:101E9000083001F0C0FDFEF7B3FEFEF71FFE00287C
:101EA000D4D108BD6800002008B500200090FEF7DE
:101EB000ADFE10E069460D4801F0C5FDFEF7BCFE21
:101EC00000980830FFF7EEFEFEF7A0FE07480099E5
:101ED000083801F0A0FD054801F0A9FD0028E9D06F
:101EE000FFF7B0FFFEF7A8FE08BD0000700000205D
:101EF00010B5024801F09BFD10BD000070000020ED
:101F00000146027A0831042A01D00120704780304E
:101F1000007A8978C01E814201D0022070470020DB
:101F20007047FFB583B00F461C4616460025642156
:101F3000684600F09FF90520FFF78CF8E3B2F2B293
:101F400079190398FEF71EFE002805DB241A2818CD
:101F50000026C5B2002C04D0684600F07DF90028A8
:101F6000ECD00520FFF780F807B0F0BDFEE70000D9
:101F700010B52648002400788CB0002820D024A377
:101F80000FCB0A9307AB07C30021084601F01AFCE8
:101F900023A000F0A5F8002307A80D2106940594BE
:101FA00001910290039404941A460094194618462D
:101FB00001F03DF9014621A000F092F80CB010BDEF
:101FC0001FA000F08DF825A103C9079008910020FB
:101FD000FEF71EFD7D20000105900690282001904F
:101FE00002903C21012004918003039407AB00225E
:101FF0000094014601F02BF80028DFD019A000F072
:102000006FF86420FEF70AFFD8E700000100002007
:1020100009426C75654E52475F4368617400000069
:1020200047656E6572616C20446973636F76657293
:1020300061626C65204D6F646520000025640A00B4
:10204000436C69656E742043726561746520436FEB
:102050006E6E656374696F6E0A000000AA0000E18D
:10206000800200004572726F72207768696C65208B
:102070007374617274696E6720636F6E6E656374EA
:10208000696F6E2E0A000000704700008307FF2270
:10209000DB0E9A408907090E994000280BDA0007E9
:1020A000000F0838830808489B001818C369934339
:1020B0000B43C3617047830804489B001B181868D2
:1020C000904308431860704700ED00E000E400E032
:1020D00010B5FEF753F810BD10B5FEF76CF810BD43
:1020E0000FB400B5A1B023AB80216846229A00F05E
:1020F00003FB82B2FF232D3369460548FFF76EFDCF
:10210000002801D0FEF79DFD21B008BC04B018479F
:10211000780000207047000070B517490023CA6896
:102120001206120F18D18A6B154CD500134A02D52E
:102130001268224009E08E6B01252D072E438E6325
:1021400012688E6B2240AE438E63A24204D10321FB
:102150008903884200D101230A48016849084900DF
:10216000194301600068C007C00F984201D00120E8
:1021700070BD002070BD00000010024000700040E3
:1021800000180000002002407047000010B5FEF764
:1021900033FF02484168491C416010BD40000020E7
:1021A00070B5164C94B0A06B21040843A06314488A
:1021B00001680322D2029143C214891801600220EF
:1021C00000900A90400401260C9003960001102113
:1021D00000250D900B9504916846FFF735F9032013
:1021E0000F901095119501210E9612950EA8FFF7EC
:1021F0001BF8606B3043606314B070BD0010024088
:102200000070004010480168821511430160C168E8
:102210000E4A1140C16001680D4A11400160816899
:1022200049084900816001680122920491430160DC
:10223000C168FD2212049143C1600021016105497A
:10224000C003886070470000001002400C40FF8807
:10225000F6FFF6FE00ED00E010B50446FEF7C6FE00
:102260002168401A6168401C814201D2012010BDE2
:10227000002010BD10B504464160FEF7B7FE206097
:1022800010BD10B5818CC90707D001684A680123C9
:102290005B049A43836A1A434A60818C890707D595
:1022A00001684A6801231B049A43C36A1A434A60BF
:1022B000818C490707D501684A6801239B049A432A
:1022C000036B1A434A60818C090707D501684A6885
:1022D0000123DB039A43436B1A434A60818CC9068E
:1022E00007D50268916801231B039943836B194347
:1022F0009160818C890607D501688A6801235B0398
:102300009A43C36B1A438A60818C490612D50368CD
:102310005A6801210905046C8A4322435A60026C01
:102320008A4207D10268516803235B059943436CD5
:1023300019435160818C090607D501684A68012359
:10234000DB04806C9A4302434A6010BDF8B5002656
:102350000446C666FEF74AFE054620680068124F2E
:10236000000709D501212B46002249052046009788
:1023700000F02AF900280DD12068006840070BD52D
:1023800001212B46002289052046009700F01CF908
:10239000002801D00320F8BD202060346072A072B4
:1023A00026720020F8BD0000FFFFFF01FEB50446C5
:1023B000016880682269E36910436269102700267A
:1023C0001A4310430A683546754B1A4002430A60A7
:1023D00020684168032212039143E268114341607F
:1023E000704A2168A069914201D0226A10438A682C
:1023F0000B231B029A4302438A606B4A21686B4895
:1024000091420CD1C0688007800F06D001283DD0D2
:10241000022839D0032820D11EE001271DE0644A9C
:1024200091420AD1C0680C2108402BD004282DD03D
:10243000082829D00C2810D10EE05A4A91420CD11C
:10244000C1680320800201401CD01015091A1DD05C
:10245000091A19D0814200D108270220FEF712FE86
:102460000190504B514922684039D81300929A424A
:1024700035D1002F0CD0022F0DD0042F12D0082FF1
:102480001CD113E00027E8E70227E6E70427E4E78A
:10249000FEF77EFF08E00868C00601D5454805E064
:1024A000454803E0FEF794FF002873D062685100AE
:1024B0005118814202D81103814201D2012569E0FD
:1024C000010E06025008002330185941FDF726FE80
:1024D00003210902394A411A914259D9EEE7E269CA
:1024E00082422DD13B0000F034F90906080B241973
:1024F0002424241F2400019812E0FEF759FF0FE066
:1025000008686168C00602D548082D4A01E02D4AD6
:1025100048088018FDF7ECFD86B20BE0FEF758FF87
:10252000616840004A08F4E7616801224808120423
:10253000EFE70125310909013007400F084327E083
:102540003B0000F006F909070A0D061D06060629DC
:102550000600B3E7FEF71CFF14E0FEF729FF11E0C9
:1025600008686168C00602D54A08124801E01248AE
:102570004A081018FDF7BCFD81B20098C16009E05F
:10258000FEF726FF61684A088018FDF7B1FD80B2AA
:102590002168C8602846FEBD61684A08E9E7000076
:1025A000F369FFEF0048004000380140401002404E
:1025B0000044004000093D000024F400FFFC0F002F
:1025C00000127A000048E801FFB581B017460E46B8
:1025D00004460A9D1DE0681C1BD0002D05D0FEF7A7
:1025E00005FD0499401AA84213D920680168FF220A
:1025F000A1329143016020688168490849008160E7
:10260000202060346072A07200202072032005B088
:10261000F0BD2068C1693046884304D00020B8422C
:10262000D9D00020F3E70120F9E70000F0B5274CEE
:1026300085B02078002803D0FFF79AFC0020207096
:102640002348244C4078244D002823D12068234E71
:10265000234F002802D03078002806D020680028B8
:1026600008D03878002803D004E001F041FC01E0F4
:1026700001F008FC206800280CD03078002809D030
:102680003878002806D02878002803D1FEF7B0F962
:1026900001F00CF80020FEF7D9F9002813D1002032
:1026A000FEF7D4F90028FAD0206800280BD028784B
:1026B000002808D014220BA16846FDF75FFD142105
:1026C000684601F03BFB05B0F0BD000004000020AF
:1026D0000000002018000020050000200800002055
:1026E0000900002030313233343536373839414231
:1026F000434445464748494A7CB5154602460020B2
:102700001C4600290BD0491E00920191044B6A46D9
:102710002146284600F0F4F8009A002111707CBD93
:10272000393000082021020C01D010211046020A85
:1027300001D010460839020901D01046091F82084D
:1027400001D01046891E420801D0881E7047081A21
:10275000704730B47446641E2578641CAB4200D2C6
:102760001D46635D5B00E31830BC184702E008C8F3
:10277000121F08C1002AFAD170477047002001E0FB
:1027800001C1121F002AFBD170470000F0B51FB431
:1027900086B00998089A030D0021024314D05148CD
:1027A000514A1818504305141198012810981AD04E
:1027B000281A401C00264D4F4D4900960191049067
:1027C000002812DA444211E01198012449A301289B
:1027D00001D11098C1430698119A84600360C260C9
:1027E00041600BB0F0BD4042E4E704462105002003
:1027F0003F4A001C51410391029012E0E00707D0CC
:1028000032463B4601990098FDF764FE0191009025
:1028100032463B4610461946FDF75CFE06460F461B
:102820006410002CEAD10498039B0028029A0999AD
:10283000089806DAFDF74EFE019B009AFDF74AFE66
:1028400005E0FDF7AFFE019B009AFDF7ABFE0446E5
:102850000E460022284BFDF73DFF03D80020C04361
:10286000014607E00022254B20463146FDF780FD5A
:10287000FDF710FF102409E0002C0ADB0A220023D8
:10288000FDF74CFC079B30321A55641E02460A4382
:10289000F2D11122641C079B121B1C19119B012BE6
:1028A00003D0012308430ED10AE0084304D01120CD
:1028B00010900020119077E71098151A6D1E0BE00C
:1028C0001098824202DD00236D1C03E0824201DA8F
:1028D00000236D1E002BEED0069811998260C16016
:1028E00030C07EE701FCFFFF104D000000001440E7
:1028F0000000F03F300000000000F0430000E03F27
:10290000FFB597B00646002518E2252877D10024A8
:102910002746FD49049400E00443761C32780120E8
:10292000203A90400842F7D130782A280ED002226F
:10293000307801463039092916D804990A235943B9
:10294000303940181443761C0490F1E7189802C8F7
:1029500004911890002904DA0120400304434842FE
:10296000049002200443761C30782E2814D10420D1
:1029700004437078761C2A2809D11898761C80C8E0
:10298000189009E00A214F43303FC719761C307870
:10299000014630390929F5D930786C2810D006DC89
:1029A0004C281AD068280ED06A2817D104E0742861
:1029B00013D07A2812D110E00120400504430CE026
:1029C0000121090501E0032109050C4371788142C9
:1029D00003D1012000052418761C761C3078119054
:1029E00066280BD013DC58287DD009DC00287BD06A
:1029F0004528F6D04628F4D047281AD1A5E118E09A
:102A0000632835D0642870D0652812D19DE17028E4
:102A10006CD008DC6728F1D069287BD06E280DD0F7
:102A20006F2806D1BAE073282ED0752871D0782887
:102A300059D01A9A199990476D1C7EE16002400F97
:102A4000022809D003280DD00428189801680DD059
:102A50000D60001D189070E11898EA1701680D606C
:102A60004A60F6E7189801680D80F2E70D70F0E70C
:102A700018986A4601781172001D18900020507253
:102A800002A80090012005E0189802C818900020C4
:102A90000091C04361070DD5002101E00199491C57
:102AA0000191B94212DA8142F8DB009A515C0029A7
:102AB000F4D10BE0002101E00199491C0191814210
:102AC000FADB019A0099895C0029F5D101990498F3
:102AD0001A9B471A21463846199A00F097FA01992D
:102AE000401945180BE04FE02CE113E04EE0009850
:102AF00000990078491C00911A9A199990470198F9
:102B0000401E0190401CF2D1214638461A9B199A6A
:102B100010E137E00A200021009001916002410F8E
:102B2000022907D0189A01CA1892C217944603299D
:102B300008D00AE01898C01DC108C90005C918913D
:102B4000944607E000B2C2179446042902D140B26D
:102B5000C1178C4600226146944506DA0A460021D8
:102B6000404291418C462D2102E0210504D52B21C4
:102B70006A461173012103E0E10701D02021F7E744
:102B8000029155E00A200AE0102008E01020009091
:102B90000021042004430191082703E008200021BC
:102BA000019100906002410F022907D0189A01CAD2
:102BB000189200229446032908D008E01898C01DF6
:102BC000C108C90005C91891944603E080B20429E0
:102BD00000D1C0B200210291210729D51199702995
:102BE00006D0009A1021019B4A401A4305D00EE0FE
:102BF00040216A461173012108E06146014306D075
:102C000030216A4611731199517302210291009A81
:102C10000821019B4A401A430AD16146014301D170
:102C2000610705D530216A46117301217F1E02918B
:102C30001199582904D035A10E910DA90D910DE0DF
:102C400037A1F9E76146019B009AFDF767FA0E9BF1
:102C50008C469B5C0D9A521E0D9213706146014387
:102C6000F0D10D9805A9081A20300190600703D50E
:102C700001200004844300E001270198874201DD20
:102C8000381A00E0002001990090411802980918B4
:102C90000498401A0490E00306D421461A9B199A1E
:102CA000049800F0B3F94519002706E003A81A9A22
:102CB000C05D199990476D1C7F1C02988742F5DB17
:102CC000E0030CD521461A9B199A049800F09EF94E
:102CD000451904E01A9A3020199990476D1C009903
:102CE000481E00900029F5DC08E00D980D99007849
:102CF000491C0D911A9A199990476D1C0199481E0B
:102D000001900029F1DC63E1092801003031323300
:102D10003435363738396162636465660000000017
:102D20003031323334353637383941424344454601
:102D30000000000000F05AF94519761C3078002890
:102D400000D0E2E528461BB0F0BD600700D406279E
:102D50001898C01DC108C90048680A680831C30F27
:102D6000DB071891190001D09CA108E0210501D5CD
:102D70009BA104E0E10701D09AA100E09AA14300E1
:102D800011985B08109165280CD006DC452809D005
:102D900046281DD0472841D141E0662818D0672831
:102DA0003CD13CE00021112F01DB112000E0781C18
:102DB0000191009008A911A8FFF7E8FC139905916B
:102DC0000021119A15927F1C12980197009150E0F2
:102DD0000120C00703900120019008A9009711A8C5
:102DE000FFF7D4FC139A149905920022119B0092CC
:102DF00012981593059A0192002901D0104602E01D
:102E0000791C40180190381A01D5019804E040421D
:102E1000401E0090781C0190C01B029043E0012FDF
:102E200000DA01270021112F01DD112000E03846D2
:102E30000191009008A911A8FFF7A8FC139905912A
:102E4000119A0021129815920091019721070CD434
:102E50000599B94201DB019900E00191012904DDE6
:102E6000159A491E515C302906D0B84201DA011D7D
:102E700005DA0121029115E00199491EEDE70028CC
:102E800005DC0099411800910199091A03E0019AA3
:102E9000411C914200DD01910099401A401C0290B2
:102EA0000120C0070390200706D4029901988142AF
:102EB00002DB0020C043029000206946C87707AFBC
:102EC000012103980337C907884224D002201190BA
:102ED0002B201290039800280CDA404203902D20FA
:102EE000129007E00A210398FDF702F930317F1EA6
:102EF000039039701199481E11900029F2DC039853
:102F00000028EFD1791E12980870307820210840EF
:102F10004530BF1E387006A8C01BC01D0390109816
:102F20000078002800D00120019941180298C017AC
:102F30000918039809180498401A401E0490E003E9
:102F400006D421461A9B199A049800F05FF8451997
:102F500010980078002803D01A9A199990476D1C90
:102F6000E00324D521461A9B199A049800F04EF8E4
:102F700045191CE00098002807DB00990598884255
:102F800003DD1598405C199901E0199930201A9ACF
:102F9000904700986D1C401C00900298401E0290C3
:102FA000002804D11A9A2E20199990476D1C019976
:102FB000481E01900029DDDC05E038781A9A7F1C54
:102FC000199990476D1C0399481E03900029F4DC61
:102FD00021461A9B199A0498ACE600002D000000C7
:102FE0002B0000002000000000000000F8B504469F
:102FF00000251E461746880404D405E039462020E3
:10300000B0476D1C641EF9D52846F8BDFFB50446CF
:10301000002581B01E46C80301D5302700E02027D7
:10302000880404D505E038460399B0476D1C641E3A
:10303000F9D5284605B0F0BD4A68002A06D00A68CE
:10304000531C0B6010704868401E48607047F0B514
:103050008DB06C46159F169E189D20806180227150
:1030600006221946601DFFF733F868461299C172AF
:10307000139981811499C1810782468217998182AF
:10308000C5821822002107A8FFF726F83F216846CD
:1030900081839C21C18318200A900F20089006A8E4
:1030A0000B9001200C900994002107A800F0D4FB9C
:1030B000002802DAFF200DB0F0BD6846007EFAE776
:1030C00070B58AB00E466946087015461C46072240
:1030D000002101A8FFF700F81822002103A8FEF73D
:1030E000FBFF3F20694688818A20C8810120069025
:1030F00001A80790072005910890002103A800F07F
:10310000ABFB002802DAFF200AB070BD68460079E8
:103110000028F9D16846817942790802104330804D
:103120006846017AC2790802104328806846817A8D
:10313000427A0802104320800020E5E7F0B589B00C
:103140006C460E9F0F9E20706170A2701D46072274
:10315000002101A8FEF7C0FF1822002103A8FEF7F6
:10316000BBFF3F20A0818A20E0810320069001A8B8
:103170000790072008900594002103A800F06CFB3D
:10318000002802DAFF2009B0F0BD68460079002867
:10319000F9D168468179427908021043288068464F
:1031A000017AC2790802104338806846817A427AEF
:1031B0000802104330800020E5E7F0B58FB01D46CF
:1031C000134602466846179F169E027041701022F1
:1031D00019466C46801CFEF77BFF6846857414997F
:1031E000C1741599017505A901313046FCF7F6FF48
:1031F000684647761822002108A8FEF76DFF3F2198
:1032000068460184862141841A200B9007A80C90FF
:1032100001200D900A94002108A800F01DFB002851
:1032200002DAFF200FB0F0BD6846007FFAE7FFB575
:1032300091B01D9E1B9DA9190E31282902D942204B
:1032400015B0F0BD6C4620700127022212A9601C47
:10325000FEF73EFFE01C022213A9FEF739FF694684
:10326000149848711A988871CD7102A82A461C9941
:10327000FEF72EFF0835E8B22654401CC5B260198F
:1032800032461E99FEF724FFA819C5B26019022222
:103290001FA9FEF71DFFAD1CEDB26019022220A987
:1032A000FEF716FFAD1CEDB2182200210BA8FEF7A9
:1032B00013FF3F20694688858320C8850AA80F90A0
:1032C000002110970E950D940BA800F0C5FA002868
:1032D00001DAFF20B4E708A8007AB1E7FFB58FB0A4
:1032E0000C466D461E46284602220FA9FEF7F0FE48
:1032F000684603278470012C39D01024E81C22462C
:103300001199FEF7E5FEE41C2E55641C189828550B
:10331000641C19982855641CE0B21A992954401C61
:10332000C0B21B992954401CC0B21C992954401C9E
:10333000C4B20322002107A8FEF7CEFE1822002106
:1033400008A8FEF7C9FE3F2168460184FF21053128
:10335000418407A80C9000210D970A950B9408A8AA
:1033600000F07AFA002804DAFF2013B0F0BD02243E
:10337000C4E76846007F0028F7D16846817F427F16
:1033800008021D99104308800020EEE7F0B58DB0CB
:103390006D461E4617462870012828D01024224664
:1033A000681CFEF795FE641C2F55641C2E550322E5
:1033B000002105A8641CFEF78FFE1822002106A834
:1033C000FEF78AFE3F2168460183FF2103314183D6
:1033D00005A80A9003200B9008950994002106A8DF
:1033E00000F03AFA002804DAFF200DB0F0BD022404
:1033F000D5E76846007D0028F7D16846817D427D8B
:1034000008021299104308800020EEE77FB58EB0C5
:103410006C461E46204602220EA9169DFEF758FE57
:10342000A01C02220FA9FEF753FE201D022210A9A4
:10343000FEF74EFE68468671012E21D01026E01D53
:1034400032462946FEF744FE1822002107A8F61D41
:10345000FEF742FE3F2168468183FF211731C18379
:103460000F2008A951C106A80B9001200C90002143
:1034700007A800F0F1F9002804DAFF2012B070BDAF
:103480000226DCE76846007EF8E700B587B0182220
:10349000002101A8FEF720FE3F2168468180FF2120
:1034A0000231C180059001200690002101A800F0A2
:1034B000D3F9002802DAFF2007B000BD6846007883
:1034C000FAE7FFB59E1DA7B01D461746802E02D90C
:1034D00042202BB0F0BD6C462046022227A9FEF701
:1034E000F7FDA01C022228A9FEF7F2FD684607712D
:1034F0004571A01D2A463099FEF7EAFDF5B2182263
:10350000002120A8FEF7E8FD3F2120A80180FF212F
:103510000731418026A824900120259023952294EC
:10352000002120A800F098F9002801DAFF20D0E758
:1035300020A8007ECDE7FFB5561DA7B01F46154653
:10354000802E02D942202BB0F0BD6C4620460222CC
:1035500027A9FEF7BDFDA01C022228A9FEF7B8FD91
:1035600068460571601D2A463946FEF7B1FDF5B281
:103570001822002120A8FEF7AFFD3F2120A80180DE
:10358000FF21223141800F2021A931C126A824909A
:1035900001202590002120A800F05EF9002801DA22
:1035A000FF20D0E720A8007ECDE730B514468FB0CD
:1035B0000A46142C02D942200FB030BD694608805B
:1035C0004A800C716D4622461946681DFEF780FD43
:1035D0001822002108A8FEF77FFD3F2069460884D5
:1035E000FF202430488407A80C900120641D0D9012
:1035F0000A950B94002108A800F02EF9002801DAA2
:10360000FF20D9E76846007FD6E700B589B06A4653
:10361000107051701822002102A8FEF75DFD3F20B6
:103620006A4610810F2050810220059001A8069063
:10363000012007900492002102A800F00DF9002853
:1036400002DAFF2009B000BD68460079FAE770B5DC
:1036500013468D1CA8B00246802D02D9422028B006
:1036600070BD6846027641760A4606AC01261946C8
:103670001A30FEF72DFDEDB2182200216846FEF744
:103680002BFD3F21684601800C21418026A8049033
:103690000021059603950294684600F0DDF80028A5
:1036A00001DAFF20DBE720A8007ED8E73EB50DA0B9
:1036B000006802900C496846FEF7DCFD0B4C04E004
:1036C0006846FEF7C9FD002809D1208902AB801C9D
:1036D00081B20222E088FFF72EFF4628F0D00120B9
:1036E00060703EBD010000001027000004000020B3
:1036F00070B586B0064601A80C46009005AB04AA3A
:1037000002A903A800F01DF805062D0E14D1684685
:103710000089000A307068460089020222806846EB
:1037200080880006000F00010243228068468088DE
:103730000007000F02432280FEF7B6FB284606B0C2
:1037400070BDF0B589B015460E4607461C460922E5
:1037500000216846FEF7C0FC1822002103A8FEF7EE
:10376000BBFC0421684681810121C18100200590B4
:1037700006906846079009200890002103A800F0F1
:103780006BF8002802DAFF2009B0F0BD6846007827
:103790000028F9D168464078387068464088308003
:1037A000684600792870684681794279080210439A
:1037B00020806846017AC27908020E991043088079
:1037C0000020E1E730B58FB00D46044620220021ED
:1037D0006846FEF781FC684604701F2C00D91F2440
:1037E000224604462946401CFEF772FC182200219E
:1037F00009A8FEF771FC0821684681840921C1846B
:1038000020200C9008A80D9001200E900B94002110
:1038100009A800F021F8002802DAFF200FB030BD1F
:1038200008A80078FAE77CB58905890D8002014374
:103830006846018082700121017114461D460322F1
:103840006946401DFEF744FC23460422294601A890
:1038500000F0C0F87CBD0000F3B504464088217834
:103860008005800D89028BB0084385B2002664274D
:1038700005A8049600F0C0F8FDF7C8F90AE069460B
:10388000534800F0E0F852480099083800F0C3F8B7
:10389000FEF7D8FA4E48083800F0A0F80228EEDB10
:1038A000FDF7CAF9227B61882088A368FFF7BBFF78
:1038B0000C98002802D000200DB0F0BD394607A8B2
:1038C000FEF7D8FC07A8FEF7C7FC002870D1FEF76A
:1038D0000FFB0028F6D1FDF799F904A93C4800F048
:1038E000B2F804980346017A0833042946D180309F
:1038F000027A5878D91CD21E0E2818D00F2804D06E
:10390000102855D03E2839D11EE0C8788B780002A7
:103910001843A8424CD160680F2803D008780028CB
:1039200046D12BE060690BE06261206918E08B787A
:103930004E7818023043A8423AD1C91C6069D21EA1
:103940009042F1DC0246EFE708786368984215D1AF
:103950006069521E904200DC02466261491C206987
:10396000FEF7B6FB1A480499083800F048F805A994
:10397000174800F0BFF9FDF75FF99CE714480838D5
:1039800000F055F8002808D0114800F050F8002841
:1039900003D00F480499083801E005A8049900F005
:1039A0003AF80496FEF74EFAFDF746F98AE7FFE784
:1039B0000499002903D00648083800F020F805A92A
:1039C000034800F097F9FDF737F90020C04373E78B
:1039D0007000002010B5FEF7A4FA10BD03460020C9
:1039E000EFF3108172B61A6801E01268401C9A4227
:1039F000FBD181F310887047006040607047EFF39F
:103A0000108272B603680B6048600160086882F338
:103A1000108841607047EFF3108272B60860436807
:103A20004B604160486882F3108801607047EFF393
:103A3000108172B60268824201D1012000E00020AC
:103A400081F31088704730B50D46EFF3108472B6DD
:103A500001682960006800F008F829680020086003
:103A6000296884F31088486030BDEFF3108172B686
:103A70000CC808381A6005C881F310884260704786
:103A800030B50D46EFF3108472B641682960406886
:103A9000FFF7EBFF296800200860296884F310888D
:103AA000486030BD50A103C990B00791069050A165
:103AB00003C909910890FDF7A7FA0020FCF770FFF1
:103AC00000210846FCF7D0FFFEF76AFB00F046FA3B
:103AD000FCF742FFFEF79CF9FDF70AF805A904A8D8
:103AE000FFF706FEFDF704F86846828A017C42A0D3
:103AF000FEF7F6FA6846007C0125444C302800D9D0
:103B000025706078002837D0062208A90CA8FEF797
:103B1000DFFA0CAA06210020FFF799FD010002D070
:103B20003BA0FEF7DDFAFFF7B0FC002802D040A072
:103B3000FEF7D6FA62780BA8012A22780AA91ED0CD
:103B4000012A2AD003460A460EA90320FFF7B8FA35
:103B5000002802D03BA0FEF7C3FA3F480021102204
:103B6000009202900723039501910A460120FFF776
:103B700024FB00281AD01CE0062206A9C6E7012A69
:103B800004D003460A460EA90120DFE70091072270
:103B9000019000210EAB012005E0009101900EABD9
:103BA000072200210420FFF7C9FAD1E72BA0FEF776
:103BB00097FA6078012801D02EA007E035A0FEF723
:103BC0008FFAFCF71FFE00280BD03AA0FEF788FA08
:103BD00004210120FFF719FDFEF766F9FEF726FD27
:103BE000FAE73CA0F2E70000BB0000E18002000021
:103BF000AA0000E180020000485776657220256423
:103C00002C2046577665722025640A0000000020AB
:103C100053657474696E672042445F414444522086
:103C20006661696C6564203078253032782E0A0030
:103C3000474154545F496E6974206661696C6564DC
:103C40002E0A00004741505F496E69742066616921
:103C50006C65642E0A00000040E20100424C4520E1
:103C6000537461636B20496E697469616C697A652C
:103C7000642E0A00434C49454E543A20424C45209C
:103C8000537461636B20496E697469616C697A650C
:103C9000640A00005345525645523A20424C452092
:103CA000537461636B20496E697469616C697A65EC
:103CB000640A00004572726F72207768696C652033
:103CC000616464696E6720736572766963652E0A44
:103CD0000000000053657276696365206164646565
:103CE00064207375636365737366756C6C792E0AF3
:103CF0000000000038B50C46054607E0694620463E
:103D0000FFF7BEFE28460099FFF779FE2046FFF731
:103D10008EFE0028F2D038BD70B506460D46002054
:103D2000FCF786FE002404E0315D03A0FEF7D8F91D
:103D3000641CAC42F8DB70BD25630000F0B5354A69
:103D4000354C127889B0012A0AD062890346521C88
:103D500095B20A462946E088FFF727FC09B0F0BD76
:103D60002E4A1278002A4CD0FF2701AEF5371422D4
:103D70002BA101A8FCF702FAA06969460875020A9E
:103D80004A75020C8A75020ECA75002805D129A051
:103D9000FEF7A6F9FDF72AF9E061294906A8FEF722
:103DA00069FA04E006A8FEF757FA002808D1009641
:103DB00014230022E189A089FFF783FB6428F1D056
:103DC000A069401CA061D2D03946FCF791F90029C6
:103DD000CDD1FDF70BF92062E169451A2846FCF7C1
:103DE00044FA01461748FCF702FAFCF745FA034685
:103DF0002A46394614A0FEF773F9FDF7F7F8E0619B
:103E0000B5E700900B460022E189A089FFF759FB36
:103E1000A4E70000010000200400002002000020B0
:103E200030313233343536373839414243444546F0
:103E300000000000546573742073746172740A008A
:103E40001027000000409C472564207061636B656B
:103E500074732E20456C61707365642074696D65A0
:103E60003A202564206D732E204170702074687292
:103E70006F7567687075743A202564206B62707383
:103E80002E0A000010B50C4C86B0E078002811D145
:103E90000AA0FEF725F911A30FCB049301AB07C3CA
:103EA00001A800900223114A0121E088FFF7AEFA31
:103EB0000120E07006B010BD040000205374617250
:103EC000742072656164696E67205258204368618E
:103ED000722048616E646C650A000000669A0C20CE
:103EE0000008969EE2119EB1E2F273D9FFFF000036
:103EF00010B50C4C86B0A078002811D10AA0FEF7AE
:103F0000EFF811A30FCB049301AB07C301A80090F6
:103F10000223114A0121E088FFF778FA0120A070FE
:103F200006B010BD040000205374617274207265E5
:103F30006164696E6720545820436861722048614B
:103F40006E646C650A000000669A0C200008969E5C
:103F5000E2119EB1E1F273D9FFFF000010B50B48EA
:103F6000094901604B21C901416000218160C160A4
:103F7000016181610C214161FDF7CEFD002801D076
:103F8000FCF75FFE10BD00000044004078000020F8
:103F900007002000002000000000000000000102D7
:103FA000030406070809030406080C101820300053
:103FB0000000000102030400D83F000800000020B8
:103FC000780000006C2700085040000878000020AE
:103FD000880700007C2700080001010001000000A4
:103FE00000000000000000000000000000000000D1
:103FF00000000000000000000000000000000000C1
:1040000000000000000000000000000000000000B0
:1040100000000000000000000000000000000000A0
:104020000000005000080050E803000000000000FD
:104030000000000080841E0000000000000000005E
:104040000000000000000000000000000000000070
:04000005080000C12E
:00000001FF
